:100000000C942A000C943F000C943F000C943F0089
:100010000C943F000C943F000C943F000C943F0064
:100020000C943F000C943F000C943F000C943F0054
:100030000C943F000C943F000C943F000C943F0044
:100040000C943F000C943F000C943F000C943F0034
:100050000C943F0011241FBECFE5D8E0DEBFCDBF1A
:1000600011E0A0E6B0E0E6E6FEE302C005900D92E6
:10007000A035B107D9F70E94D5060C94311F0C9416
:100080000000EF92FF920F931F937B018C0120E001
:1000900030E040E05FE40E94ED0388238CF0C8016B
:1000A000B70120E030E040E05FE40E94B9010E9427
:1000B0004D049B01AC01205030404040504806C0E8
:1000C000C801B7010E944D049B01AC01B901CA01EE
:1000D0001F910F91FF90EF900895A0E0B0E0E3E74B
:1000E000F0E00C94FA1EDC012B01FA019C91923095
:1000F00008F439C1EB018881823008F433C19430AF
:1001000069F4843009F02FC111969C91119789816F
:10011000981709F428C1AFE1B1E025C1843009F492
:1001200021C18230A9F4923009F01DC19A01AD01BC
:1001300088E0EA010990AE01E90109929E0181502F
:10014000C1F7E201898111969C918923818308C1BD
:10015000923009F407C112962D903C901397EB0151
:100160008A819B811496AD90BD90CD90DC901797BD
:10017000EC80FD800E811F819101281B390BB90194
:1001800037FF04C066277727621B730B6032710547
:100190000CF061C0121613066CF537014801062EEB
:1001A00004C096948794779467940A94D2F721E0D8
:1001B00030E040E050E004C0220F331F441F551FC1
:1001C0006A95D2F721503040404050402E213F21C7
:1001D00040235123211531054105510521F021E02E
:1001E00030E040E050E079018A01E628F72808294C
:1001F00019293CC0232BD1F1260E371E35014601AB
:10020000062E04C096948794779467940A94D2F744
:1002100021E030E040E050E004C0220F331F441FD3
:10022000551F6A95D2F721503040404050402A2156
:100230003B214C215D21211531054105510521F05E
:1002400021E030E040E050E059016A01A628B728DB
:10025000C828D9280BC0821593052CF01C01AA24AC
:10026000BB24650103C0EE24FF24870111969C91F5
:10027000D20111968C91981709F445C0992339F051
:10028000A80197012A193B094C095D0906C0A6017E
:1002900095012E193F09400B510B57FD08C01182E3
:1002A0003382228224833583468357831DC081E0B5
:1002B00081833382228288279927DC01821B930B5A
:1002C000A40BB50B84839583A683B7830DC0220F3F
:1002D000331F441F551F24833583468357838281F0
:1002E000938101979383828324813581468157814D
:1002F000DA01C9010197A109B1098F5F9F4FAF4F83
:10030000BF4328F30BC0918333822282EA0CFB1C8B
:100310000C1D1D1DE482F5820683178383E0808314
:10032000248135814681578157FF1AC0C901AA2708
:1003300097FDA095BA2F81709070A070B0705695FF
:10034000479537952795822B932BA42BB52B848328
:100350009583A683B7838281938101969383828359
:10036000DF0101C0D201CD01CDB7DEB7E2E10C94CF
:10037000161FA0E2B0E0EFEBF1E00C94061F6983DA
:100380007A838B839C832D833E834F835887E9E058
:10039000EE2EF12CEC0EFD1ECE010196B7010E944F
:1003A00076058E010F5E1F4FCE010596B8010E94A3
:1003B00076058A8991E089278A8BC701B801AE0149
:1003C000475E5F4F0E946D000E94A104A096E6E088
:1003D0000C94221FA0E2B0E0E0EFF1E00C94061FC5
:1003E00069837A838B839C832D833E834F835887D5
:1003F000F9E0EF2EF12CEC0EFD1ECE010196B701B7
:100400000E9476058E010F5E1F4FCE010596B80142
:100410000E947605C701B801AE01475E5F4F0E949A
:100420006D000E94A104A096E6E00C94221FA0E2B9
:10043000B0E0EDE1F2E00C94FA1E69837A838B83DD
:100440009C832D833E834F835887CE010196BE0146
:10045000675F7F4F0E947605CE010596BE016F5EF5
:100460007F4F0E9476059985923088F08989823085
:10047000C8F0943019F4823051F404C0843029F467
:10048000923081F48FE191E0C6C0923049F420E0CF
:100490009A858A89981321E02A87CE010996BBC0E4
:1004A000823049F420E09A858A89981321E02A8BCA
:1004B000CE014196B0C02D843E844F8458886D880B
:1004C0007E888F88988CEE24FF248701AA24BB2481
:1004D000650140E050E060E070E0E0E0F0E0C10184
:1004E00081709070892BE9F0E60CF71C081D191D2E
:1004F0009A01AB012A0D3B1D4C1D5D1D80E090E073
:10050000A0E0B0E0E614F7040805190520F481E046
:1005100090E0A0E0B0E0BA01A901480F591F6A1F9E
:100520007B1FAA0CBB1CCC1CDD1C97FE08C081E005
:1005300090E0A0E0B0E0A82AB92ACA2ADB2A3196C6
:10054000E032F10549F0660C771C881C991C569422
:10055000479437942794C3CFFA85EA892B893C893D
:100560008B859C85280F391F2E5F3F4F17C0CA010E
:1005700081709070892B61F016950795F794E79438
:1005800080E090E0A0E0B0E8E82AF92A0A2B1B2BD3
:1005900076956795579547952F5F3F4F77FDE7CF46
:1005A0000CC0440F551F661F771F17FD4160EE0CEE
:1005B000FF1C001F111F21503040403090E05907B0
:1005C00090E0690790E4790760F32B8F3C8FDB01A3
:1005D000CA018F779070A070B07080349105A1052A
:1005E000B10561F447FD0AC0E114F10401051105EC
:1005F00029F0405C5F4F6F4F7F4F40781A8EFE1797
:1006000011F081E08A8F4D8F5E8F6F8F78A383E02A
:10061000898FCE0149960E94A104A096E2E10C9434
:10062000161FA8E1B0E0E7E1F3E00C94021F698334
:100630007A838B839C832D833E834F835887B9E0D5
:10064000EB2EF12CEC0EFD1ECE010196B7010E949F
:1006500076058E010F5E1F4FCE010596B8010E94F0
:1006600076052985223008F47EC03989323010F4AD
:10067000B8017CC08A859A8989278A87243011F03D
:10068000223031F4231709F06EC06FE171E06EC0C3
:10069000343039F41D861E861F86188A1C861B86F8
:1006A00004C0323021F484E08987B7015FC02B8514
:1006B0003C858B899C89281B390B3C872B87ED84D3
:1006C000FE840F851889AD88BE88CF88D88CEA143F
:1006D000FB040C051D0540F4EE0CFF1C001F111F50
:1006E000215030403C872B8720E030E040E050E054
:1006F00080E090E0A0E0B0E460E070E0EA14FB0489
:100700000C051D0540F0282B392B4A2B5B2BEA18D2
:10071000FB080C091D09B695A79597958795EE0CD2
:10072000FF1C001F111F6F5F7F4F6F31710531F785
:10073000DA01C9018F779070A070B0708034910594
:10074000A105B10561F427FD0AC0E114F10401051A
:10075000110529F0205C3F4F4F4F5F4F20782D87C8
:100760003E874F87588BBE01675F7F4FCB010E944A
:10077000A1046896EAE00C941E1FA8E1B0E0E3EC47
:10078000F3E00C94061F69837A838B839C832D830B
:100790003E834F83588789E0E82EF12CEC0EFD1E36
:1007A000CE010196B7010E9476058E010F5E1F4FA4
:1007B000CE010596B8010E9476058985823040F009
:1007C0008989823028F0C701B8010E94EE0501C076
:1007D0008FEF6896E6E00C94221FA8E1B0E0E3EF0B
:1007E000F3E00C94061F69837A838B839C832D83AB
:1007F0003E834F83588789E0E82EF12CEC0EFD1ED6
:10080000CE010196B7010E9476058E010F5E1F4F43
:10081000CE010596B8010E9476058985823040F0A8
:100820008989823028F0C701B8010E94EE0501C015
:100830008FEF6896E6E00C94221FA8E1B0E0E3E2B7
:10084000F4E00C94061F69837A838B839C832D8349
:100850003E834F83588789E0E82EF12CEC0EFD1E75
:10086000CE010196B7010E9476058E010F5E1F4FE3
:10087000CE010596B8010E9476058985823040F048
:100880008989823028F0C701B8010E94EE0501C0B5
:1008900081E06896E6E00C94221FACE0B0E0E3E56E
:1008A000F4E00C940A1F69837A838B839C83CE01C6
:1008B0000196BE016B5F7F4F0E9476058D8182306D
:1008C00061F1823050F1843021F48E81882351F11E
:1008D0002EC02F81388537FD20C06E812F31310524
:1008E0001CF06623F9F023C08EE190E0821B930B8D
:1008F00029853A854B855C8504C056954795379583
:1009000027958A95D2F76623B1F05095409530959A
:1009100021953F4F4F4F5F4F0EC020E030E040E049
:1009200050E009C02FEF3FEF4FEF5FE704C020E03A
:1009300030E040E050E8B901CA012C96E2E00C94A6
:10094000261FDF92EF92FF920F931F93FC01E4802A
:10095000F58006811781D1808081823048F480E063
:1009600090E0A0E1B0E0E82AF92A0A2B1B2BA5C0F1
:10097000843009F49FC0823021F4EE24FF248701E3
:1009800005C0E114F1040105110519F4E0E0F0E0FF
:1009900096C0628173819FEF623879070CF05BC06B
:1009A00022E83FEF261B370B2A3131052CF020E0DF
:1009B00030E040E050E02AC0B801A701022E04C098
:1009C00076956795579547950A94D2F781E090E020
:1009D000A0E0B0E004C0880F991FAA1FBB1F2A9592
:1009E000D2F70197A109B1098E219F21A023B1233C
:1009F0000097A105B10521F081E090E0A0E0B0E012
:100A00009A01AB01282B392B4A2B5B2BDA01C90148
:100A10008F779070A070B07080349105A105B105FA
:100A200039F427FF09C0205C3F4F4F4F5F4F04C090
:100A3000215C3F4F4F4F5F4FE0E0F0E02030A0E0FF
:100A40003A07A0E04A07A0E45A0710F0E1E0F0E01E
:100A500079018A0127C06038710564F5FB01E1580E
:100A6000FF4FD801C7018F779070A070B0708034AD
:100A70009105A105B10539F4E7FE0DC080E490E0D1
:100A8000A0E0B0E004C08FE390E0A0E0B0E0E80EAA
:100A9000F91E0A1F1B1F17FF05C016950795F7942F
:100AA000E794319687E016950795F794E7948A9531
:100AB000D1F705C0EE24FF248701EFEFF0E06E2FA1
:100AC000679566276795902F9F77D794DD24D794F5
:100AD0008E2F8695492F462B582F5D29B701CA01C5
:100AE0001F910F91FF90EF90DF900895FC01DB01C3
:100AF000408151812281622F6F7770E0221F22276F
:100B0000221F9381892F880F822B282F30E0991F75
:100B10009927991F11969C93119721153105A9F5D5
:100B2000411551056105710511F482E037C082E875
:100B30009FEF13969C938E9312979A01AB0167E0F7
:100B4000220F331F441F551F6A95D1F783E08C9302
:100B50000DC0220F331F441F551F12968D919C917B
:100B60001397019713969C938E931297203080E0F1
:100B7000380780E0480780E4580758F314962D930F
:100B80003D934D935C93179708952F3F310579F46A
:100B9000411551056105710519F484E08C930895A0
:100BA00064FF03C081E08C9312C01C9210C02F57C9
:100BB000304013963C932E93129783E08C9387E0FA
:100BC000440F551F661F771F8A95D1F770641496DE
:100BD0004D935D936D937C93179708951F93DC015C
:100BE000FB019C91923008F447C08081823008F468
:100BF00043C0943051F411961C91843099F5818151
:100C0000682F70E0611B71093FC0843021F0923081
:100C100031F48230B9F18181882389F12DC0119698
:100C20001C9111978230F1F081811817D9F4129636
:100C30002D913C911397828193818217930794F0B1
:100C400028173907BCF014968D919D910D90BC9199
:100C5000A02D2481358146815781281739074A07FD
:100C60005B0718F4112341F00AC082179307A40709
:100C7000B50740F4112319F061E070E005C06FEF93
:100C80007FEF02C060E070E0CB011F910895DF9319
:100C9000CF93CDB7DEB70E943E1780E690E00E946A
:100CA0007D1381E060E00E941D1481E790E00E94C6
:100CB0007D13CF91DF910895DF93CF9300D0CDB70F
:100CC000DEB79A83898389819A810E944B18E981D2
:100CD000FA818081813351F0E981FA818081823308
:100CE00029F0E981FA818081833369F70F900F90B1
:100CF000CF91DF910895DF93CF93CDB7DEB70E94F8
:100D00003E1781E890E00E947D1381E060E00E9440
:100D10001D148EE890E00E947D13CF91DF9108951D
:100D2000DF93CF9300D000D00F92CDB7DEB79D8375
:100D30008C831B821A8219822BC08981282F30E074
:100D40008C819D81FC01E20FF31F8081813619F1B6
:100D50008A819B819C01220F331FC901880F991F33
:100D6000880F991FA901480F591F8981282F30E04A
:100D70008C819D81FC01E20FF31F8081882F90E020
:100D8000840F951FC0979B838A8389818F5F898396
:100D90008981833090F28A819B810F900F900F9010
:100DA0000F900F90CF91DF9108950F931F93DF93D2
:100DB000CF93CDB7DEB7CE57D0400FB6F894DEBF95
:100DC0000FBECDBF0E9409180E94511481E061E05E
:100DD0000E945B190E94AB0CCE0186599F4FEC9686
:100DE0009FAF8EAFEC9789E191E0EE969FAF8EAF0B
:100DF000EE9796E0EF969FAFEF97EE96EEADFFADD4
:100E0000EE970080EE968EAD9FADEE970196EE9632
:100E10009FAF8EAFEE97EC96EEADFFADEC970082F4
:100E2000EC968EAD9FADEC970196EC969FAF8EAF92
:100E3000EC97EF969FADEF979150EF969FAFEF979E
:100E4000EF96EFADEF97EE23C1F6FE01E759FF4FA6
:100E50001082FE01E859FF4F1082FE01E959FF4F51
:100E60001082FE01EA59FF4F10828BE990E00E9448
:100E70007D13FE01E15AFF4F80E090E0AAE7B4E461
:100E800080839183A283B3838E01055A1F4FFE0195
:100E9000E15AFF4F608171818281938120E030E0CF
:100EA0004AE755E40E941702DC01CB01F801808378
:100EB0009183A283B383FE01E55AFF4F6081718164
:100EC0008281938120E030E040E85FE30E941D04CE
:100ED000882344F4FE01E75AFF4F81E090E09183BC
:100EE000808364C0FE01E55AFF4F60817181828179
:100EF000938120E03FEF4FE757E40E94BD031816AF
:100F00000CF043C0FE01E15AFF4F60817181828184
:100F1000938120E030E040E251E40E941702DC01BE
:100F2000CB018E01075A1F4FBC01CD010E94410029
:100F3000DC01CB01F801918380831FC0FE01E95AD7
:100F4000FF4F80E991E091838083FE01E95AFF4FD2
:100F5000808191810197F1F7FE01E95AFF4F91835A
:100F60008083DE01A75ABF4FFE01E75AFF4F808101
:100F70009181019711969C938E93FE01E75AFF4F42
:100F8000808191810097D1F627C08E01075A1F4FAB
:100F9000FE01E55AFF4F60817181828193810E9439
:100FA0004100DC01CB01F80191838083DE01AB5A63
:100FB000BF4FFE01E75AFF4F808191818D939C9333
:100FC000FE01EB5AFF4F808191810197F1F7FE01FD
:100FD000EB5AFF4F918380830E943E178AEA90E08C
:100FE0000E947D1381E060E00E941D14FE01EB5819
:100FF000FF4F1082FE01EA58FF4F1082CE018B583E
:101000009F4F0E944B18FE01EB58FF4F80818F3F8E
:1010100031F18AE20E947D11FE01E759FF4F808184
:10102000282F30E0FE01EB58FF4F4081CE01805960
:101030009F4FFC01E20FF31F4083DE01A759BF4F12
:10104000FE01E759FF4F80818F5F8C93DE01A85925
:10105000BF4FFE01E859FF4F80818F5F8C93FE01E7
:10106000E859FF4F8081853009F6FE01EC59FF4FAA
:10107000118210822CC0FE01EC59FF4F208131817A
:10108000CE0180599F4FFC01E20FF31F4081FE010A
:10109000EC59FF4F20813181CE0186599F4FFC01D1
:1010A000E20FF31F8081481731F0FE01EA59FF4F2C
:1010B00081E0808314C0DE01AC59BF4FFE01EC59C2
:1010C000FF4F80819181019611969C938E93FE0132
:1010D000EC59FF4F808191818530910564F2FE01CA
:1010E000EA59FF4F8081882309F4D8C0FE01E759EF
:1010F000FF4F1082FE01E859FF4F1082FE01EA59AE
:10110000FF4F10820E943E178AEB90E00E947D13F1
:1011100081E060E00E941D1489EC90E00E947D1344
:10112000FE01EF5AFF4F80E090E0AAE7B4E480832D
:101130009183A283B3838E01035B1F4FFE01EF5A9D
:10114000FF4F608171818281938120E030E04AE726
:1011500055E40E941702DC01CB01F80180839183E2
:10116000A283B383FE01E35BFF4F608171818281C3
:10117000938120E030E040E85FE30E941D04882373
:1011800044F4FE01E55BFF4F81E090E091838083B2
:1011900064C0FE01E35BFF4F6081718182819381B6
:1011A00020E03FEF4FE757E40E94BD0318160CF014
:1011B00043C0FE01EF5AFF4F6081718182819381AC
:1011C00020E030E040E251E40E941702DC01CB0154
:1011D0008E01055B1F4FBC01CD010E944100DC0167
:1011E000CB01F801918380831FC0FE01E75BFF4FB5
:1011F00080E991E091838083FE01E75BFF4F80816E
:1012000091810197F1F7FE01E75BFF4F91838083A6
:10121000DE01A55BBF4FFE01E55BFF4F8081918141
:10122000019711969C938E93FE01E55BFF4F8081A1
:1012300091810097D1F627C08E01055B1F4FFE01FB
:10124000E35BFF4F60817181828193810E94410045
:10125000DC01CB01F80191838083DE01A95BBF4FE4
:10126000FE01E55BFF4F808191818D939C93FE0190
:10127000E95BFF4F808191810197F1F7FE01E95B06
:10128000FF4F918380830E943E178AEA90E00E947C
:101290007D1381E060E00E941D14A8CEFE01E95993
:1012A000FF4F8081882309F098C00E943E1784ED8B
:1012B00090E00E947D1381E060E00E941D148FED9C
:1012C00090E00E947D13FE01E959FF4F81E0808389
:1012D000FE01ED5BFF4F80E090E0AAE7B4E480837D
:1012E0009183A283B3838E01015C1F4FFE01ED5BEE
:1012F000FF4F608171818281938120E030E04AE775
:1013000055E40E941702DC01CB01F8018083918330
:10131000A283B383FE01FF966081718182819381F4
:1013200020E030E040E85FE30E941D0488232CF4B5
:1013300081E090E09EAF8DAF46C0FE01FF966081D8
:1013400071818281938120E03FEF4FE757E40E9453
:10135000BD03181664F5FE01ED5BFF4F60817181DE
:101360008281938120E030E040E251E40E94170244
:10137000DC01CB01BC01CD010E944100DC01CB01AD
:101380009EAF8DAF0FC080E991E09CAF8BAF8BAD6E
:101390009CAD0197F1F79CAF8BAF8DAD9EAD0197E2
:1013A0009EAF8DAF8DAD9EAD009769F716C0FE0163
:1013B000FF9660817181828193810E944100DC01EE
:1013C000CB019EAF8DAF8DAD9EAD9AAF89AF89AD8C
:1013D0009AAD0197F1F79AAF89AF0E944706CE0107
:1013E0008A589F4F0E945C06FE01EA58FF4F808199
:1013F000813331F50E947B06CE018A589F4F0E94AF
:101400005C06FE01EA58FF4F8081813349F480E099
:1014100061E00E949E1981E061E00E949E19E6CD84
:10142000FE01EA58FF4F8081823309F0DFCD80E072
:1014300060E00E949E1981E060E00E949E19D6CD76
:10144000FE01EA58FF4F8081823309F0E5C10E9416
:101450003E1780EF90E00E947D13FE01ED59FF4F93
:101460001082C4C0CE018B589F4F0E944B18FE01C2
:10147000EB58FF4F80818F3F09F49AC0FE01EB5873
:10148000FF4F80818D3309F493C0FE01EB58FF4F6D
:1014900080810E947D11FE01ED59FF4F8081282F30
:1014A00030E0FE01EB58FF4F4081CE0189589F4F3D
:1014B000FC01E20FF31F4083DE01AD59BF4FFE0177
:1014C000ED59FF4F80818F5F8C9380E090E0A8E41E
:1014D000B3E48DAB9EABAFABB8AF6DA97EA98FA9BE
:1014E00098AD20E030E04AE755E40E941702DC01A5
:1014F000CB0189AB9AABABABBCAB69A97AA98BA981
:101500009CA920E030E040E85FE30E941D048823AE
:101510002CF481E090E098AB8FA73FC069A97AA92D
:101520008BA99CA920E03FEF4FE757E40E94BD0341
:1015300018164CF56DA97EA98FA998AD20E030E072
:1015400040E251E40E941702DC01CB01BC01CD0155
:101550000E944100DC01CB0198AB8FA70FC080E94E
:1015600091E09EA78DA78DA59EA50197F1F79EA757
:101570008DA78FA598A9019798AB8FA78FA598A93C
:10158000009769F733C069A97AA98BA99CA90E9421
:101590004100DC01CB0198AB8FA78FA598A99CA730
:1015A0008BA78BA59CA50197F1F79CA78BA71EC0C5
:1015B000FE01EB58FF4F80818D33C1F4FE01ED59E0
:1015C000FF4F8081813031F4FE01E958FF4F81E601
:1015D000818313C0FE01ED59FF4F8081823031F4C9
:1015E000FE01E958FF4F81E6828307C0FE01ED59F5
:1015F000FF4F8081833009F035CF0E947B06CE01FA
:101600008A589F4F0E945C06FE01EA58FF4F808176
:10161000813309F07DC0CE0189589F4F0E9490060A
:101620009C0181E0B9010E94DB0C80E090E0AAE718
:10163000B4E48FA398A7A9A7BAA76FA178A589A595
:101640009AA520E030E04AE755E40E941702DC0149
:10165000CB018BA39CA3ADA3BEA36BA17CA18DA149
:101660009EA120E030E040E85FE30E941D04882353
:101670002CF481E090E09AA389A33FC06BA17CA1E8
:101680008DA19EA120E03FEF4FE757E40E94BD03EC
:1016900018164CF56FA178A589A59AA520E030E031
:1016A00040E251E40E941702DC01CB01BC01CD01F4
:1016B0000E944100DC01CB019AA389A30FC080E9FD
:1016C00091E098A38F8F8F8D98A10197F1F798A340
:1016D0008F8F89A19AA101979AA389A389A19AA121
:1016E000009769F783CC6BA17CA18DA19EA10E947C
:1016F0004100DC01CB019AA389A389A19AA19E8F05
:101700008D8F8D8D9E8D0197F1F79E8F8D8F6ECC75
:10171000FE01EA58FF4F8081823309F067CCCE0189
:1017200089589F4F0E9490069C0180E0B9010E9459
:10173000DB0C80E090E0AAE7B4E4898F9A8FAB8F4E
:10174000BC8F698D7A8D8B8D9C8D20E030E04AE7CF
:1017500055E40E941702DC01CB018D8B9E8BAF8B71
:10176000B88F6D897E898F89988D20E030E040E8C0
:101770005FE30E941D0488232CF481E090E09C8BA1
:101780008B8B3FC06D897E898F89988D20E03FEFDC
:101790004FE757E40E94BD0318164CF5698D7A8D0A
:1017A0008B8D9C8D20E030E040E251E40E941702D6
:1017B000DC01CB01BC01CD010E944100DC01CB0169
:1017C0009C8B8B8B0FC080E991E09A8B898B8989E8
:1017D0009A890197F1F79A8B898B8B899C8901975C
:1017E0009C8B8B8B8B899C89009769F7FFCB6D89CC
:1017F0007E898F89988D0E944100DC01CB019C8BF2
:101800008B8B8B899C89988B8F878F859889019783
:10181000F1F7988B8F87EACBFE01EA58FF4F808162
:10182000833309F0E3CB0E943E178DEF90E00E94D6
:101830007D1381E060E00E941D1489E091E00E9428
:101840007D1380E090E0AAE7B4E48B879C87AD87A6
:10185000BE876B857C858D859E8520E030E04AE7DC
:1018600055E40E941702DC01CB018F839887A9877A
:10187000BA876F81788589859A8520E030E040E8D5
:101880005FE30E941D0488232CF481E090E09E8396
:101890008D833FC06F81788589859A8520E03FEFF1
:1018A0004FE757E40E94BD0318164CF56B857C8505
:1018B0008D859E8520E030E040E251E40E941702D1
:1018C000DC01CB01BC01CD010E944100DC01CB0158
:1018D0009E838D830FC080E991E09C838B838B81F5
:1018E0009C810197F1F79C838B838D819E81019769
:1018F0009E838D838D819E81009769F714C06F81CF
:10190000788589859A850E944100DC01CB019E8300
:101910008D838D819E819A83898389819A810197A4
:10192000F1F79A8389830E943E1780E00E94261A6D
:1019300081E00E94261A0E94A10E80E090E0C25829
:10194000DF4F0FB6F894DEBF0FBECDBFCF91DF9152
:101950001F910F910895DF93CF93CDB7DEB781E04C
:1019600060E041E00E946C1A81E061E041E00E9489
:101970006C1A81E062E041E00E946C1A81E063E051
:1019800041E00E946C1A81E060E040E00E94961BFA
:1019900081E061E040E00E94961B81E062E040E06F
:1019A0000E94961B81E063E040E00E94961B81E06C
:1019B000CF91DF910895DF93CF93CDB7DEB7A59791
:1019C0000FB6F894DEBF0FBECDBF8BA37DA36CA373
:1019D00081E08AA38BA1813021F08BA1882309F0BB
:1019E000A5C18CA19DA121E08936920708F09EC176
:1019F0008FE089A38CA19DA12AE530E0B9010E9466
:101A0000C41ECB0198A38F8F8BA1813009F0C5C074
:101A10001E8EB9C08E8D882F90E09C01237030708F
:101A200083E090E0022E02C0880F991F0A94E2F72B
:101A3000982F89A1892389A38E8D882F90E08370A8
:101A400090708330910511F489E089A389A1982FC2
:101A5000917081E063E0492F0E94961B89A18695D1
:101A6000982F917081E062E0492F0E94961B89A116
:101A700086958695982F917081E061E0492F0E94AC
:101A8000961B89A1869586958695982F917081E001
:101A900060E0492F0E94961B80E090E0AAEFB2E43C
:101AA000898F9A8FAB8FBC8F698D7A8D8B8D9C8D32
:101AB00020E030E04AE755E40E941702DC01CB0148
:101AC0008D8B9E8BAF8BB88F6D897E898F89988D1A
:101AD00020E030E040E85FE30E941D0488232CF4FE
:101AE00081E090E09C8B8B8B3FC06D897E898F89D4
:101AF000988D20E03FEF4FE757E40E94BD03181692
:101B00004CF5698D7A8D8B8D9C8D20E030E040E224
:101B100051E40E941702DC01CB01BC01CD010E94FF
:101B20004100DC01CB019C8B8B8B0FC080E991E0E5
:101B30009A8B898B89899A890197F1F79A8B898B7E
:101B40008B899C8901979C8B8B8B8B899C890097B7
:101B500069F714C06D897E898F89988D0E94410034
:101B6000DC01CB019C8B8B8B8B899C89988B8F871D
:101B70008F8598890197F1F7988B8F878FE089A3DC
:101B80008E8D8F5F8E8F8E8D282F30E08F8D98A158
:101B90002817390708F43ECFCAC08BA1882309F063
:101BA000C6C01D8EB9C08D8D882F90E09C0123701A
:101BB000307083E090E0022E02C0880F991F0A94D3
:101BC000E2F7982F89A1892389A38D8D882F90E032
:101BD000837090708330910511F489E089A389A105
:101BE000982F917081E060E0492F0E94961B89A197
:101BF0008695982F917081E061E0492F0E94961B95
:101C000089A186958695982F917081E062E0492F91
:101C10000E94961B89A1869586958695982F91702E
:101C200081E063E0492F0E94961B80E090E0AAEFDC
:101C3000B2E48B879C87AD87BE876B857C858D855D
:101C40009E8520E030E04AE755E40E941702DC015F
:101C5000CB018F839887A987BA876F81788589851B
:101C60009A8520E030E040E85FE30E941D0488236D
:101C70002CF481E090E09E838D833FC06F81788556
:101C800089859A8520E03FEF4FE757E40E94BD0326
:101C900018164CF56B857C858D859E8520E030E09F
:101CA00040E251E40E941702DC01CB01BC01CD01EE
:101CB0000E944100DC01CB019E838D830FC080E92F
:101CC00091E09C838B838B819C810197F1F79C83AE
:101CD0008B838D819E8101979E838D838D819E81D3
:101CE000009769F714C06F81788589859A850E946D
:101CF0004100DC01CB019E838D838D819E819A837F
:101D0000898389819A810197F1F79A8389838FE08A
:101D100089A38D8D8F5F8D8F8D8D282F30E08F8DD6
:101D200098A12817390708F43ECF01C01AA28AA14A
:101D3000A5960FB6F894DEBF0FBECDBFCF91DF9151
:101D40000895DF93CF93CDB7DEB72E970FB6F894F3
:101D5000DEBF0FBECDBF81E060E040E00E94961B79
:101D600081E061E040E00E94961B81E062E040E09B
:101D70000E94961B81E063E040E00E94961B80E099
:101D800090E0AAEFB2E48B879C87AD87BE876B8516
:101D90007C858D859E8520E030E04AE755E40E94F1
:101DA0001702DC01CB018F839887A987BA876F81DF
:101DB000788589859A8520E030E040E85FE30E94DD
:101DC0001D0488232CF481E090E09E838D833FC026
:101DD0006F81788589859A8520E03FEF4FE757E44A
:101DE0000E94BD0318164CF56B857C858D859E85FC
:101DF00020E030E040E251E40E941702DC01CB0118
:101E0000BC01CD010E944100DC01CB019E838D838A
:101E10000FC080E991E09C838B838B819C8101972B
:101E2000F1F79C838B838D819E8101979E838D83A7
:101E30008D819E81009769F714C06F8178858985AF
:101E40009A850E944100DC01CB019E838D838D81A8
:101E50009E819A83898389819A810197F1F79A8378
:101E6000898381E02E960FB6F894DEBF0FBECDBFFA
:101E7000CF91DF910895DF93CF9300D00F92CDB72C
:101E8000DEB78B8381E08A838B818A3070F580E0B6
:101E900061E00E947E1D198224C08981882F90E014
:101EA000FC01EF5CFE4F40818B81882F90E0FC01AC
:101EB000E95DFE4F8081282F30E08981882F90E0F6
:101EC000B90102C0759567958A95E2F7CB01982F05
:101ED000917080E0642F492F0E94961B89818F5F4B
:101EE000898389818730C8F201C01A828A810F9064
:101EF0000F900F90CF91DF910895DF93CF93CDB7DF
:101F0000DEB7E1970FB6F894DEBF0FBECDBF89AB49
:101F100080E061E040E00E94961B80E060E040E0ED
:101F20000E94961B89A9982F991F9927991F80E0D5
:101F300066E0492F0E94961B89A982958695869511
:101F40008370982F917080E065E0492F0E94961B66
:101F500089A9829586958770982F917080E064E0BA
:101F6000492F0E94961B89A982958F70982F917096
:101F700080E063E0492F0E94961B80E062E041E030
:101F80000E94961B80E090E0A0E8BFE38DA79EA78B
:101F9000AFA7B8AB6DA57EA58FA598A92BEA3AEAA5
:101FA0004AEA50E40E941702DC01CB0189A79AA7F4
:101FB000ABA7BCA769A57AA58BA59CA520E030E0BE
:101FC00040E85FE30E941D0488231CF481E088A799
:101FD00091C069A57AA58BA59CA520E030E04FE7CC
:101FE00053E40E94BD0318160CF07BC06DA57EA5BE
:101FF0008FA598A920E030E04AE754E40E9411033D
:10200000DC01CB018CA39DA3AEA3BFA36CA17DA1DA
:102010008EA19FA120E030E04AE755E40E9417021C
:10202000DC01CB0188A399A3AAA3BBA368A179A1D2
:102030008AA19BA120E030E040E85FE30E941D04FC
:1020400088232CF481E090E09F8F8E8F3FC068A1A1
:1020500079A18AA19BA120E03FEF4FE757E40E94BE
:10206000BD0318164CF56CA17DA18EA19FA120E0A7
:1020700030E040E251E40E941702DC01CB01BC01D8
:10208000CD010E944100DC01CB019F8F8E8F0FC0DC
:1020900080E991E09D8F8C8F8C8D9D8D0197F1F75C
:1020A0009D8F8C8F8E8D9F8D01979F8F8E8F8E8DA4
:1020B0009F8D009769F724C068A179A18AA19BA18F
:1020C0000E944100DC01CB019F8F8E8F8E8D9F8DF2
:1020D0009B8F8A8F8A8D9B8D0197F1F79B8F8A8FBB
:1020E0000FC069A57AA58BA59CA50E944100DC01C3
:1020F000CB0188A788A5898F898D8A95F1F7898F6B
:1021000080E062E040E00E94961B89A98695869552
:102110008695982F917080E066E0492F0E94961B6B
:1021200089A986958695982F917080E065E0492F62
:102130000E94961B89A98695982F917080E064E093
:10214000492F0E94961B89A9982F917080E063E027
:10215000492F0E94961B80E062E041E00E94961B9E
:1021600080E090E0A0E8BFE38D8B9E8BAF8BB88FB3
:102170006D897E898F89988D2BEA3AEA4AEA50E484
:102180000E941702DC01CB01898B9A8BAB8BBC8B35
:1021900069897A898B899C8920E030E040E85FE397
:1021A0000E941D0488231CF481E0888B91C06989FA
:1021B0007A898B899C8920E030E04FE753E40E94C4
:1021C000BD0318160CF07BC06D897E898F89988DB0
:1021D00020E030E04AE754E40E941103DC01CB0127
:1021E0008C879D87AE87BF876C857D858E859F8513
:1021F00020E030E04AE755E40E941702DC01CB0101
:1022000088879987AA87BB87688579858A859B8512
:1022100020E030E040E85FE30E941D0488232CF4B6
:1022200081E090E09F838E833FC0688579858A85B1
:102230009B8520E03FEF4FE757E40E94BD0318164F
:102240004CF56C857D858E859F8520E030E040E2F1
:1022500051E40E941702DC01CB01BC01CD010E94B8
:102260004100DC01CB019F838E830FC080E991E0A8
:102270009D838C838C819D810197F1F79D838C8355
:102280008E819F8101979F838E838E819F8100978E
:1022900069F724C0688579858A859B850E944100FD
:1022A000DC01CB019F838E838E819F819B838A83F8
:1022B0008A819B810197F1F79B838A830FC069898B
:1022C0007A898B899C890E944100DC01CB01888B33
:1022D0008889898389818A95F1F7898380E062E022
:1022E00040E00E94961B81E0E1960FB6F894DEBFB5
:1022F0000FBECDBFCF91DF910895DF93CF93CDB7C0
:10230000DEB7E1970FB6F894DEBF0FBECDBF89AB45
:1023100080E061E041E00E94961B80E060E040E0E8
:102320000E94961B89A9982F991F9927991F80E0D1
:1023300066E0492F0E94961B89A98295869586950D
:102340008370982F917080E065E0492F0E94961B62
:1023500089A9829586958770982F917080E064E0B6
:10236000492F0E94961B89A982958F70982F917092
:1023700080E063E0492F0E94961B80E062E041E02C
:102380000E94961B80E090E0A0E8BFE38DA79EA787
:10239000AFA7B8AB6DA57EA58FA598A92BEA3AEAA1
:1023A0004AEA50E40E941702DC01CB0189A79AA7F0
:1023B000ABA7BCA769A57AA58BA59CA520E030E0BA
:1023C00040E85FE30E941D0488231CF481E088A795
:1023D00091C069A57AA58BA59CA520E030E04FE7C8
:1023E00053E40E94BD0318160CF07BC06DA57EA5BA
:1023F0008FA598A920E030E04AE754E40E94110339
:10240000DC01CB018CA39DA3AEA3BFA36CA17DA1D6
:102410008EA19FA120E030E04AE755E40E94170218
:10242000DC01CB0188A399A3AAA3BBA368A179A1CE
:102430008AA19BA120E030E040E85FE30E941D04F8
:1024400088232CF481E090E09F8F8E8F3FC068A19D
:1024500079A18AA19BA120E03FEF4FE757E40E94BA
:10246000BD0318164CF56CA17DA18EA19FA120E0A3
:1024700030E040E251E40E941702DC01CB01BC01D4
:10248000CD010E944100DC01CB019F8F8E8F0FC0D8
:1024900080E991E09D8F8C8F8C8D9D8D0197F1F758
:1024A0009D8F8C8F8E8D9F8D01979F8F8E8F8E8DA0
:1024B0009F8D009769F724C068A179A18AA19BA18B
:1024C0000E944100DC01CB019F8F8E8F8E8D9F8DEE
:1024D0009B8F8A8F8A8D9B8D0197F1F79B8F8A8FB7
:1024E0000FC069A57AA58BA59CA50E944100DC01BF
:1024F000CB0188A788A5898F898D8A95F1F7898F67
:1025000080E062E040E00E94961B89A9869586954E
:102510008695982F917080E066E0492F0E94961B67
:1025200089A986958695982F917080E065E0492F5E
:102530000E94961B89A98695982F917080E064E08F
:10254000492F0E94961B89A9982F917080E063E023
:10255000492F0E94961B80E062E041E00E94961B9A
:1025600080E090E0A0E8BFE38D8B9E8BAF8BB88FAF
:102570006D897E898F89988D2BEA3AEA4AEA50E480
:102580000E941702DC01CB01898B9A8BAB8BBC8B31
:1025900069897A898B899C8920E030E040E85FE393
:1025A0000E941D0488231CF481E0888B91C06989F6
:1025B0007A898B899C8920E030E04FE753E40E94C0
:1025C000BD0318160CF07BC06D897E898F89988DAC
:1025D00020E030E04AE754E40E941103DC01CB0123
:1025E0008C879D87AE87BF876C857D858E859F850F
:1025F00020E030E04AE755E40E941702DC01CB01FD
:1026000088879987AA87BB87688579858A859B850E
:1026100020E030E040E85FE30E941D0488232CF4B2
:1026200081E090E09F838E833FC0688579858A85AD
:102630009B8520E03FEF4FE757E40E94BD0318164B
:102640004CF56C857D858E859F8520E030E040E2ED
:1026500051E40E941702DC01CB01BC01CD010E94B4
:102660004100DC01CB019F838E830FC080E991E0A4
:102670009D838C838C819D810197F1F79D838C8351
:102680008E819F8101979F838E838E819F8100978A
:1026900069F724C0688579858A859B850E944100F9
:1026A000DC01CB019F838E838E819F819B838A83F4
:1026B0008A819B810197F1F79B838A830FC0698987
:1026C0007A898B899C890E944100DC01CB01888B2F
:1026D0008889898389818A95F1F7898380E062E01E
:1026E00040E00E94961B81E0E1960FB6F894DEBFB1
:1026F0000FBECDBFCF91DF910895DF93CF9300D070
:102700000F92CDB7DEB79B838A830EC08981282FB5
:1027100030E08A819B81FC01E20FF31F80810E94DF
:102720007D1189818F5F89838981282F30E08A819B
:102730009B81FC01E20FF31F8081882339F781E040
:102740000F900F900F90CF91DF9108950F931F93EB
:10275000DF93CF93CDB7DEB760970FB6F894DEBFA7
:102760000FBECDBF6D877E878F87988B1A821982A7
:102770008D859E85AF85B8890097A105B10589F53E
:1027800080E30E947D114DC08A81082F10E08D8565
:102790009E85AF85B8892AE030E040E050E0BC017A
:1027A000CD010E94D81EDC01CB01282FCE0103965B
:1027B000FC01E00FF11F20838D859E85AF85B889D0
:1027C0002AE030E040E050E0BC01CD010E94D81E7C
:1027D000DA01C9018D879E87AF87B88B8A818F5FA9
:1027E0008A838D859E85AF85B8890097A105B1053F
:1027F00059F68A818150898311C08981282F332716
:1028000027FD3095CE010396FC01E20FF31F808176
:10281000805D0E947D11898181508983898188230F
:1028200064F781E060960FB6F894DEBF0FBECDBFAF
:10283000CF91DF911F910F910895DF93CF9300D037
:1028400000D00F92CDB7DEB789836A838A81883240
:10285000F0F48981282F30E03D832C838C819D8189
:10286000009731F02C813D812130310531F00AC0D3
:102870008A8180580E947D0F07C08A8180540E94FF
:102880007D0F02C01B8204C031E03B8301C01B826C
:102890008B810F900F900F900F900F90CF91DF9141
:1028A00008950F931F93DF93CF93CDB7DEB7CC542A
:1028B000D0400FB6F894DEBF0FBECDBF80E061E020
:1028C00041E00E946C1A80E060E041E00E946C1AD6
:1028D00080E062E041E00E946C1A80E066E041E046
:1028E0000E946C1A80E065E041E00E946C1A80E072
:1028F00064E041E00E946C1A80E063E041E00E94E5
:102900006C1AFE01E75BFF4F80E090E0ACE0B2E4C0
:1029100080839183A283B3838E010B5B1F4FFE01E3
:10292000E75BFF4F608171818281938120E030E01D
:102930004AE755E40E941702DC01CB01F8018083CD
:102940009183A283B383FE01EB5BFF4F60817181B2
:102950008281938120E030E040E85FE30E941D0423
:10296000882344F4FE01ED5BFF4F81E090E091830A
:10297000808364C0FE01EB5BFF4F608171818281C7
:10298000938120E03FEF4FE757E40E94BD03181604
:102990000CF043C0FE01E75BFF4F608171818281D3
:1029A000938120E030E040E251E40E941702DC0114
:1029B000CB018E010D5B1F4FBC01CD010E94410078
:1029C000DC01CB01F801918380831FC0FE01EF5B26
:1029D000FF4F80E991E091838083FE01EF5BFF4F21
:1029E000808191810197F1F7FE01EF5BFF4F9183A9
:1029F0008083DE01AD5BBF4FFE01ED5BFF4F808149
:102A00009181019711969C938E93FE01ED5BFF4F90
:102A1000808191810097D1F624C08E010D5B1F4FFC
:102A2000FE01EB5BFF4F60817181828193810E9487
:102A30004100DC01CB01F80191838083FE01ED5B55
:102A4000FF4F80819181FE01FF9691838083FE017B
:102A5000FF96808191810197F1F7FE01FF969183A6
:102A6000808383E30E947D0F82E30E947D0F88E2D2
:102A70000E947D0F80E090E0A0E2B2E48BAF9CAFBB
:102A8000ADAFBEAF6BAD7CAD8DAD9EAD2BEA3AEA7E
:102A90004AEA50E40E941702DC01CB018FAB98AFE9
:102AA000A9AFBAAF6FA978AD89AD9AAD20E030E09B
:102AB00040E85FE30E941D0488231CF481E08EAB94
:102AC00091C06FA978AD89AD9AAD20E030E04FE7B5
:102AD00053E40E94BD0318160CF07BC06BAD7CADB7
:102AE0008DAD9EAD20E030E04AE754E40E94110332
:102AF000DC01CB018AAB9BABACABBDAB6AA97BA9BC
:102B00008CA99DA920E030E04AE755E40E94170215
:102B1000DC01CB018EA79FA7A8ABB9AB6EA57FA5A3
:102B200088A999A920E030E040E85FE30E941D04F5
:102B300088232CF481E090E09DA78CA73FC06EA570
:102B40007FA588A999A920E03FEF4FE757E40E94AD
:102B5000BD0318164CF56AA97BA98CA99DA920E094
:102B600030E040E251E40E941702DC01CB01BC01DD
:102B7000CD010E944100DC01CB019DA78CA70FC0B5
:102B800080E991E09BA78AA78AA59BA50197F1F709
:102B90009BA78AA78CA59DA501979DA78CA78CA50F
:102BA0009DA5009769F724C06EA57FA588A999A95E
:102BB0000E944100DC01CB019DA78CA78CA59DA59F
:102BC00099A788A788A599A50197F1F799A788A73C
:102BD0000FC06FA978AD89AD9AAD0E944100DC01AC
:102BE000CB018EAB8EA98FA38FA18A95F1F78FA30E
:102BF0008FE00E947D0F80E090E0A0E2B2E48BA322
:102C00009CA3ADA3BEA36BA17CA18DA19EA12BEA29
:102C10003AEA4AEA50E40E941702DC01CB018F8FA6
:102C200098A3A9A3BAA36F8D78A189A19AA120E046
:102C300030E040E85FE30E941D0488231CF481E03B
:102C40008E8F91C06F8D78A189A19AA120E030E08C
:102C50004FE753E40E94BD0318160CF07BC06BA134
:102C60007CA18DA19EA120E030E04AE754E40E94BF
:102C70001103DC01CB018A8F9B8FAC8FBD8F6A8DD6
:102C80007B8D8C8D9D8D20E030E04AE755E40E94DD
:102C90001702DC01CB018E8B9F8BA88FB98F6E89B9
:102CA0007F89888D998D20E030E040E85FE30E94C5
:102CB0001D0488232CF481E090E09D8B8C8B3FC019
:102CC0006E897F89888D998D20E03FEF4FE757E42B
:102CD0000E94BD0318164CF56A8D7B8D8C8D9D8DE1
:102CE00020E030E040E251E40E941702DC01CB0119
:102CF000BC01CD010E944100DC01CB019D8B8C8B7E
:102D00000FC080E991E09B8B8A8B8A899B89019710
:102D1000F1F79B8B8A8B8C899D8901979D8B8C8B7E
:102D20008C899D89009769F724C06E897F89888D79
:102D3000998D0E944100DC01CB019D8B8C8B8C898D
:102D40009D89998B888B888999890197F1F7998B4F
:102D5000888B0FC06F8D78A189A19AA10E94410034
:102D6000DC01CB018E8F8E8D8F878F858A95F1F751
:102D70008F8781E00E947D0F80E090E0A0E0B0E4CA
:102D80008B879C87AD87BE876B857C858D859E856F
:102D900020E030E04AE755E40E941702DC01CB0155
:102DA0008F839887A987BA876F81788589859A8567
:102DB00020E030E040E85FE30E941D0488232CF40B
:102DC00081E090E09E838D833FC06F817885898507
:102DD0009A8520E03FEF4FE757E40E94BD031816A5
:102DE0004CF56B857C858D859E8520E030E040E24A
:102DF00051E40E941702DC01CB01BC01CD010E940D
:102E00004100DC01CB019E838D830FC080E991E0FE
:102E10009C838B838B819C810197F1F79C838B83AF
:102E20008D819E8101979E838D838D819E810097E8
:102E300069F714C06F81788589859A850E94410061
:102E4000DC01CB019E838D838D819E819A83898352
:102E500089819A810197F1F79A83898386E00E949C
:102E60007D0F81E0C45BDF4F0FB6F894DEBF0FBE6D
:102E7000CDBFCF91DF911F910F910895DF93CF9335
:102E8000CDB7DEB72E970FB6F894DEBF0FBECDBF1D
:102E900081E00E947D0F80E090E0A0E0B0E48B87AD
:102EA0009C87AD87BE876B857C858D859E8520E060
:102EB00030E04AE755E40E941702DC01CB018F8322
:102EC0009887A987BA876F81788589859A8520E058
:102ED00030E040E85FE30E941D0488232CF481E089
:102EE00090E09E838D833FC06F81788589859A8528
:102EF00020E03FEF4FE757E40E94BD0318164CF562
:102F00006B857C858D859E8520E030E040E251E434
:102F10000E941702DC01CB01BC01CD010E944100DF
:102F2000DC01CB019E838D830FC080E991E09C83FF
:102F30008B838B819C810197F1F79C838B838D819F
:102F40009E8101979E838D838D819E81009769F775
:102F500014C06F81788589859A850E944100DC01C3
:102F6000CB019E838D838D819E819A838983898104
:102F70009A810197F1F79A83898381E02E960FB6A3
:102F8000F894DEBF0FBECDBFCF91DF910895DF93E0
:102F9000CF9300D000D00F92CDB7DEB78A837C8369
:102FA0006B838B819C81009749F18A81883030F551
:102FB0008A81882F90E00896880F991F880F991FA3
:102FC000880F991F0E947D0F19820EC08981282FBA
:102FD00030E08B819C81FC01E20FF31F80810E9415
:102FE0007D1189818F5F89838981883078F380E0C2
:102FF00060E00E941D1481E08D8302C081E08D831A
:103000008D810F900F900F900F900F90CF91DF91C7
:103010000895DF93CF930F92CDB7DEB7198233C0F7
:103020008981882F90E0FC01E85BFE4F908181E070
:10303000692F41E00E946C1A8981882F90E0FC0181
:10304000E85BFE4F908181E0692F41E00E94961B72
:103050008981882F90E0FC01E45BFE4F908183E042
:10306000692F40E00E946C1A8981882F90E0FC0152
:10307000E45BFE4F908183E0692F41E00E94961B44
:1030800089818F5F89838981843050F281E00F903C
:10309000CF91DF910895DF93CF93CDB7DEB76597DA
:1030A0000FB6F894DEBF0FBECDBF9D8B8C8B81E039
:1030B0008A8B1B8A1F868C899D89009709F4F0C032
:1030C000EC89FD898FEF8083198AE5C08989882F73
:1030D00090E0FC01E85BFE4F908181E0692F40E0C9
:1030E0000E94961B188AC1C08889882F90E0FC0135
:1030F000E45BFE4F90819E012D5E3F4F83E0692F80
:10310000A9010E94C01C8B89882309F0ABC080E014
:1031100090E0A0EAB1E48B879C87AD87BE876B8582
:103120007C858D859E8520E030E04AE755E40E944D
:103130001702DC01CB018F839887A987BA876F813B
:10314000788589859A8520E030E040E85FE30E9439
:103150001D0488232CF481E090E09E838D833FC082
:103160006F81788589859A8520E03FEF4FE757E4A6
:103170000E94BD0318164CF56B857C858D859E8558
:1031800020E030E040E251E40E941702DC01CB0174
:10319000BC01CD010E944100DC01CB019E838D83E7
:1031A0000FC080E991E09C838B838B819C81019788
:1031B000F1F79C838B838D819E8101979E838D8304
:1031C0008D819E81009769F714C06F81788589850C
:1031D0009A850E944100DC01CB019E838D838D8105
:1031E0009E819A83898389819A810197F1F79A83D5
:1031F00089838889882F90E0FC01E45BFE4F9081F1
:103200009E012D5E3F4F83E0692FA9010E94C01CE3
:103210000FC08889882F90E0FC01E45BFE4F90810D
:103220009E012D5E3F4F83E0692FA9010E94C01CC3
:103230008B89882371F38989482F50E08889282F4A
:1032400030E0CA01880F991F880F991F820F931FC2
:10325000FC01E85CFE4F8081EC89FD89808381E080
:103260008F8707C088898F5F888B8889843008F4AE
:103270003BCF8989882F90E0FC01E85BFE4F90816D
:1032800081E0692F41E00E94961B8F85882349F4D5
:1032900089898F5F898B8989843008F417CF01C0B1
:1032A0001A8A8A8965960FB6F894DEBF0FBECDBF25
:1032B000CF91DF910895DF93CF9300D00F92CDB7D8
:1032C000DEB78A836B8381E089838A81813019F03C
:1032D0008A81882359F58B81813019F08B8188236D
:1032E00029F58A81813079F482E064E041E00E942E
:1032F0006C1A82E060E041E00E946C1A82E061E0BA
:1033000041E00E946C1A8B81813089F482E065E093
:1033100041E00E946C1A82E062E041E00E946C1A77
:1033200082E063E041E00E946C1A01C01982898149
:103330000F900F900F90CF91DF910895DF93CF936F
:10334000CDB7DEB729970FB6F894DEBF0FBECDBF5D
:103350008A836B8381E089838A81282F30E03987D3
:10336000288788859985009731F02885398521300F
:10337000310589F160C08B81282F30E03F832E8397
:103380008E819F810097A9F02E813F8121303105E8
:1033900001F582E064E041E00E94961B82E060E07B
:1033A00041E00E94961B82E061E040E00E94961B93
:1033B00043C082E064E041E00E94961B82E060E04E
:1033C00040E00E94961B82E061E041E00E94961B73
:1033D00033C0198231C08B81282F30E03D832C838C
:1033E0008C819D810097A9F02C813D812130310590
:1033F00001F582E065E041E00E94961B82E062E018
:1034000041E00E94961B82E063E040E00E94961B30
:1034100013C082E065E041E00E94961B82E062E01A
:1034200040E00E94961B82E063E041E00E94961B10
:1034300003C0198201C01982898129960FB6F894B8
:10344000DEBF0FBECDBFCF91DF910895DF93CF9345
:1034500000D0CDB7DEB78A8381E089838A81882353
:1034600031F482E064E040E00E94961B0AC08A8149
:10347000813031F482E065E040E00E94961B01C09B
:10348000198289810F900F90CF91DF910895DF937A
:10349000CF93CDB7DEB7EAE3F0E08FE78083E7E3D1
:1034A000F0E08DEF8083E4E3F0E083E18083E1E30B
:1034B000F0E01082EBE3F0E01082E8E3F0E084EF6C
:1034C0008083E5E3F0E01082E2E3F0E08CE38083C8
:1034D00081E0CF91DF910895DF93CF93CDB7DEB731
:1034E0002E970FB6F894DEBF0FBECDBF8A836B83D5
:1034F0004C8381E089838A81843008F00CC18B8100
:10350000883008F008C18C81813021F08C818823BB
:1035100009F001C18A81282F30E03E872D878D85F3
:103520009E858130910509F44FC02D853E8522305E
:1035300031052CF48D859E85009771F0EDC02D85A9
:103540003E852230310509F477C08D859E85833014
:10355000910509F4A9C0E0C08C81282F30E03C8798
:103560002B878B859C850097D1F02B853C8521305E
:10357000310509F0D1C0AAE3B0E0EAE3F0E08081D0
:10358000482F8B81282F30E081E090E0022E02C08E
:10359000880F991F0A94E2F7842B8C93BDC0AAE38D
:1035A000B0E0EAE3F0E08081482F8B81282F30E003
:1035B00081E090E0022E02C0880F991F0A94E2F782
:1035C000809584238C93A8C08C81282F30E03A8783
:1035D000298789859A850097D1F029853A852130F8
:1035E000310509F099C0A7E3B0E0E7E3F0E080819E
:1035F000482F8B81282F30E081E090E0022E02C01E
:10360000880F991F0A94E2F7842B8C9385C0A7E357
:10361000B0E0E7E3F0E08081482F8B81282F30E095
:1036200081E090E0022E02C0880F991F0A94E2F711
:10363000809584238C9370C08C81282F30E038874C
:103640002F838F8198850097D1F02F813885213085
:10365000310509F061C0A4E3B0E0E4E3F0E080816B
:10366000482F8B81282F30E081E090E0022E02C0AD
:10367000880F991F0A94E2F7842B8C934DC0A4E322
:10368000B0E0E4E3F0E08081482F8B81282F30E028
:1036900081E090E0022E02C0880F991F0A94E2F7A1
:1036A000809584238C9338C08C81282F30E03E8312
:1036B0002D838D819E810097C9F02D813E8121301F
:1036C000310551F5A1E3B0E0E1E3F0E08081482F5E
:1036D0008B81282F30E081E090E0022E02C0880F1D
:1036E000991F0A94E2F7842B8C9316C0A1E3B0E0F3
:1036F000E1E3F0E08081482F8B81282F30E081E0EA
:1037000090E0022E02C0880F991F0A94E2F780957C
:1037100084238C9301C0198289812E960FB6F89468
:10372000DEBF0FBECDBFCF91DF910895DF93CF9362
:10373000CDB7DEB72E970FB6F894DEBF0FBECDBF64
:103740008A836B834C8381E089838A81843008F08B
:103750000CC18B81883008F008C18C81813021F048
:103760008C81882309F001C18A81282F30E03E87AF
:103770002D878D859E858130910509F44FC02D855B
:103780003E85223031052CF48D859E85009771F0A1
:10379000EDC02D853E852230310509F477C08D8539
:1037A0009E858330910509F4A9C0E0C08C81282F43
:1037B00030E03C872B878B859C850097D1F02B854B
:1037C0003C852130310509F0D1C0ABE3B0E0EBE33B
:1037D000F0E08081482F8B81282F30E081E090E05D
:1037E000022E02C0880F991F0A94E2F7842B8C9353
:1037F000BDC0ABE3B0E0EBE3F0E08081482F8B810C
:10380000282F30E081E090E0022E02C0880F991F3F
:103810000A94E2F7809584238C93A8C08C81282F8A
:1038200030E03A87298789859A850097D1F02985E4
:103830003A852130310509F099C0A8E3B0E0E8E30A
:10384000F0E08081482F8B81282F30E081E090E0EC
:10385000022E02C0880F991F0A94E2F7842B8C93E2
:1038600085C0A8E3B0E0E8E3F0E08081482F8B81D9
:10387000282F30E081E090E0022E02C0880F991FCF
:103880000A94E2F7809584238C9370C08C81282F52
:1038900030E038872F838F8198850097D1F02F8172
:1038A00038852130310509F061C0A5E3B0E0E5E3DA
:1038B000F0E08081482F8B81282F30E081E090E07C
:1038C000022E02C0880F991F0A94E2F7842B8C9372
:1038D0004DC0A5E3B0E0E5E3F0E08081482F8B81A7
:1038E000282F30E081E090E0022E02C0880F991F5F
:1038F0000A94E2F7809584238C9338C08C81282F1A
:1039000030E03E832D838D819E810097C9F02D810B
:103910003E812130310551F5A2E3B0E0E2E3F0E071
:103920008081482F8B81282F30E081E090E0022EAB
:1039300002C0880F991F0A94E2F7842B8C9316C05B
:10394000A2E3B0E0E2E3F0E08081482F8B81282FF2
:1039500030E081E090E0022E02C0880F991F0A94A7
:10396000E2F7809584238C9301C0198289812E9679
:103970000FB6F894DEBF0FBECDBFCF91DF91089593
:10398000DF93CF93CDB7DEB728970FB6F894DEBF9D
:103990000FBECDBF8B836C835E834D8381E08A83B2
:1039A0008B81843008F09FC08C81883008F09BC0E8
:1039B0008D819E81009709F496C08B81282F30E07D
:1039C00038872F834F81588541305105A9F18F8168
:1039D00098858230910534F42F8138852115310581
:1039E00071F082C04F8158854230510509F441C0C1
:1039F0008F8198858330910509F458C075C0E9E33B
:103A0000F0E08081282F30E08C81882F90E0A901A0
:103A100002C0559547958A95E2F7CA01817089835E
:103A20008981882321F4ED81FE8110825DC0ED81C2
:103A3000FE8181E0808358C0E6E3F0E08081282F9A
:103A400030E08C81882F90E0A90102C05595479500
:103A50008A95E2F7CA01817089838981882321F4DC
:103A6000ED81FE81108240C0ED81FE8181E0808386
:103A70003BC0E3E3F0E08081282F30E08C81882F89
:103A800090E0A90102C0559547958A95E2F7CA01D1
:103A9000817089838981882321F4ED81FE811082E0
:103AA00023C0ED81FE8181E080831EC0E0E3F0E071
:103AB0008081282F30E08C81882F90E0A90102C0FE
:103AC000559547958A95E2F7CA0181708983898166
:103AD000882321F4ED81FE81108206C0ED81FE81F4
:103AE00081E0808301C01A828A8128960FB6F894FB
:103AF000DEBF0FBECDBFCF91DF910895DF93CF938F
:103B0000CDB7DEB72D970FB6F894DEBF0FBECDBF91
:103B10008A836B8381E089838A81843008F084C042
:103B20008B81813021F08B81882309F07DC08A81CF
:103B3000282F30E03D872C878C859D85813091052D
:103B400071F12C853D85223031052CF48C859D85C5
:103B5000009769F06AC02C853D8522303105B1F1AE
:103B60008C859D858330910509F447C05EC08B81AB
:103B7000282F30E03B872A878A859B85009759F05C
:103B80002A853B852130310509F04FC0EAE3F0E09A
:103B90008FEF80834AC0EAE3F0E0108246C08B8159
:103BA000282F30E03987288788859985009751F03C
:103BB0002885398521303105C1F5E7E3F0E08FEF45
:103BC000808333C0E7E3F0E010822FC08B81282F81
:103BD00030E03F832E838E819F81009751F02E81AC
:103BE0003F812130310509F5E4E3F0E08FEF808378
:103BF0001CC0E4E3F0E0108218C08B81282F30E075
:103C00003D832C838C819D81009751F02C813D81D7
:103C10002130310551F4E1E3F0E08FEF808305C0FE
:103C2000E1E3F0E0108201C0198289812D960FB680
:103C3000F894DEBF0FBECDBFCF91DF910895DF9323
:103C4000CF9300D000D00F92CDB7DEB78A836B83BD
:103C500081E089838A81843098F58A81282F30E039
:103C60003D832C838C819D8181309105D1F02C8105
:103C70003D81223031052CF48C819D81009761F0CB
:103C800020C02C813D812230310581F08C819D81C5
:103C90008330910581F015C0EBE3F0E08B818083E8
:103CA00010C0E8E3F0E08B8180830BC0E5E3F0E037
:103CB0008B81808306C0E2E3F0E08B81808301C0CA
:103CC000198289810F900F900F900F900F90CF91D4
:103CD000DF910895DF93CF9300D000D000D0CDB70F
:103CE000DEB78A837C836B8381E089838A81843019
:103CF00008F03FC08B819C810097D9F18A81282FE1
:103D000030E03E832D838D819E8181309105E1F0ED
:103D10002D813E81223031052CF48D819E810097CA
:103D200061F028C02D813E8122303105A1F08D81C6
:103D30009E8183309105B1F01DC0E9E3F0E0808100
:103D4000EB81FC81808316C0E6E3F0E08081EB81AB
:103D5000FC8180830FC0E3E3F0E08081EB81FC8194
:103D6000808308C0E0E3F0E08081EB81FC81808308
:103D700001C01982898126960FB6F894DEBF0FBE66
:103D8000CDBFCF91DF910895AA1BBB1B51E107C0A6
:103D9000AA1FBB1FA617B70710F0A61BB70B881FDB
:103DA000991F5A95A9F780959095BC01CD0108956A
:103DB000A1E21A2EAA1BBB1BFD010DC0AA1FBB1F2F
:103DC000EE1FFF1FA217B307E407F50720F0A21BA1
:103DD000B30BE40BF50B661F771F881F991F1A940E
:103DE00069F760957095809590959B01AC01BD0138
:103DF000CF0108952F923F924F925F926F927F92E0
:103E00008F929F92AF92BF92CF92DF92EF92FF92EA
:103E10000F931F93CF93DF93CDB7DEB7CA1BDB0B96
:103E20000FB6F894DEBF0FBECDBF09942A8839883B
:103E300048885F846E847D848C849B84AA84B98442
:103E4000C884DF80EE80FD800C811B81AA81B9814E
:103E5000CE0FD11D0FB6F894DEBF0FBECDBFED0162
:063E60000895F894FFCF65
:103E6600312D44434D6F746F7220332D457869743C
:103E760000322D53746570706572204D6F746F72C9
:103E860000312D526F746174652043572000322D26
:103E9600526F74617465204343570048656C6C6FBC
:103EA6002C2055736572203A2900456E7465722080
:103EB60050617373776F72643A0057726F6E672042
:103EC60050617373776F7264005472792041676131
:103ED600696E210057656C636F6D65203A29004352
:103EE600686F6F7365204F7074696F6E202E2E0099
:103EF600456E74657220416E676C653A0045786957
:103F060074696E67202E2E200053746F7070696E70
:103F160067204D6F746F7273003531313230000097
:103F2600000000000000003F065B4F666D7D077FC6
:103F36006F010203040506073738392F3435362A50
:103F46003132332D43303D2B0405060702030405A9
:00000001FF
