:100000000C942A000C9447000C9447000C94470071
:100010000C9447000C9447000C9447000C94A91DC5
:100020000C94DC1D0C940F1E0C94421E0C94751E37
:100030000C9447000C9447000C9447000C94470024
:100040000C948B240C9447000C9447000C944700AC
:100050000C94470011241FBECFE5D8E0DEBFCDBF12
:1000600011E0A0E6B0E0E4EBFAE402C005900D92E6
:10007000A232B107D9F711E0A2E2B1E001C01D92AE
:10008000AE33B107E1F70E944F060C9458250C944B
:100090000000EF92FF920F931F937B018C0120E0F1
:1000A00030E040E05FE40E94F50388238CF0C80153
:1000B000B70120E030E040E05FE40E94C1010E940F
:1000C00055049B01AC01205030404040504806C0D0
:1000D000C801B7010E9455049B01AC01B901CA01D6
:1000E0001F910F91FF90EF900895A0E0B0E0EBE733
:1000F000F0E00C942125DC012B01FA019C91923057
:1001000008F439C1EB018881823008F433C194309E
:1001100069F4843009F02FC111969C91119789815F
:10012000981709F428C1A9EEB0E025C1843009F47C
:1001300021C18230A9F4923009F01DC19A01AD01AC
:1001400088E0EA010990AE01E90109929E0181501F
:10015000C1F7E201898111969C918923818308C1AD
:10016000923009F407C112962D903C901397EB0141
:100170008A819B811496AD90BD90CD90DC901797AD
:10018000EC80FD800E811F819101281B390BB90184
:1001900037FF04C066277727621B730B6032710537
:1001A0000CF061C0121613066CF537014801062EDB
:1001B00004C096948794779467940A94D2F721E0C8
:1001C00030E040E050E004C0220F331F441F551FB1
:1001D0006A95D2F721503040404050402E213F21B7
:1001E00040235123211531054105510521F021E01E
:1001F00030E040E050E079018A01E628F72808293C
:1002000019293CC0232BD1F1260E371E350146019A
:10021000062E04C096948794779467940A94D2F734
:1002200021E030E040E050E004C0220F331F441FC3
:10023000551F6A95D2F721503040404050402A2146
:100240003B214C215D21211531054105510521F04E
:1002500021E030E040E050E059016A01A628B728CB
:10026000C828D9280BC0821593052CF01C01AA249C
:10027000BB24650103C0EE24FF24870111969C91E5
:10028000D20111968C91981709F445C0992339F041
:10029000A80197012A193B094C095D0906C0A6016E
:1002A00095012E193F09400B510B57FD08C01182D3
:1002B0003382228224833583468357831DC081E0A5
:1002C00081833382228288279927DC01821B930B4A
:1002D000A40BB50B84839583A683B7830DC0220F2F
:1002E000331F441F551F24833583468357838281E0
:1002F000938101979383828324813581468157813D
:10030000DA01C9010197A109B1098F5F9F4FAF4F72
:10031000BF4328F30BC0918333822282EA0CFB1C7B
:100320000C1D1D1DE482F5820683178383E0808304
:10033000248135814681578157FF1AC0C901AA27F8
:1003400097FDA095BA2F81709070A070B0705695EF
:10035000479537952795822B932BA42BB52B848318
:100360009583A683B7838281938101969383828349
:10037000DF0101C0D201CD01CDB7DEB7E2E10C94BF
:100380003D25A0E2B0E0E7ECF1E00C942D25698377
:100390007A838B839C832D833E834F835887E9E048
:1003A000EE2EF12CEC0EFD1ECE010196B7010E943F
:1003B0007E058E010F5E1F4FCE010596B8010E948B
:1003C0007E058A8991E089278A8BC701B801AE0131
:1003D000475E5F4F0E9475000E94A904A096E6E068
:1003E0000C944925A0E2B0E0E8EFF1E00C942D2553
:1003F00069837A838B839C832D833E834F835887C5
:10040000F9E0EF2EF12CEC0EFD1ECE010196B701A6
:100410000E947E058E010F5E1F4FCE010596B8012A
:100420000E947E05C701B801AE01475E5F4F0E9482
:1004300075000E94A904A096E6E00C944925A0E26C
:10044000B0E0E5E2F2E00C94212569837A838B83A6
:100450009C832D833E834F835887CE010196BE0136
:10046000675F7F4F0E947E05CE010596BE016F5EDD
:100470007F4F0E947E059985923088F0898982306D
:10048000C8F0943019F4823051F404C0843029F457
:10049000923081F489EE90E0C6C0923049F420E0B9
:1004A0009A858A89981321E02A87CE010996BBC0D4
:1004B000823049F420E09A858A89981321E02A8BBA
:1004C000CE014196B0C02D843E844F8458886D88FB
:1004D0007E888F88988CEE24FF248701AA24BB2471
:1004E000650140E050E060E070E0E0E0F0E0C10174
:1004F00081709070892BE9F0E60CF71C081D191D1E
:100500009A01AB012A0D3B1D4C1D5D1D80E090E062
:10051000A0E0B0E0E614F7040805190520F481E036
:1005200090E0A0E0B0E0BA01A901480F591F6A1F8E
:100530007B1FAA0CBB1CCC1CDD1C97FE08C081E0F5
:1005400090E0A0E0B0E0A82AB92ACA2ADB2A3196B6
:10055000E032F10549F0660C771C881C991C569412
:10056000479437942794C3CFFA85EA892B893C892D
:100570008B859C85280F391F2E5F3F4F17C0CA01FE
:1005800081709070892B61F016950795F794E79428
:1005900080E090E0A0E0B0E8E82AF92A0A2B1B2BC3
:1005A00076956795579547952F5F3F4F77FDE7CF36
:1005B0000CC0440F551F661F771F17FD4160EE0CDE
:1005C000FF1C001F111F21503040403090E05907A0
:1005D00090E0690790E4790760F32B8F3C8FDB0193
:1005E000CA018F779070A070B07080349105A1051A
:1005F000B10561F447FD0AC0E114F10401051105DC
:1006000029F0405C5F4F6F4F7F4F40781A8EFE1786
:1006100011F081E08A8F4D8F5E8F6F8F78A383E01A
:10062000898FCE0149960E94A904A096E2E10C941C
:100630003D25A8E1B0E0EFE1F3E00C9429256983C2
:100640007A838B839C832D833E834F835887B9E0C5
:10065000EB2EF12CEC0EFD1ECE010196B7010E948F
:100660007E058E010F5E1F4FCE010596B8010E94D8
:100670007E052985223008F47EC03989323010F495
:10068000B8017CC08A859A8989278A87243011F02D
:10069000223031F4231709F06EC069EE70E06EC0AD
:1006A000343039F41D861E861F86188A1C861B86E8
:1006B00004C0323021F484E08987B7015FC02B8504
:1006C0003C858B899C89281B390B3C872B87ED84C3
:1006D000FE840F851889AD88BE88CF88D88CEA142F
:1006E000FB040C051D0540F4EE0CFF1C001F111F40
:1006F000215030403C872B8720E030E040E050E044
:1007000080E090E0A0E0B0E460E070E0EA14FB0478
:100710000C051D0540F0282B392B4A2B5B2BEA18C2
:10072000FB080C091D09B695A79597958795EE0CC2
:10073000FF1C001F111F6F5F7F4F6F31710531F775
:10074000DA01C9018F779070A070B0708034910584
:10075000A105B10561F427FD0AC0E114F10401050A
:10076000110529F0205C3F4F4F4F5F4F20782D87B8
:100770003E874F87588BBE01675F7F4FCB010E943A
:10078000A9046896EAE00C944525A8E1B0E0EBECFA
:10079000F3E00C942D2569837A838B839C832D83CE
:1007A0003E834F83588789E0E82EF12CEC0EFD1E26
:1007B000CE010196B7010E947E058E010F5E1F4F8C
:1007C000CE010596B8010E947E058985823040F0F1
:1007D0008989823028F0C701B8010E94F60501C05E
:1007E0008FEF6896E6E00C944925A8E1B0E0EBEFC6
:1007F000F3E00C942D2569837A838B839C832D836E
:100800003E834F83588789E0E82EF12CEC0EFD1EC5
:10081000CE010196B7010E947E058E010F5E1F4F2B
:10082000CE010596B8010E947E058985823040F090
:100830008989823028F0C701B8010E94F60501C0FD
:100840008FEF6896E6E00C944925A8E1B0E0EBE272
:10085000F4E00C942D2569837A838B839C832D830C
:100860003E834F83588789E0E82EF12CEC0EFD1E65
:10087000CE010196B7010E947E058E010F5E1F4FCB
:10088000CE010596B8010E947E058985823040F030
:100890008989823028F0C701B8010E94F60501C09D
:1008A00081E06896E6E00C944925ACE0B0E0EBE529
:1008B000F4E00C94312569837A838B839C83CE0189
:1008C0000196BE016B5F7F4F0E947E058D81823055
:1008D00061F1823050F1843021F48E81882351F10E
:1008E0002EC02F81388537FD20C06E812F31310514
:1008F0001CF06623F9F023C08EE190E0821B930B7D
:1009000029853A854B855C8504C056954795379572
:1009100027958A95D2F76623B1F05095409530958A
:1009200021953F4F4F4F5F4F0EC020E030E040E039
:1009300050E009C02FEF3FEF4FEF5FE704C020E02A
:1009400030E040E050E8B901CA012C96E2E00C9496
:100950004D25DF92EF92FF920F931F93FC01E480ED
:10096000F58006811781D1808081823048F480E053
:1009700090E0A0E1B0E0E82AF92A0A2B1B2BA5C0E1
:10098000843009F49FC0823021F4EE24FF248701D3
:1009900005C0E114F1040105110519F4E0E0F0E0EF
:1009A00096C0628173819FEF623879070CF05BC05B
:1009B00022E83FEF261B370B2A3131052CF020E0CF
:1009C00030E040E050E02AC0B801A701022E04C088
:1009D00076956795579547950A94D2F781E090E010
:1009E000A0E0B0E004C0880F991FAA1FBB1F2A9582
:1009F000D2F70197A109B1098E219F21A023B1232C
:100A00000097A105B10521F081E090E0A0E0B0E001
:100A10009A01AB01282B392B4A2B5B2BDA01C90138
:100A20008F779070A070B07080349105A105B105EA
:100A300039F427FF09C0205C3F4F4F4F5F4F04C080
:100A4000215C3F4F4F4F5F4FE0E0F0E02030A0E0EF
:100A50003A07A0E04A07A0E45A0710F0E1E0F0E00E
:100A600079018A0127C06038710564F5FB01E158FE
:100A7000FF4FD801C7018F779070A070B07080349D
:100A80009105A105B10539F4E7FE0DC080E490E0C1
:100A9000A0E0B0E004C08FE390E0A0E0B0E0E80E9A
:100AA000F91E0A1F1B1F17FF05C016950795F7941F
:100AB000E794319687E016950795F794E7948A9521
:100AC000D1F705C0EE24FF248701EFEFF0E06E2F91
:100AD000679566276795902F9F77D794DD24D794E5
:100AE0008E2F8695492F462B582F5D29B701CA01B5
:100AF0001F910F91FF90EF90DF900895FC01DB01B3
:100B0000408151812281622F6F7770E0221F22275E
:100B1000221F9381892F880F822B282F30E0991F65
:100B20009927991F11969C93119721153105A9F5C5
:100B3000411551056105710511F482E037C082E865
:100B40009FEF13969C938E9312979A01AB0167E0E7
:100B5000220F331F441F551F6A95D1F783E08C93F2
:100B60000DC0220F331F441F551F12968D919C916B
:100B70001397019713969C938E931297203080E0E1
:100B8000380780E0480780E4580758F314962D93FF
:100B90003D934D935C93179708952F3F310579F45A
:100BA000411551056105710519F484E08C93089590
:100BB00064FF03C081E08C9312C01C9210C02F57B9
:100BC000304013963C932E93129783E08C9387E0EA
:100BD000440F551F661F771F8A95D1F770641496CE
:100BE0004D935D936D937C93179708951F93DC014C
:100BF000FB019C91923008F447C08081823008F458
:100C000043C0943051F411961C91843099F5818140
:100C1000682F70E0611B71093FC0843021F0923071
:100C200031F48230B9F18181882389F12DC0119688
:100C30001C9111978230F1F081811817D9F4129626
:100C40002D913C911397828193818217930794F0A1
:100C500028173907BCF014968D919D910D90BC9189
:100C6000A02D2481358146815781281739074A07ED
:100C70005B0718F4112341F00AC082179307A407F9
:100C8000B50740F4112319F061E070E005C06FEF83
:100C90007FEF02C060E070E0CB011F910895DF9309
:100CA000CF93CDB7DEB70E948C230E94C6170E9457
:100CB000C10E0E94001480E690E00E9423130E945F
:100CC000A208FDCFDF93CF93CDB7DEB72E970FB637
:100CD000F894DEBF0FBECDBF109223011092220107
:100CE0000E94ED1686E690E00E94231380E090E0DB
:100CF000AAE7B4E48B879C87AD87BE876B857C852C
:100D00008D859E8520E030E04AE755E40E941F0271
:100D1000DC01CB018F839887A987BA876F8178859B
:100D200089859A8520E030E040E85FE30E94250451
:100D300088232CF481E090E09E838D833FC06F81F7
:100D4000788589859A8520E03FEF4FE757E40E9438
:100D5000C50318164CF56B857C858D859E8520E036
:100D600030E040E251E40E941F02DC01CB01BC01F3
:100D7000CD010E944900DC01CB019E838D830FC011
:100D800080E991E09C838B838B819C810197F1F7B3
:100D90009C838B838D819E8101979E838D838D8122
:100DA0009E81009769F714C06F81788589859A853F
:100DB0000E944900DC01CB019E838D838D819E8141
:100DC0009A83898389819A810197F1F79A8389832C
:100DD0000E94ED1686E790E00E94231381E060E018
:100DE0000E94CD132E960FB6F894DEBF0FBECDBF76
:100DF000CF91DF910895DF93CF93CDB7DEB76E9794
:100E00000FB6F894DEBF0FBECDBF0E94ED1686E789
:100E100090E00E94231381E060E00E94CD131E8EBB
:100E2000CE014E960E9408188E8D8F3FA9F08E8DB0
:100E30008D3391F08AE20E94231180912301882F43
:100E400090E02E8DFC01E75CFE4F20838091230112
:100E50008F5F80932301E3CF8E8D8D3301F78091D7
:100E600023018530E9F41D8E17C08D8D882F90E009
:100E7000FC01EF50FF4F20818D8D882F90E0FC0109
:100E8000E75CFE4F8081281721F081E080932201EA
:100E900009C08D8D8F5F8D8F8D8D853030F302C0B1
:100EA0000E94620680912201882319F00E94620646
:100EB000B6CF80912201882309F0B1CF8091230120
:100EC000853009F0ACCF0E94ED1680912501813369
:100ED00009F086C086E890E00E94231381E060E07C
:100EE0000E94CD1387E990E00E94231380E090E0F8
:100EF000AAE7B4E4898F9A8FAB8FBC8F698D7A8D06
:100F00008B8D9C8D20E030E04AE755E40E941F0263
:100F1000DC01CB018D8B9E8BAF8BB88F6D897E8969
:100F20008F89988D20E030E040E85FE30E9425043F
:100F300088232CF481E090E09C8B8B8B3FC06D89E3
:100F40007E898F89988D20E03FEF4FE757E40E941C
:100F5000C50318164CF5698D7A8D8B8D9C8D20E01C
:100F600030E040E251E40E941F02DC01CB01BC01F1
:100F7000CD010E944900DC01CB019C8B8B8B0FC003
:100F800080E991E09A8B898B89899A890197F1F799
:100F90009A8B898B8B899C8901979C8B8B8B8B89F6
:100FA0009C89009769F714C06D897E898F89988D17
:100FB0000E944900DC01CB019C8B8B8B8B899C8927
:100FC000988B8F878F8598890197F1F7988B8F87FA
:100FD00081E080932401109225011092230185C0A5
:100FE00080912501823309F01ACF80E060E00E94F1
:100FF000CD1383EA90E00E94231380E090E0AAE7FB
:10100000B4E48B879C87AD87BE876B857C858D8597
:101010009E8520E030E04AE755E40E941F02DC0193
:10102000CB018F839887A987BA876F817885898557
:101030009A8520E030E040E85FE30E9425048823A1
:101040002CF481E090E09E838D833FC06F81788592
:1010500089859A8520E03FEF4FE757E40E94C5035A
:1010600018164CF56B857C858D859E8520E030E0DB
:1010700040E251E40E941F02DC01CB01BC01CD0122
:101080000E944900DC01CB019E838D830FC080E963
:1010900091E09C838B838B819C810197F1F79C83EA
:1010A0008B838D819E8101979E838D838D819E810F
:1010B000009769F714C06F81788589859A850E94A9
:1010C0004900DC01CB019E838D838D819E819A83B3
:1010D000898389819A810197F1F79A838983109294
:1010E000250110922401109223016E960FB6F894F8
:1010F000DEBF0FBECDBFCF91DF910895DF93CF93B9
:10110000CDB7DEB70E94ED1681EB90E00E9423136D
:1011100081E060E00E94CD138DEB90E00E942313EC
:1011200004C085E291E00E94081880912501813376
:1011300021F0809125018233A1F70E94FB06CF9117
:10114000DF910895DF93CF93CDB7DEB7E8970FB661
:10115000F894DEBF0FBECDBF85E291E00E94081873
:1011600017C280912401882309F010C226E231E0E1
:1011700080E0B9010E94BE2328E231E087E0B90196
:101180000E94BE23809126019091270121E08C329C
:10119000920708F0F7C08AE50E94D80E0E94ED166B
:1011A0008BEC90E00E94231380E090E8ABEBB4E47A
:1011B0008DAB9EABAFABB8AF6DA97EA98FA998AD33
:1011C00020E030E04AE755E40E941F02DC01CB0139
:1011D00089AB9AABABABBCAB69A97AA98BA99CA92B
:1011E00020E030E040E85FE30E94250488232CF4EF
:1011F00081E090E098AB8FA73FC069A97AA98BA93D
:101200009CA920E03FEF4FE757E40E94C503181662
:101210004CF56DA97EA98FA998AD20E030E040E2A1
:1012200051E40E941F02DC01CB01BC01CD010E94F0
:101230004900DC01CB0198AB8FA70FC080E991E09A
:101240009EA78DA78DA59EA50197F1F79EA78DA7B7
:101250008FA598A9019798AB8FA78FA598A90097FC
:1012600069F714C069A97AA98BA99CA90E944900B1
:10127000DC01CB0198AB8FA78FA598A99CA78BA762
:101280008BA59CA50197F1F79CA78BA780E00E94F6
:10129000D80E0E94ED168AED90E00E94231380E0A4
:1012A00090E0AAE7B4E48FA398A7A9A7BAA76FA173
:1012B00078A589A59AA520E030E04AE755E40E9488
:1012C0001F02DC01CB018BA39CA3ADA3BEA36BA12A
:1012D0007CA18DA19EA120E030E040E85FE30E9468
:1012E000250488232CF481E090E09AA389A33FC0D1
:1012F0006BA17CA18DA19EA120E03FEF4FE757E4B9
:101300000E94C50318164CF56FA178A589A59AA56A
:1013100020E030E040E251E40E941F02DC01CB01FA
:10132000BC01CD010E944900DC01CB019AA389A335
:101330000FC080E991E098A38F8F8F8D98A10197BE
:10134000F1F798A38F8F89A19AA101979AA389A3F6
:1013500089A19AA1009769F714C16BA17CA18DA105
:101360009EA10E944900DC01CB019AA389A389A117
:101370009AA19E8F8D8F8D8D9E8D0197F1F79E8FF7
:101380008D8FFFC0809128019091290121E08C323E
:10139000920708F0F6C08AE50E94D80E0E94ED166A
:1013A0008BEC90E00E94231380E090E8ABEBB4E478
:1013B000898F9A8FAB8FBC8F698D7A8D8B8D9C8D29
:1013C00020E030E04AE755E40E941F02DC01CB0137
:1013D0008D8B9E8BAF8BB88F6D897E898F89988D11
:1013E00020E030E040E85FE30E94250488232CF4ED
:1013F00081E090E09C8B8B8B3FC06D897E898F89CB
:10140000988D20E03FEF4FE757E40E94C503181680
:101410004CF5698D7A8D8B8D9C8D20E030E040E21B
:1014200051E40E941F02DC01CB01BC01CD010E94EE
:101430004900DC01CB019C8B8B8B0FC080E991E0D4
:101440009A8B898B89899A890197F1F79A8B898B75
:101450008B899C8901979C8B8B8B8B899C890097AE
:1014600069F714C06D897E898F89988D0E94490023
:10147000DC01CB019C8B8B8B8B899C89988B8F8714
:101480008F8598890197F1F7988B8F8780E00E946C
:10149000D80E0E94ED168AED90E00E94231380E0A2
:1014A00090E0AAE7B4E48B879C87AD87BE876B8505
:1014B0007C858D859E8520E030E04AE755E40E94DA
:1014C0001F02DC01CB018F839887A987BA876F81C0
:1014D000788589859A8520E030E040E85FE30E94C6
:1014E000250488232CF481E090E09E838D833FC007
:1014F0006F81788589859A8520E03FEF4FE757E433
:101500000E94C50318164CF56B857C858D859E85DC
:1015100020E030E040E251E40E941F02DC01CB01F8
:10152000BC01CD010E944900DC01CB019E838D836B
:101530000FC080E991E09C838B838B819C81019714
:10154000F1F79C838B838D819E8101979E838D8390
:101550008D819E81009769F714C06F817885898598
:101560009A850E944900DC01CB019E838D838D8189
:101570009E819A83898389819A810197F1F79A8361
:10158000898385E291E00E94081802C00E947E08CB
:10159000809125018F3F09F4E4CD809125018334AA
:1015A00011F40E947E08E8960FB6F894DEBF0FBED5
:1015B000CDBFCF91DF910895DF93CF9300D000D0BE
:1015C000CDB7DEB79B838A83198253C08981282FC8
:1015D00030E0C901880F991F280F391F8A819B812C
:1015E000FC01E20FF31F40818981282F30E0C901FF
:1015F000880F991F280F391F8A819B81FC01E20FF8
:10160000F31F9181842F692F40E00E94CD1E8981B4
:10161000282F30E0C901880F991F280F391F8A81B0
:101620009B81FC01E20FF31F50818981282F30E05C
:10163000C901880F991F280F391F8A819B81FC01DE
:10164000E20FF31F41818981282F30E0C901880F03
:10165000991F280F391F8A819B81FC01E20FF31F1C
:101660009281852F642F492F0E94F71F89818F5FF8
:1016700089838981823008F4A9CF0F900F900F9051
:101680000F90CF91DF910895DF93CF93CDB7DEB761
:1016900063970FB6F894DEBF0FBECDBF988B8F87D0
:1016A0007A8B698BE989FA898081E989FA89918144
:1016B0002F853889692FA9010E94212180E090E0BF
:1016C000A8ECB1E48B879C87AD87BE876B857C8552
:1016D0008D859E8520E030E04AE755E40E941F0298
:1016E000DC01CB018F839887A987BA876F817885C2
:1016F00089859A8520E030E040E85FE30E94250478
:1017000088232CF481E090E09E838D833FC06F811D
:10171000788589859A8520E03FEF4FE757E40E945E
:10172000C50318164CF56B857C858D859E8520E05C
:1017300030E040E251E40E941F02DC01CB01BC0119
:10174000CD010E944900DC01CB019E838D830FC037
:1017500080E991E09C838B838B819C810197F1F7D9
:101760009C838B838D819E8101979E838D838D8148
:101770009E81009769F714C06F81788589859A8565
:101780000E944900DC01CB019E838D838D819E8167
:101790009A83898389819A810197F1F79A83898352
:1017A000E989FA898081E989FA8991812F853889C7
:1017B000692FA9010E94212163960FB6F894DEBF1C
:1017C0000FBECDBFCF91DF910895DF93CF93CDB7FB
:1017D000DEB781E060E041E00E94CD1E81E061E083
:1017E00041E00E94CD1E81E062E041E00E94CD1EFA
:1017F00081E063E041E00E94CD1E81E060E040E0D6
:101800000E94F71F81E061E040E00E94F71F81E045
:1018100062E040E00E94F71F81E063E040E00E9448
:10182000F71F81E0CF91DF910895DF93CF93CDB77C
:10183000DEB7A5970FB6F894DEBF0FBECDBF8BA362
:101840007DA36CA381E08AA38BA1813021F08BA1C1
:10185000882309F0A5C18CA19DA121E089369207BA
:1018600008F09EC18FE089A38CA19DA12AE530E0FC
:10187000B9010E94EB24CB0198A38F8F8BA18130FB
:1018800009F0C5C01E8EB9C08E8D882F90E09C01D6
:101890002370307083E090E0022E02C0880F991F01
:1018A0000A94E2F7982F89A1892389A38E8D882F26
:1018B00090E0837090708330910511F489E089A3E2
:1018C00089A1982F917081E063E0492F0E94F71F52
:1018D00089A18695982F917081E062E0492F0E943E
:1018E000F71F89A186958695982F917081E061E018
:1018F000492F0E94F71F89A1869586958695982F76
:10190000917081E060E0492F0E94F71F80E090E035
:10191000AAEFB2E4898F9A8FAB8FBC8F698D7A8DD5
:101920008B8D9C8D20E030E04AE755E40E941F0239
:10193000DC01CB018D8B9E8BAF8BB88F6D897E893F
:101940008F89988D20E030E040E85FE30E94250415
:1019500088232CF481E090E09C8B8B8B3FC06D89B9
:101960007E898F89988D20E03FEF4FE757E40E94F2
:10197000C50318164CF5698D7A8D8B8D9C8D20E0F2
:1019800030E040E251E40E941F02DC01CB01BC01C7
:10199000CD010E944900DC01CB019C8B8B8B0FC0D9
:1019A00080E991E09A8B898B89899A890197F1F76F
:1019B0009A8B898B8B899C8901979C8B8B8B8B89CC
:1019C0009C89009769F714C06D897E898F89988DED
:1019D0000E944900DC01CB019C8B8B8B8B899C89FD
:1019E000988B8F878F8598890197F1F7988B8F87D0
:1019F0008FE089A38E8D8F5F8E8F8E8D282F30E0A4
:101A00008F8D98A12817390708F43ECFCAC08BA143
:101A1000882309F0C6C01D8EB9C08D8D882F90E037
:101A20009C012370307083E090E0022E02C0880F8A
:101A3000991F0A94E2F7982F89A1892389A38D8D94
:101A4000882F90E0837090708330910511F489E0C5
:101A500089A389A1982F917081E060E0492F0E94AD
:101A6000F71F89A18695982F917081E061E0492F39
:101A70000E94F71F89A186958695982F917081E025
:101A800062E0492F0E94F71F89A186958695869569
:101A9000982F917081E063E0492F0E94F71F80E04A
:101AA00090E0AAEFB2E48B879C87AD87BE876B85F9
:101AB0007C858D859E8520E030E04AE755E40E94D4
:101AC0001F02DC01CB018F839887A987BA876F81BA
:101AD000788589859A8520E030E040E85FE30E94C0
:101AE000250488232CF481E090E09E838D833FC001
:101AF0006F81788589859A8520E03FEF4FE757E42D
:101B00000E94C50318164CF56B857C858D859E85D6
:101B100020E030E040E251E40E941F02DC01CB01F2
:101B2000BC01CD010E944900DC01CB019E838D8365
:101B30000FC080E991E09C838B838B819C8101970E
:101B4000F1F79C838B838D819E8101979E838D838A
:101B50008D819E81009769F714C06F817885898592
:101B60009A850E944900DC01CB019E838D838D8183
:101B70009E819A83898389819A810197F1F79A835B
:101B800089838FE089A38D8D8F5F8D8F8D8D282F19
:101B900030E08F8D98A12817390708F43ECF01C097
:101BA0001AA28AA1A5960FB6F894DEBF0FBECDBFCC
:101BB000CF91DF910895DF93CF93CDB7DEB72E9706
:101BC0000FB6F894DEBF0FBECDBF81E060E040E00D
:101BD0000E94F71F81E061E040E00E94F71F81E072
:101BE00062E040E00E94F71F81E063E040E00E9475
:101BF000F71F80E090E0AAEFB2E48B879C87AD8767
:101C0000BE876B857C858D859E8520E030E04AE728
:101C100055E40E941F02DC01CB018F839887A987BE
:101C2000BA876F81788589859A8520E030E040E821
:101C30005FE30E94250488232CF481E090E09E83DA
:101C40008D833FC06F81788589859A8520E03FEF3D
:101C50004FE757E40E94C50318164CF56B857C8549
:101C60008D859E8520E030E040E251E40E941F0215
:101C7000DC01CB01BC01CD010E944900DC01CB019C
:101C80009E838D830FC080E991E09C838B838B8141
:101C90009C810197F1F79C838B838D819E810197B5
:101CA0009E838D838D819E81009769F714C06F811B
:101CB000788589859A850E944900DC01CB019E8345
:101CC0008D838D819E819A83898389819A810197F1
:101CD000F1F79A83898381E02E960FB6F894DEBFE0
:101CE0000FBECDBFCF91DF910895DF93CF9300D08A
:101CF0000F92CDB7DEB78B8382E066E041E00E94B1
:101D0000CD1E80E061E00E94BA2181E08A838B8150
:101D10008A3078F582E066E041E00E94F71F198280
:101D200024C08981882F90E0FC01E95FFE4F40814B
:101D30008B81882F90E0FC01E350FF4F8081282F9A
:101D400030E08981882F90E0B90102C075956795D0
:101D50008A95E2F7CB01982F917080E0642F492F8C
:101D60000E94F71F89818F5F898389818730C8F23C
:101D700001C01A828A810F900F900F90CF91DF914E
:101D80000895DF93CF930F92CDB7DEB783E065E080
:101D900041E00E94CD1E81E064E042E00E941819FB
:101DA0008FE39CE90E94101D0F90CF91DF91089561
:101DB000DF93CF9300D000D0CDB7DEB78C8381E026
:101DC0008B838C81853B58F58C81882F90E0A0E037
:101DD000B0E02EE937E040E050E0BC01CD010E94C8
:101DE000CC24DC01CB0124EB30E040E050E0BC012E
:101DF000CD010E94FF24DA01C901825A9E4FAF4FE4
:101E0000BF4F880F991FAA1FBB1F01979A83898311
:101E100029813A8180E0B9010E94241D01C01B8202
:101E20008B810F900F900F900F90CF91DF910895BD
:101E3000DF93CF93CDB7DEB781E00E945B1D81E0D9
:101E4000CF91DF910895DF93CF93CDB7DEB7E197C0
:101E50000FB6F894DEBF0FBECDBF89AB80E061E066
:101E600040E00E94F71F81E060E040E00E94F71F21
:101E700089A9982F991F9927991F80E066E0492F1B
:101E80000E94F71F89A98295869586958370982F61
:101E9000917080E065E0492F0E94F71F89A9829523
:101EA00086958770982F917080E064E0492F0E949A
:101EB000F71F89A982958F70982F917080E063E059
:101EC000492F0E94F71F80E062E041E00E94F71F67
:101ED00080E090E0A0E8BFE38DA79EA7AFA7B8ABD6
:101EE0006DA57EA58FA598A92BEA3AEA4AEA50E4A7
:101EF0000E941F02DC01CB0189A79AA7ABA7BCA750
:101F000069A57AA58BA59CA520E030E040E85FE3B9
:101F10000E94250488231CF481E088A791C069A54C
:101F20007AA58BA59CA520E030E04FE753E40E9402
:101F3000C50318160CF07BC06DA57EA58FA598A9CA
:101F400020E030E04AE754E40E941903DC01CB01B1
:101F50008CA39DA3AEA3BFA36CA17DA18EA19FA1C5
:101F600020E030E04AE755E40E941F02DC01CB018B
:101F700088A399A3AAA3BBA368A179A18AA19BA1C5
:101F800020E030E040E85FE30E94250488232CF441
:101F900081E090E09F8F8E8F3FC068A179A18AA1D8
:101FA0009BA120E03FEF4FE757E40E94C5031816BE
:101FB0004CF56CA17DA18EA19FA120E030E040E214
:101FC00051E40E941F02DC01CB01BC01CD010E9443
:101FD0004900DC01CB019F8F8E8F0FC080E991E01B
:101FE0009D8F8C8F8C8D9D8D0197F1F79D8F8C8FA0
:101FF0008E8D9F8D01979F8F8E8F8E8D9F8D0097D9
:1020000069F724C068A179A18AA19BA10E94490017
:10201000DC01CB019F8F8E8F8E8D9F8D9B8F8A8F42
:102020008A8D9B8D0197F1F79B8F8A8F0FC069A5D1
:102030007AA58BA59CA50E944900DC01CB0188A74D
:1020400088A5898F898D8A95F1F7898F80E062E074
:1020500040E00E94F71F89A9869586958695982F5E
:10206000917080E066E0492F0E94F71F89A986954C
:102070008695982F917080E065E0492F0E94F71FA8
:1020800089A98695982F917080E064E0492F0E947D
:10209000F71F89A9982F917080E063E0492F0E9473
:1020A000F71F80E062E041E00E94F71F80E090E0CF
:1020B000A0E8BFE38D8B9E8BAF8BB88F6D897E8937
:1020C0008F89988D2BEA3AEA4AEA50E40E941F026F
:1020D000DC01CB01898B9A8BAB8BBC8B69897A89AC
:1020E0008B899C8920E030E040E85FE30E94250472
:1020F00088231CF481E0888B91C069897A898B8957
:102100009C8920E030E04FE753E40E94C503181695
:102110000CF07BC06D897E898F89988D20E030E03E
:102120004AE754E40E941903DC01CB018C879D87A8
:10213000AE87BF876C857D858E859F8520E030E0EA
:102140004AE755E40E941F02DC01CB01888799878A
:10215000AA87BB87688579858A859B8520E030E0E2
:1021600040E85FE30E94250488232CF481E090E09E
:102170009F838E833FC0688579858A859B8520E013
:102180003FEF4FE757E40E94C50318164CF56C85E6
:102190007D858E859F8520E030E040E251E40E94FD
:1021A0001F02DC01CB01BC01CD010E944900DC0112
:1021B000CB019F838E830FC080E991E09D838C8348
:1021C0008C819D810197F1F79D838C838E819F8106
:1021D00001979F838E838E819F81009769F724C02A
:1021E000688579858A859B850E944900DC01CB0141
:1021F0009F838E838E819F819B838A838A819B812B
:102200000197F1F79B838A830FC069897A898B894B
:102210009C890E944900DC01CB01888B88898983D5
:1022200089818A95F1F7898380E062E040E00E942D
:10223000F71F81E0E1960FB6F894DEBF0FBECDBF69
:10224000CF91DF910895DF93CF93CDB7DEB7E197BC
:102250000FB6F894DEBF0FBECDBF89AB80E061E062
:1022600041E00E94F71F81E060E040E00E94F71F1C
:1022700089A9982F991F9927991F80E066E0492F17
:102280000E94F71F89A98295869586958370982F5D
:10229000917080E065E0492F0E94F71F89A982951F
:1022A00086958770982F917080E064E0492F0E9496
:1022B000F71F89A982958F70982F917080E063E055
:1022C000492F0E94F71F80E062E041E00E94F71F63
:1022D00080E090E0A0E8BFE38DA79EA7AFA7B8ABD2
:1022E0006DA57EA58FA598A92BEA3AEA4AEA50E4A3
:1022F0000E941F02DC01CB0189A79AA7ABA7BCA74C
:1023000069A57AA58BA59CA520E030E040E85FE3B5
:102310000E94250488231CF481E088A791C069A548
:102320007AA58BA59CA520E030E04FE753E40E94FE
:10233000C50318160CF07BC06DA57EA58FA598A9C6
:1023400020E030E04AE754E40E941903DC01CB01AD
:102350008CA39DA3AEA3BFA36CA17DA18EA19FA1C1
:1023600020E030E04AE755E40E941F02DC01CB0187
:1023700088A399A3AAA3BBA368A179A18AA19BA1C1
:1023800020E030E040E85FE30E94250488232CF43D
:1023900081E090E09F8F8E8F3FC068A179A18AA1D4
:1023A0009BA120E03FEF4FE757E40E94C5031816BA
:1023B0004CF56CA17DA18EA19FA120E030E040E210
:1023C00051E40E941F02DC01CB01BC01CD010E943F
:1023D0004900DC01CB019F8F8E8F0FC080E991E017
:1023E0009D8F8C8F8C8D9D8D0197F1F79D8F8C8F9C
:1023F0008E8D9F8D01979F8F8E8F8E8D9F8D0097D5
:1024000069F724C068A179A18AA19BA10E94490013
:10241000DC01CB019F8F8E8F8E8D9F8D9B8F8A8F3E
:102420008A8D9B8D0197F1F79B8F8A8F0FC069A5CD
:102430007AA58BA59CA50E944900DC01CB0188A749
:1024400088A5898F898D8A95F1F7898F80E062E070
:1024500040E00E94F71F89A9869586958695982F5A
:10246000917080E066E0492F0E94F71F89A9869548
:102470008695982F917080E065E0492F0E94F71FA4
:1024800089A98695982F917080E064E0492F0E9479
:10249000F71F89A9982F917080E063E0492F0E946F
:1024A000F71F80E062E041E00E94F71F80E090E0CB
:1024B000A0E8BFE38D8B9E8BAF8BB88F6D897E8933
:1024C0008F89988D2BEA3AEA4AEA50E40E941F026B
:1024D000DC01CB01898B9A8BAB8BBC8B69897A89A8
:1024E0008B899C8920E030E040E85FE30E9425046E
:1024F00088231CF481E0888B91C069897A898B8953
:102500009C8920E030E04FE753E40E94C503181691
:102510000CF07BC06D897E898F89988D20E030E03A
:102520004AE754E40E941903DC01CB018C879D87A4
:10253000AE87BF876C857D858E859F8520E030E0E6
:102540004AE755E40E941F02DC01CB018887998786
:10255000AA87BB87688579858A859B8520E030E0DE
:1025600040E85FE30E94250488232CF481E090E09A
:102570009F838E833FC0688579858A859B8520E00F
:102580003FEF4FE757E40E94C50318164CF56C85E2
:102590007D858E859F8520E030E040E251E40E94F9
:1025A0001F02DC01CB01BC01CD010E944900DC010E
:1025B000CB019F838E830FC080E991E09D838C8344
:1025C0008C819D810197F1F79D838C838E819F8102
:1025D00001979F838E838E819F81009769F724C026
:1025E000688579858A859B850E944900DC01CB013D
:1025F0009F838E838E819F819B838A838A819B8127
:102600000197F1F79B838A830FC069897A898B8947
:102610009C890E944900DC01CB01888B88898983D1
:1026200089818A95F1F7898380E062E040E00E9429
:10263000F71F81E0E1960FB6F894DEBF0FBECDBF65
:10264000CF91DF910895DF93CF9300D000D0CDB725
:10265000DEB79C838B8381E08A838B819C8100978A
:10266000E1F019820EC08981282F30E08B819C8196
:10267000FC01E20FF31F80810E94231189818F5F8B
:1026800089838981282F30E08B819C81FC01E20FB6
:10269000F31F8081882339F701C01A828A810F9045
:1026A0000F900F900F90CF91DF9108950F931F938C
:1026B000DF93CF93CDB7DEB760970FB6F894DEBF48
:1026C0000FBECDBF6D877E878F87988B1A82198248
:1026D0008D859E85AF85B8890097A105B10589F5DF
:1026E00080E30E9423114DC08A81082F10E08D8560
:1026F0009E85AF85B8892AE030E040E050E0BC011B
:10270000CD010E94FF24DC01CB01282FCE010396CE
:10271000FC01E00FF11F20838D859E85AF85B88970
:102720002AE030E040E050E0BC01CD010E94FF24EF
:10273000DA01C9018D879E87AF87B88B8A818F5F49
:102740008A838D859E85AF85B8890097A105B105DF
:1027500059F68A818150898311C08981282F3327B6
:1027600027FD3095CE010396FC01E20FF31F808117
:10277000805D0E942311898181508983898188230A
:1027800064F781E060960FB6F894DEBF0FBECDBF50
:10279000CF91DF911F910F910895DF93CF9300D0D8
:1027A00000D00F92CDB7DEB78A836B8381E0898337
:1027B0008B818832D8F48A81282F30E03D832C83A6
:1027C0008C819D81009731F02C813D812130310534
:1027D00031F00AC08B8180580E94230F08C08B8182
:1027E00080540E94230F03C0198201C0198289817D
:1027F0000F900F900F900F900F90CF91DF91089551
:102800000F931F93DF93CF93CDB7DEB7CC54D04057
:102810000FB6F894DEBF0FBECDBF80E061E041E0AF
:102820000E94CD1E81E060E041E00E94CD1E80E06C
:1028300062E041E00E94CD1E80E066E041E00E943F
:10284000CD1E80E065E041E00E94CD1E80E064E0A6
:1028500041E00E94CD1E80E063E041E00E94CD1E79
:10286000FE01E75BFF4F80E090E0ACE0B2E48083E4
:102870009183A283B3838E010B5B1F4FFE01E75B45
:10288000FF4F608171818281938120E030E04AE7CF
:1028900055E40E941F02DC01CB01F8018083918383
:1028A000A283B383FE01EB5BFF4F60817181828164
:1028B000938120E030E040E85FE30E942504882314
:1028C00044F4FE01ED5BFF4F81E090E09183808353
:1028D00064C0FE01EB5BFF4F608171818281938157
:1028E00020E03FEF4FE757E40E94C50318160CF0B5
:1028F00043C0FE01E75BFF4F60817181828193815C
:1029000020E030E040E251E40E941F02DC01CB01F4
:102910008E010D5B1F4FBC01CD010E944900DC01FF
:10292000CB01F801918380831FC0FE01EF5BFF4F55
:1029300080E991E091838083FE01EF5BFF4F80810E
:1029400091810197F1F7FE01EF5BFF4F9183808347
:10295000DE01AD5BBF4FFE01ED5BFF4F80819181DA
:10296000019711969C938E93FE01ED5BFF4F808142
:1029700091810097D1F624C08E010D5B1F4FFE019F
:10298000EB5BFF4F60817181828193810E944900DE
:10299000DC01CB01F80191838083FE01ED5BFF4FE9
:1029A00080819181FE01FF9691838083FE01FF96D5
:1029B000808191810197F1F7FE01FF9691838083D9
:1029C00083E30E94230F82E30E94230F88E20E9488
:1029D000230F80E090E0A0E2B2E48BAF9CAFADAFFC
:1029E000BEAF6BAD7CAD8DAD9EAD2BEA3AEA4AEA47
:1029F00050E40E941F02DC01CB018FAB98AFA9AF5E
:102A0000BAAF6FA978AD89AD9AAD20E030E040E86B
:102A10005FE30E94250488231CF481E08EAB91C003
:102A20006FA978AD89AD9AAD20E030E04FE753E46F
:102A30000E94C50318160CF07BC06BAD7CAD8DAD4C
:102A40009EAD20E030E04AE754E40E941903DC0127
:102A5000CB018AAB9BABACABBDAB6AA97BA98CA904
:102A60009DA920E030E04AE755E40E941F02DC0106
:102A7000CB018EA79FA7A8ABB9AB6EA57FA588A9F0
:102A800099A920E030E040E85FE30E942504882314
:102A90002CF481E090E09DA78CA73FC06EA57FA598
:102AA00088A999A920E03FEF4FE757E40E94C503AA
:102AB00018164CF56AA97BA98CA99DA920E030E0E5
:102AC00040E251E40E941F02DC01CB01BC01CD01B8
:102AD0000E944900DC01CB019DA78CA70FC080E9B3
:102AE00091E09BA78AA78AA59BA50197F1F79BA7D1
:102AF0008AA78CA59DA501979DA78CA78CA59DA5B0
:102B0000009769F724C06EA57FA588A999A90E949E
:102B10004900DC01CB019DA78CA78CA59DA599A799
:102B200088A788A599A50197F1F799A788A70FC04D
:102B30006FA978AD89AD9AAD0E944900DC01CB0147
:102B40008EAB8EA98FA38FA18A95F1F78FA38CE00E
:102B50000E94230F80E090E0A0E2B2E48BA39CA34C
:102B6000ADA3BEA36BA17CA18DA19EA12BEA3AEAE5
:102B70004AEA50E40E941F02DC01CB018F8F98A328
:102B8000A9A3BAA36F8D78A189A19AA120E030E012
:102B900040E85FE30E94250488231CF481E08E8FC7
:102BA00091C06F8D78A189A19AA120E030E04FE714
:102BB00053E40E94C50318160CF07BC06BA17CA1E6
:102BC0008DA19EA120E030E04AE754E40E94190361
:102BD000DC01CB018A8F9B8FAC8FBD8F6A8D7B8D83
:102BE0008C8D9D8D20E030E04AE755E40E941F0265
:102BF000DC01CB018E8B9F8BA88FB98F6E897F896B
:102C0000888D998D20E030E040E85FE30E94250444
:102C100088232CF481E090E09D8B8C8B3FC06E89E3
:102C20007F89888D998D20E03FEF4FE757E40E9420
:102C3000C50318164CF56A8D7B8D8C8D9D8D20E01B
:102C400030E040E251E40E941F02DC01CB01BC01F4
:102C5000CD010E944900DC01CB019D8B8C8B0FC004
:102C600080E991E09B8B8A8B8A899B890197F1F798
:102C70009B8B8A8B8C899D8901979D8B8C8B8C89F2
:102C80009D89009769F724C06E897F89888D998D09
:102C90000E944900DC01CB019D8B8C8B8C899D8926
:102CA000998B888B888999890197F1F7998B888B03
:102CB0000FC06F8D78A189A19AA10E944900DC0103
:102CC000CB018E8F8E8D8F878F858A95F1F78F87B9
:102CD00081E00E94230F80E090E0A0E0B0E48B87C9
:102CE0009C87AD87BE876B857C858D859E8520E022
:102CF00030E04AE755E40E941F02DC01CB018F83DC
:102D00009887A987BA876F81788589859A8520E019
:102D100030E040E85FE30E94250488232CF481E042
:102D200090E09E838D833FC06F81788589859A85E9
:102D300020E03FEF4FE757E40E94C50318164CF51B
:102D40006B857C858D859E8520E030E040E251E4F6
:102D50000E941F02DC01CB01BC01CD010E94490091
:102D6000DC01CB019E838D830FC080E991E09C83C1
:102D70008B838B819C810197F1F79C838B838D8161
:102D80009E8101979E838D838D819E81009769F737
:102D900014C06F81788589859A850E944900DC017D
:102DA000CB019E838D838D819E819A8389838981C6
:102DB0009A810197F1F79A83898386E00E94230F15
:102DC00081E0C45BDF4F0FB6F894DEBF0FBECDBF0E
:102DD000CF91DF911F910F910895DF93CF93CDB7DE
:102DE000DEB72E970FB6F894DEBF0FBECDBF81E0E1
:102DF0000E94230F80E090E0A0E0B0E48B879C87E6
:102E0000AD87BE876B857C858D859E8520E030E013
:102E10004AE755E40E941F02DC01CB018F839887AB
:102E2000A987BA876F81788589859A8520E030E007
:102E300040E85FE30E94250488232CF481E090E0C1
:102E40009E838D833FC06F81788589859A8520E038
:102E50003FEF4FE757E40E94C50318164CF56B850A
:102E60007C858D859E8520E030E040E251E40E9423
:102E70001F02DC01CB01BC01CD010E944900DC0135
:102E8000CB019E838D830FC080E991E09C838B836F
:102E90008B819C810197F1F79C838B838D819E812F
:102EA00001979E838D838D819E81009769F714C061
:102EB0006F81788589859A850E944900DC01CB0164
:102EC0009E838D838D819E819A83898389819A8156
:102ED0000197F1F79A83898381E02E960FB6F894D3
:102EE000DEBF0FBECDBFCF91DF910895DF93CF93AB
:102EF000CDB7DEB727970FB6F894DEBF0FBECDBFB4
:102F00008B837D836C834E832F8381E08A838C81C6
:102F10009D81009781F18B81883068F58E818230A8
:102F200050F58F81883238F58B81882F90E0089694
:102F3000880F991F880F991F880F991F0E94230FD0
:102F400019820EC08981282F30E08C819D81FC017F
:102F5000E20FF31F80810E94231189818F5F898393
:102F60008981883078F38E816F810E94CD138B81A7
:102F70000E94231101C01A828A8127960FB6F89405
:102F8000DEBF0FBECDBFCF91DF910895DF93CF930A
:102F90000F92CDB7DEB7198233C08981882F90E0B8
:102FA000FC01E65EFE4F908181E0692F41E00E94C6
:102FB000CD1E8981882F90E0FC01E65EFE4F908156
:102FC00081E0692F41E00E94F71F8981882F90E0FE
:102FD000FC01E25EFE4F908183E0692F40E00E9499
:102FE000CD1E8981882F90E0FC01E25EFE4F90812A
:102FF00083E0692F41E00E94F71F89818F5F8983F9
:103000008981843050F281E00F90CF91DF91089553
:10301000DF93CF93CDB7DEB765970FB6F894DEBFD9
:103020000FBECDBF9D8B8C8B81E08A8B1B8A1F8648
:103030008C899D89009709F4F0C0EC89FD898FEF98
:103040008083198AE5C08989882F90E0FC01E65EBB
:10305000FE4F908181E0692F40E00E94F71F188A9F
:10306000C1C08889882F90E0FC01E25EFE4F90810C
:103070009E012D5E3F4F83E0692FA9010E9421210F
:103080008B89882309F0ABC080E090E0A0EAB1E42E
:103090008B879C87AD87BE876B857C858D859E855C
:1030A00020E030E04AE755E40E941F02DC01CB013A
:1030B0008F839887A987BA876F81788589859A8554
:1030C00020E030E040E85FE30E94250488232CF4F0
:1030D00081E090E09E838D833FC06F8178858985F4
:1030E0009A8520E03FEF4FE757E40E94C50318168A
:1030F0004CF56B857C858D859E8520E030E040E237
:1031000051E40E941F02DC01CB01BC01CD010E94F1
:103110004900DC01CB019E838D830FC080E991E0E3
:103120009C838B838B819C810197F1F79C838B839C
:103130008D819E8101979E838D838D819E810097D5
:1031400069F714C06F81788589859A850E94490046
:10315000DC01CB019E838D838D819E819A8389833F
:1031600089819A810197F1F79A8389838889882FC9
:1031700090E0FC01E25EFE4F90819E012D5E3F4F8C
:1031800083E0692FA9010E9421210FC08889882F1F
:1031900090E0FC01E25EFE4F90819E012D5E3F4F6C
:1031A00083E0692FA9010E9421218B89882371F373
:1031B0008989282F30E08889482F50E0C901880F7D
:1031C000991F820F931F840F951FFC01E25FFE4F32
:1031D0008081EC89FD89808381E08F8707C08889A1
:1031E0008F5F888B8889833008F43BCF8989882F4B
:1031F00090E0FC01E65EFE4F908181E0692F41E0A6
:103200000E94F71F8F85882349F489898F5F898BF6
:103210008989843008F417CF01C01A8A8A89659693
:103220000FB6F894DEBF0FBECDBFCF91DF910895EA
:10323000DF93CF93CDB7DEB72A970FB6F894DEBFF2
:103240000FBECDBF8A836B834C8381E089838A81E3
:10325000823008F0C1C18B81873008F0BDC18C81FC
:10326000883008F0B9C18A81282F30E03A87298751
:1032700089859A85009739F029853A85213031056D
:1032800009F4CBC0AAC18B81282F30E038872F8367
:103290008F8198858330910509F440C02F8138854E
:1032A0002430310554F48F8198850097C9F02F811F
:1032B00038852130310519F1A4C08F81988585307A
:1032C000910509F465C02F813885253031050CF44E
:1032D00042C08F8198858630910509F476C091C0EF
:1032E000A3E5B0E0E3E5F0E080818F7B8C93A3E57C
:1032F000B0E0E3E5F0E08081877F8C9382C0A3E5B6
:10330000B0E0E3E5F0E080818F7B8C93A3E5B0E053
:10331000E3E5F0E0808188608C9373C0A3E5B0E0C2
:10332000E3E5F0E0808180648C93A3E5B0E0E3E521
:10333000F0E0808188608C93A3E5B0E0E3E5F0E005
:10334000808180628C93A3E5B0E0E3E5F0E08081CA
:1033500080618C9356C0A3E5B0E0E3E5F0E08081A6
:1033600080648C93A3E5B0E0E3E5F0E080818860C1
:103370008C93A3E5B0E0E3E5F0E0808180628C937C
:10338000A3E5B0E0E3E5F0E080818F7E8C9339C067
:10339000A3E5B0E0E3E5F0E0808180648C93A3E5F1
:1033A000B0E0E3E5F0E08081877F8C93A3E5B0E0B7
:1033B000E3E5F0E0808180628C93A3E5B0E0E3E593
:1033C000F0E0808180618C931CC0A3E5B0E0E3E570
:1033D000F0E0808180648C93A3E5B0E0E3E5F0E069
:1033E0008081877F8C93A3E5B0E0E3E5F0E0808106
:1033F00080628C93A3E5B0E0E3E5F0E080818F7E0E
:103400008C93A3E5B0E0E3E5F0E090818C81892B1B
:103410008C938C8180933401E0C08B81282F30E025
:103420003E832D838D819E818230910509F456C0A3
:103430002D813E812330310554F48D819E8100978A
:1034400099F02D813E812130310559F1B9C08D812E
:103450009E818430910509F45EC02D813E81263025
:10346000310509F483C0ACC0AFE4B0E0EFE4F0E0B4
:1034700080818E7F8C93AFE4B0E0EFE4F0E0808158
:103480008D7F8C93AEE4B0E0EEE4F0E08081877F46
:103490008C93AEE4B0E0EEE4F0E080818F7E8C931C
:1034A0008FC0AFE4B0E0EFE4F0E080818E7F8C93DA
:1034B000AFE4B0E0EFE4F0E080818D7F8C93AEE488
:1034C000B0E0EEE4F0E0808188608C93AEE4B0E0A0
:1034D000EEE4F0E080818F7E8C9372C0AFE4B0E0C8
:1034E000EFE4F0E080818E7F8C93AFE4B0E0EFE416
:1034F000F0E080818D7F8C93AEE4B0E0EEE4F0E00C
:103500008081877F8C93AEE4B0E0EEE4F0E08081D0
:103510008F7E8C9355C0AFE4B0E0EFE4F0E08081A3
:103520008E7F8C93AFE4B0E0EFE4F0E080818260C6
:103530008C93AEE4B0E0EEE4F0E0808188608C93A0
:10354000AEE4B0E0EEE4F0E0808180618C93AFE423
:10355000B0E0EFE4F0E0808180688C93AFE4B0E00D
:10356000EFE4F0E080818F7B8C932AC0AFE4B0E081
:10357000EFE4F0E0808181608C93AFE4B0E0EFE4B1
:10358000F0E0808182608C93AEE4B0E0EEE4F0E0A5
:103590008081877F8C93AEE4B0E0EEE4F0E0808140
:1035A00080618C93AFE4B0E0EFE4F0E0808180686C
:1035B0008C93AFE4B0E0EFE4F0E080818F7B8C93FC
:1035C000AEE4B0E0EEE4F0E090818C81892B8C9346
:1035D0008C818093350101C0198289812A960FB6AA
:1035E000F894DEBF0FBECDBFCF91DF910895DF937A
:1035F000CF93CDB7DEB72D970FB6F894DEBF0FBED1
:10360000CDBF8A837C836B834D8381E089831D8654
:103610008A81823010F421E02D871C868B819C8169
:10362000009711F031E03C878D859C85892391E0DE
:103630008927882309F075C08D81833008F071C017
:103640008A81282F30E03B872A878A859B850097CF
:1036500031F02A853B852130310561F163C08D81D0
:10366000282F30E03987288788859985009731F0A1
:10367000288539852130310549F00FC0A9E5B0E032
:10368000E9E5F0E0808181608C9307C0A9E5B0E0B6
:10369000E9E5F0E0808182608C938D81882F90E055
:1036A000880F991FFC01E65DFE4F8B819C81918301
:1036B000808338C08D81282F30E03F832E838E8118
:1036C0009F818130910589F02E813F812230310523
:1036D000A1F08E819F810097B9F4A9E5B0E0E9E5FA
:1036E000F0E0808184608C930FC0A9E5B0E0E9E54B
:1036F000F0E0808180618C9307C0A9E5B0E0E9E546
:10370000F0E0808188608C938D81882F90E0880F15
:10371000991FFC01E25DFE4F8B819C819183808328
:1037200001C0198289812D960FB6F894DEBF0FBEB5
:10373000CDBFCF91DF910895DF93CF9300D000D01C
:103740000F92CDB7DEB78A836B8381E089838B814B
:103750008830C0F58A818230A8F58A81282F30E030
:103760003D832C838C819D81009731F02C813D819C
:1037700021303105A1F027C0A3E5B0E0E3E5F0E09A
:103780008081887F8C93A3E5B0E0E3E5F0E0908151
:103790008B81892B8C938B818093340114C0AEE490
:1037A000B0E0EEE4F0E08081887F8C93AEE4B0E09E
:1037B000EEE4F0E090818B81892B8C938B81809358
:1037C000350101C0198289810F900F900F900F90E1
:1037D0000F90CF91DF910895EF92FF920F931F9377
:1037E000DF93CF93CDB7DEB72D970FB6F894DEBF3A
:1037F0000FBECDBF69877A878B879C87A3E5B0E032
:10380000E3E5F0E0908180913401892B8C9380E88E
:1038100090E098878F8389859A85AB85BC8528EE53
:1038200033E040E050E0BC01CD010E94CC247B019C
:103830008C018F8198859C0140E050E0C801B70160
:103840000E94FF24DA01C9019E838D8389859A85B0
:10385000AB85BC8528EE33E040E050E0BC01CD01F3
:103860000E94CC247B018C018F8198859C0140E0D3
:1038700050E0C801B7010E94FF24DC01CB0120E029
:1038800034E244EF50E0BC01CD010E94CC24DC01C5
:10389000CB0120E032E14AE750E0BC01CD010E94BB
:1038A000FF24DA01C9019C838B83E2E5F0E08B8180
:1038B000819580831A82198215C0A8E5B0E0E8E5F9
:1038C000F0E0808181608C9389819A8101969A834E
:1038D0008983E8E5F0E08081882F90E08170907026
:1038E000882359F78D819E819C012F5F3F4F8981ED
:1038F0009A812817390769F7A3E5B0E0E3E5F0E01E
:103900008081887F8C932D960FB6F894DEBF0FBE12
:10391000CDBFCF91DF911F910F91FF90EF90089550
:10392000DF93CF9300D000D000D0CDB7DEB78A832D
:103930007C836B8381E089838A818330D8F48A8198
:10394000282F30E03E832D838D819E81009731F0BA
:103950002D813E812130310531F00DC0E2E5F0E0EE
:103960008B81808308C0ECE4F0E08B819C819183A3
:10397000808301C01982898126960FB6F894DEBF34
:103980000FBECDBFCF91DF910895DF93CF9300D0CD
:1039900000D000D0CDB7DEB78A837C836B8381E013
:1039A00089838A81833010F58A81282F30E03E8315
:1039B0002D838D819E81009731F02D813E812130B4
:1039C000310559F014C0E2E5F0E08081882F90E0E5
:1039D000EB81FC81918380830AC0ECE4F0E080817C
:1039E0009181EB81FC819183808301C0198289815F
:1039F00026960FB6F894DEBF0FBECDBFCF91DF91F4
:103A00000895DF93CF930F92CDB7DEB78983ECE5AE
:103A1000F0E08981808381E00F90CF91DF9108955C
:103A2000DF93CF9300D00F92CDB7DEB79A8389830F
:103A3000E6E4F0E089819A81918380830F900F9072
:103A40000F90CF91DF910895DF93CF9300D000D0F6
:103A500000D0CDB7DEB78A837C836B8381E0898316
:103A60008A818230E8F48A81282F30E03E832D83DA
:103A70008D819E81009731F02D813E81213031056D
:103A800041F00FC0EAE4F0E08B819C819183808358
:103A900008C0E8E4F0E08B819C819183808301C0C1
:103AA0001982898126960FB6F894DEBF0FBECDBF6E
:103AB000CF91DF910895DF93CF9300D000D0CDB7A1
:103AC000DEB78A8381E089838A818230C8F58A8162
:103AD000282F30E03C832B838B819C81009731F031
:103AE000EB81FC81E130F10581F02BC0A3E5B0E072
:103AF000E3E5F0E08081887F8C93A2E5B0E0ECE51F
:103B0000F0E0108280818C931CC0AEE4B0E0EEE463
:103B1000F0E08081887F8C932CE430E0AAE4B0E070
:103B2000E8E4F0E0118210828081918111969C93EB
:103B30008E938D919C911197F9019183808301C09F
:103B4000198289810F900F900F900F90CF91DF9184
:103B500008951F920F920FB60F9211242F933F9347
:103B60004F935F936F937F938F939F93AF93BF9385
:103B7000EF93FF93DF93CF93CDB7DEB78091300102
:103B800090913101009729F0E0913001F0913101DD
:103B90000995CF91DF91FF91EF91BF91AF919F91E7
:103BA0008F917F916F915F914F913F912F910F90E6
:103BB0000FBE0F901F9018951F920F920FB60F9285
:103BC00011242F933F934F935F936F937F938F9322
:103BD0009F93AF93BF93EF93FF93DF93CF93CDB7B3
:103BE000DEB78091320190913301009729F0E09186
:103BF0003201F09133010995CF91DF91FF91EF915F
:103C0000BF91AF919F918F917F916F915F914F91F4
:103C10003F912F910F900FBE0F901F9018951F92FC
:103C20000F920FB60F9211242F933F934F935F93F0
:103C30006F937F938F939F93AF93BF93EF93FF9374
:103C4000DF93CF93CDB7DEB780912E0190912F01F6
:103C5000009729F0E0912E01F0912F010995CF9165
:103C6000DF91FF91EF91BF91AF919F918F917F91E4
:103C70006F915F914F913F912F910F900FBE0F90D9
:103C80001F9018951F920F920FB60F9211242F9329
:103C90003F934F935F936F937F938F939F93AF93D4
:103CA000BF93EF93FF93DF93CF93CDB7DEB78091B0
:103CB0002C0190912D01009729F0E0912C01F091B9
:103CC0002D010995CF91DF91FF91EF91BF91AF91B8
:103CD0009F918F917F916F915F914F913F912F9124
:103CE0000F900FBE0F901F9018951F920F920FB656
:103CF0000F9211242F933F934F935F936F937F9372
:103D00008F939F93AF93BF93EF93FF93DF93CF93E3
:103D1000CDB7DEB780912A0190912B01009729F051
:103D2000E0912A01F0912B010995CF91DF91FF914C
:103D3000EF91BF91AF919F918F917F916F915F9123
:103D40004F913F912F910F900FBE0F901F9018959C
:103D5000DF93CF93CDB7DEB7EAE3F0E08FE7808360
:103D6000E7E3F0E08DEF8083E4E3F0E083E180833C
:103D7000E1E3F0E01082EBE3F0E01082E8E3F0E052
:103D800084EF8083E5E3F0E01082E2E3F0E08CE38F
:103D9000808381E0CF91DF910895DF93CF93CDB7FA
:103DA000DEB72E970FB6F894DEBF0FBECDBF8A8365
:103DB0006B834C8381E089838A81843008F00CC155
:103DC0008B81883008F008C18C81813021F08C8192
:103DD000882309F001C18A81282F30E03E872D8792
:103DE0008D859E858130910509F44FC02D853E85D6
:103DF000223031052CF48D859E85009771F0EDC041
:103E00002D853E852230310509F477C08D859E854C
:103E10008330910509F4A9C0E0C08C81282F30E0DF
:103E20003C872B878B859C850097D1F02B853C8523
:103E30002130310509F0D1C0AAE3B0E0EAE3F0E0B7
:103E40008081482F8B81282F30E081E090E0022E86
:103E500002C0880F991F0A94E2F7842B8C93BDC08F
:103E6000AAE3B0E0EAE3F0E08081482F8B81282FBD
:103E700030E081E090E0022E02C0880F991F0A9482
:103E8000E2F7809584238C93A8C08C81282F30E0A2
:103E90003A87298789859A850097D1F029853A85BF
:103EA0002130310509F099C0A7E3B0E0E7E3F0E085
:103EB0008081482F8B81282F30E081E090E0022E16
:103EC00002C0880F991F0A94E2F7842B8C9385C057
:103ED000A7E3B0E0E7E3F0E08081482F8B81282F53
:103EE00030E081E090E0022E02C0880F991F0A9412
:103EF000E2F7809584238C9370C08C81282F30E06A
:103F000038872F838F8198850097D1F02F8138854E
:103F10002130310509F061C0A4E3B0E0E4E3F0E052
:103F20008081482F8B81282F30E081E090E0022EA5
:103F300002C0880F991F0A94E2F7842B8C934DC01E
:103F4000A4E3B0E0E4E3F0E08081482F8B81282FE8
:103F500030E081E090E0022E02C0880F991F0A94A1
:103F6000E2F7809584238C9338C08C81282F30E031
:103F70003E832D838D819E810097C9F02D813E81E6
:103F80002130310551F5A1E3B0E0E1E3F0E08081BB
:103F9000482F8B81282F30E081E090E0022E02C074
:103FA000880F991F0A94E2F7842B8C9316C0A1E323
:103FB000B0E0E1E3F0E08081482F8B81282F30E0F2
:103FC00081E090E0022E02C0880F991F0A94E2F768
:103FD000809584238C9301C0198289812E960FB617
:103FE000F894DEBF0FBECDBFCF91DF910895DF9370
:103FF000CF93CDB7DEB72E970FB6F894DEBF0FBEC6
:10400000CDBF8A836B834C8381E089838A8184302E
:1040100008F00CC18B81883008F008C18C81813098
:1040200021F08C81882309F001C18A81282F30E09A
:104030003E872D878D859E858130910509F44FC07F
:104040002D853E85223031052CF48D859E85009787
:1040500071F0EDC02D853E852230310509F477C021
:104060008D859E858330910509F4A9C0E0C08C81BF
:10407000282F30E03C872B878B859C850097D1F0DB
:104080002B853C852130310509F0D1C0ABE3B0E090
:10409000EBE3F0E08081482F8B81282F30E081E036
:1040A00090E0022E02C0880F991F0A94E2F7842B39
:1040B0008C93BDC0ABE3B0E0EBE3F0E08081482F30
:1040C0008B81282F30E081E090E0022E02C0880F23
:1040D000991F0A94E2F7809584238C93A8C08C8161
:1040E000282F30E03A87298789859A850097D1F073
:1040F00029853A852130310509F099C0A8E3B0E05F
:10410000E8E3F0E08081482F8B81282F30E081E0C8
:1041100090E0022E02C0880F991F0A94E2F7842BC8
:104120008C9385C0A8E3B0E0E8E3F0E08081482FFD
:104130008B81282F30E081E090E0022E02C0880FB2
:10414000991F0A94E2F7809584238C9370C08C8128
:10415000282F30E038872F838F8198850097D1F002
:104160002F8138852130310509F061C0A5E3B0E029
:10417000E5E3F0E08081482F8B81282F30E081E05B
:1041800090E0022E02C0880F991F0A94E2F7842B58
:104190008C934DC0A5E3B0E0E5E3F0E08081482FCB
:1041A0008B81282F30E081E090E0022E02C0880F42
:1041B000991F0A94E2F7809584238C9338C08C81F0
:1041C000282F30E03E832D838D819E810097C9F09A
:1041D0002D813E812130310551F5A2E3B0E0E2E3CB
:1041E000F0E08081482F8B81282F30E081E090E043
:1041F000022E02C0880F991F0A94E2F7842B8C9339
:1042000016C0A2E3B0E0E2E3F0E08081482F8B81AA
:10421000282F30E081E090E0022E02C0880F991F25
:104220000A94E2F7809584238C9301C019828981D6
:104230002E960FB6F894DEBF0FBECDBFCF91DF91A3
:104240000895DF93CF93CDB7DEB727970FB6F894D5
:10425000DEBF0FBECDBF8A836B835D834C8381E05D
:1042600089838A81843008F07AC08B81883008F095
:1042700076C08C819D81009709F471C08A81282FB6
:1042800030E03F832E834E815F814130510559F1EB
:104290008E819F818230910534F42E813F812115DA
:1042A000310569F05DC04E815F814230510579F181
:1042B0008E819F818330910509F43DC051C0E9E3AF
:1042C000F0E08081282F30E08B81882F90E0A901D9
:1042D00002C0559547958A95E2F7CA018170EC8135
:1042E000FD8180833DC0E6E3F0E08081282F30E04F
:1042F0008B81882F90E0A90102C0559547958A953A
:10430000E2F7CA018170EC81FD81808329C0E3E37B
:10431000F0E08081282F30E08B81882F90E0A90188
:1043200002C0559547958A95E2F7CA018170EC81E4
:10433000FD81808315C0E0E3F0E08081282F30E02C
:104340008B81882F90E0A90102C0559547958A95E9
:10435000E2F7CA018170EC81FD81808301C019827E
:10436000898127960FB6F894DEBF0FBECDBFCF91DF
:10437000DF910895DF93CF93CDB7DEB72D970FB6BA
:10438000F894DEBF0FBECDBF8A836B8381E0898343
:104390008A81843008F084C08B81813021F08B8148
:1043A000882309F07DC08A81282F30E03D872C8743
:1043B0008C859D858130910571F12C853D8522305C
:1043C00031052CF48C859D85009769F06AC02C8599
:1043D0003D8522303105B1F18C859D858330910575
:1043E00009F447C05EC08B81282F30E03B872A87C5
:1043F0008A859B85009759F02A853B8521303105B8
:1044000009F04FC0EAE3F0E08FEF80834AC0EAE3AF
:10441000F0E0108246C08B81282F30E03987288752
:1044200088859985009751F0288539852130310597
:10443000C1F5E7E3F0E08FEF808333C0E7E3F0E01E
:1044400010822FC08B81282F30E03F832E838E81F6
:104450009F81009751F02E813F812130310509F570
:10446000E4E3F0E08FEF80831CC0E4E3F0E010822F
:1044700018C08B81282F30E03D832C838C819D8157
:10448000009751F02C813D812130310551F4E1E359
:10449000F0E08FEF808305C0E1E3F0E0108201C01F
:1044A000198289812D960FB6F894DEBF0FBECDBF5D
:1044B000CF91DF910895DF93CF9300D000D00F927A
:1044C000CDB7DEB78A836B8381E089838A818430AC
:1044D00098F58A81282F30E03D832C838C819D8143
:1044E00081309105D1F02C813D81223031052CF4B1
:1044F0008C819D81009761F020C02C813D8122300C
:10450000310581F08C819D818330910581F015C04A
:10451000EBE3F0E08B81808310C0E8E3F0E08B8177
:1045200080830BC0E5E3F0E08B81808306C0E2E38B
:10453000F0E08B81808301C0198289810F900F90F8
:104540000F900F900F90CF91DF910895DF93CF934D
:1045500000D000D000D0CDB7DEB78A837C836B83D8
:1045600081E089838A81843008F03FC08B819C81FF
:104570000097D9F18A81282F30E03E832D838D81E9
:104580009E8181309105E1F02D813E8122303105FF
:104590002CF48D819E81009761F028C02D813E8191
:1045A00022303105A1F08D819E8183309105B1F0DB
:1045B0001DC0E9E3F0E08081EB81FC81808316C0BF
:1045C000E6E3F0E08081EB81FC8180830FC0E3E3D0
:1045D000F0E08081EB81FC81808308C0E0E3F0E0C3
:1045E0008081EB81FC81808301C0198289812696BC
:1045F0000FB6F894DEBF0FBECDBFCF91DF91089507
:10460000DF93CF9300D000D00F92CDB7DEB78A836F
:104610006B8381E089838A81843008F073C08B8149
:10462000883008F06FC08A81282F30E03D832C83CA
:104630008C819D818130910549F12C813D81223011
:1046400031052CF48C819D81009761F05CC02C8138
:104650003D812230310571F18C819D81833091053E
:10466000E9F151C0ABE3B0E0EBE3F0E08081482F2B
:104670008B81282F30E081E090E0022E02C0880F6D
:10468000991F0A94E2F784278C933DC0A8E3B0E019
:10469000E8E3F0E08081482F8B81282F30E081E033
:1046A00090E0022E02C0880F991F0A94E2F7842737
:1046B0008C9329C0A5E3B0E0E5E3F0E08081482FCA
:1046C0008B81282F30E081E090E0022E02C0880F1D
:1046D000991F0A94E2F784278C9315C0A2E3B0E0F7
:1046E000E2E3F0E08081482F8B81282F30E081E0E9
:1046F00090E0022E02C0880F991F0A94E2F78427E7
:104700008C9301C0198289810F900F900F900F90A8
:104710000F90CF91DF910895DF93CF93CDB7DEB7A0
:10472000A7E2B0E0E7E2F0E080818F778C93A7E228
:10473000B0E0E7E2F0E0808180648C93A7E2B0E033
:10474000E7E2F0E080818F7D8C93A6E2B0E0E6E2C4
:10475000F0E080818F7D8C93A6E2B0E0E6E2F0E0AD
:10476000808187608C93A6E2B0E0E6E2F0E0808191
:1047700080688C9381E0CF91DF910895DF93CF9390
:10478000CDB7DEB728970FB6F894DEBF0FBECDBF0A
:104790008E8378876F8381E08D8319821A821B82D2
:1047A0001C828E81803208F065C08F8198850097C9
:1047B00009F460C080913801882309F05BC081E072
:1047C00080933801A7E2B0E0E7E2F0E08081807EEC
:1047D0008C93A7E2B0E0E7E2F0E090818E81892B34
:1047E0008C93A6E2B0E0E6E2F0E0808180648C93F6
:1047F0000BC089819A81AB81BC810196A11DB11D3D
:1048000089839A83AB83BC83E6E2F0E08081829562
:104810008F70882F90E081709070009761F489818B
:104820009A81AB81BC81803523EC920720E0A207FE
:1048300020E0B207F0F2E6E2F0E0808182958F702E
:10484000882F90E081709070882391F01092380149
:10485000A6E2B0E0E6E2F0E0808180618C93E4E2E1
:10486000F0E080819181EF81F8859183808303C09E
:104870001D8201C01D828D8128960FB6F894DEBF7F
:104880000FBECDBFCF91DF910895DF93CF9300D0BE
:1048900000D0CDB7DEB78A837C836B8381E08983C8
:1048A0008A81803278F58B819C81009759F18091C3
:1048B0003801882339F581E0809338018B819C8110
:1048C0009093370180933601A6E2B0E0E6E2F0E093
:1048D000808188608C93A7E2B0E0E7E2F0E080811D
:1048E000807E8C93A7E2B0E0E7E2F0E090818A81DD
:1048F000892B8C93A6E2B0E0E6E2F0E08081806450
:104900008C9301C0198289810F900F900F900F90A6
:10491000CF91DF9108951F920F920FB60F9211243D
:104920002F933F934F935F936F937F938F939F93B7
:10493000AF93BF93EF93FF93DF93CF93CDB7DEB7E2
:104940008091360190913701009799F0A6E2B0E08E
:10495000E6E2F0E08081877F8C931092380120910D
:10496000360130913701E4E2F0E080819181F90174
:104970000995CF91DF91FF91EF91BF91AF919F91F9
:104980008F917F916F915F914F913F912F910F90F8
:104990000FBE0F901F901895629FD001739FF0017A
:1049A000829FE00DF11D649FE00DF11D929FF00DBF
:1049B000839FF00D749FF00D659FF00D9927729FF6
:1049C000B00DE11DF91F639FB00DE11DF91FBD0181
:1049D000CF0111240895AA1BBB1B51E107C0AA1FD8
:1049E000BB1FA617B70710F0A61BB70B881F991F90
:1049F0005A95A9F780959095BC01CD010895A1E243
:104A00001A2EAA1BBB1BFD010DC0AA1FBB1FEE1F48
:104A1000FF1FA217B307E407F50720F0A21BB30B93
:104A2000E40BF50B661F771F881F991F1A9469F70F
:104A300060957095809590959B01AC01BD01CF016B
:104A400008952F923F924F925F926F927F928F9232
:104A50009F92AF92BF92CF92DF92EF92FF920F930D
:104A60001F93CF93DF93CDB7DEB7CA1BDB0B0FB617
:104A7000F894DEBF0FBECDBF09942A8839884888D4
:104A80005F846E847D848C849B84AA84B984C8846A
:104A9000DF80EE80FD800C811B81AA81B981CE0F61
:104AA000D11D0FB6F894DEBF0FBECDBFED01089546
:044AB000F894FFCFA8
:104AB40048692E2E2E0057726F6E672050617373F3
:104AC400776F72642100456E746572205061737350
:104AD400776F72643A0057656C636F6D652C20556F
:104AE400736572203A2900446F6F72204C6F636BB8
:104AF400656400446F6F7220556E4C6F636B656420
:104B040000312D4C6F636B20446F6F7200322D5552
:104B14006E4C6F636B20446F6F72004F70656E69EB
:104B24006E6720446F6F722E2E00436C6F73696E34
:104B34006720446F6F722E2E0000000000000000FA
:104B4400003132333435000001000205003F065BBA
:104B54004F666D7D077F6F01020304050607373832
:104B64003934353631323343303D04050607020308
:024B740004003B
:00000001FF
