:100000000C942A000C948A270C94BD270C94F0279A
:100010000C94D0210C9403220C9436220C94692267
:100020000C949C220C94CF220C9402230C94352324
:100030000C9447000C94B71A0C9447000C94EA1ADD
:100040000C94062E0C9447000C9447000C94470027
:100050000C94470011241FBECFE5D8E0DEBFCDBF12
:1000600011E0A0E6B0E0E0EEFDE502C005900D92E3
:10007000AA34B107D9F711E0AAE4B1E001C01D929A
:10008000A637B107E1F70E9462080C94EE2E0C949B
:100090000000EF92FF920F931F937B018C0120E0F1
:1000A00030E040E05FE40E94F50388238CF0C80153
:1000B000B70120E030E040E05FE40E94C1010E940F
:1000C00055049B01AC01205030404040504806C0D0
:1000D000C801B7010E9455049B01AC01B901CA01D6
:1000E0001F910F91FF90EF900895A0E0B0E0EBE733
:1000F000F0E00C94B72EDC012B01FA019C919230B8
:1001000008F439C1EB018881823008F433C194309E
:1001100069F4843009F02FC111969C91119789815F
:10012000981709F428C1ACE0B1E025C1843009F486
:1001300021C18230A9F4923009F01DC19A01AD01AC
:1001400088E0EA010990AE01E90109929E0181501F
:10015000C1F7E201898111969C918923818308C1AD
:10016000923009F407C112962D903C901397EB0141
:100170008A819B811496AD90BD90CD90DC901797AD
:10018000EC80FD800E811F819101281B390BB90184
:1001900037FF04C066277727621B730B6032710537
:1001A0000CF061C0121613066CF537014801062EDB
:1001B00004C096948794779467940A94D2F721E0C8
:1001C00030E040E050E004C0220F331F441F551FB1
:1001D0006A95D2F721503040404050402E213F21B7
:1001E00040235123211531054105510521F021E01E
:1001F00030E040E050E079018A01E628F72808293C
:1002000019293CC0232BD1F1260E371E350146019A
:10021000062E04C096948794779467940A94D2F734
:1002200021E030E040E050E004C0220F331F441FC3
:10023000551F6A95D2F721503040404050402A2146
:100240003B214C215D21211531054105510521F04E
:1002500021E030E040E050E059016A01A628B728CB
:10026000C828D9280BC0821593052CF01C01AA249C
:10027000BB24650103C0EE24FF24870111969C91E5
:10028000D20111968C91981709F445C0992339F041
:10029000A80197012A193B094C095D0906C0A6016E
:1002A00095012E193F09400B510B57FD08C01182D3
:1002B0003382228224833583468357831DC081E0A5
:1002C00081833382228288279927DC01821B930B4A
:1002D000A40BB50B84839583A683B7830DC0220F2F
:1002E000331F441F551F24833583468357838281E0
:1002F000938101979383828324813581468157813D
:10030000DA01C9010197A109B1098F5F9F4FAF4F72
:10031000BF4328F30BC0918333822282EA0CFB1C7B
:100320000C1D1D1DE482F5820683178383E0808304
:10033000248135814681578157FF1AC0C901AA27F8
:1003400097FDA095BA2F81709070A070B0705695EF
:10035000479537952795822B932BA42BB52B848318
:100360009583A683B7838281938101969383828349
:10037000DF0101C0D201CD01CDB7DEB7E2E10C94BF
:10038000D32EA0E2B0E0E7ECF1E00C94C32E698339
:100390007A838B839C832D833E834F835887E9E048
:1003A000EE2EF12CEC0EFD1ECE010196B7010E943F
:1003B0007E058E010F5E1F4FCE010596B8010E948B
:1003C0007E058A8991E089278A8BC701B801AE0131
:1003D000475E5F4F0E9475000E94A904A096E6E068
:1003E0000C94DF2EA0E2B0E0E8EFF1E00C94C32E15
:1003F00069837A838B839C832D833E834F835887C5
:10040000F9E0EF2EF12CEC0EFD1ECE010196B701A6
:100410000E947E058E010F5E1F4FCE010596B8012A
:100420000E947E05C701B801AE01475E5F4F0E9482
:1004300075000E94A904A096E6E00C94DF2EA0E2CD
:10044000B0E0E5E2F2E00C94B72E69837A838B8307
:100450009C832D833E834F835887CE010196BE0136
:10046000675F7F4F0E947E05CE010596BE016F5EDD
:100470007F4F0E947E059985923088F0898982306D
:10048000C8F0943019F4823051F404C0843029F457
:10049000923081F48CE091E0C6C0923049F420E0C3
:1004A0009A858A89981321E02A87CE010996BBC0D4
:1004B000823049F420E09A858A89981321E02A8BBA
:1004C000CE014196B0C02D843E844F8458886D88FB
:1004D0007E888F88988CEE24FF248701AA24BB2471
:1004E000650140E050E060E070E0E0E0F0E0C10174
:1004F00081709070892BE9F0E60CF71C081D191D1E
:100500009A01AB012A0D3B1D4C1D5D1D80E090E062
:10051000A0E0B0E0E614F7040805190520F481E036
:1005200090E0A0E0B0E0BA01A901480F591F6A1F8E
:100530007B1FAA0CBB1CCC1CDD1C97FE08C081E0F5
:1005400090E0A0E0B0E0A82AB92ACA2ADB2A3196B6
:10055000E032F10549F0660C771C881C991C569412
:10056000479437942794C3CFFA85EA892B893C892D
:100570008B859C85280F391F2E5F3F4F17C0CA01FE
:1005800081709070892B61F016950795F794E79428
:1005900080E090E0A0E0B0E8E82AF92A0A2B1B2BC3
:1005A00076956795579547952F5F3F4F77FDE7CF36
:1005B0000CC0440F551F661F771F17FD4160EE0CDE
:1005C000FF1C001F111F21503040403090E05907A0
:1005D00090E0690790E4790760F32B8F3C8FDB0193
:1005E000CA018F779070A070B07080349105A1051A
:1005F000B10561F447FD0AC0E114F10401051105DC
:1006000029F0405C5F4F6F4F7F4F40781A8EFE1786
:1006100011F081E08A8F4D8F5E8F6F8F78A383E01A
:10062000898FCE0149960E94A904A096E2E10C941C
:10063000D32EA8E1B0E0EFE1F3E00C94BF2E698384
:100640007A838B839C832D833E834F835887B9E0C5
:10065000EB2EF12CEC0EFD1ECE010196B7010E948F
:100660007E058E010F5E1F4FCE010596B8010E94D8
:100670007E052985223008F47EC03989323010F495
:10068000B8017CC08A859A8989278A87243011F02D
:10069000223031F4231709F06EC06CE071E06EC0B7
:1006A000343039F41D861E861F86188A1C861B86E8
:1006B00004C0323021F484E08987B7015FC02B8504
:1006C0003C858B899C89281B390B3C872B87ED84C3
:1006D000FE840F851889AD88BE88CF88D88CEA142F
:1006E000FB040C051D0540F4EE0CFF1C001F111F40
:1006F000215030403C872B8720E030E040E050E044
:1007000080E090E0A0E0B0E460E070E0EA14FB0478
:100710000C051D0540F0282B392B4A2B5B2BEA18C2
:10072000FB080C091D09B695A79597958795EE0CC2
:10073000FF1C001F111F6F5F7F4F6F31710531F775
:10074000DA01C9018F779070A070B0708034910584
:10075000A105B10561F427FD0AC0E114F10401050A
:10076000110529F0205C3F4F4F4F5F4F20782D87B8
:100770003E874F87588BBE01675F7F4FCB010E943A
:10078000A9046896EAE00C94DB2EA8E1B0E0EBEC5B
:10079000F3E00C94C32E69837A838B839C832D832F
:1007A0003E834F83588789E0E82EF12CEC0EFD1E26
:1007B000CE010196B7010E947E058E010F5E1F4F8C
:1007C000CE010596B8010E947E058985823040F0F1
:1007D0008989823028F0C701B8010E94F60501C05E
:1007E0008FEF6896E6E00C94DF2EA8E1B0E0EBEF27
:1007F000F3E00C94C32E69837A838B839C832D83CF
:100800003E834F83588789E0E82EF12CEC0EFD1EC5
:10081000CE010196B7010E947E058E010F5E1F4F2B
:10082000CE010596B8010E947E058985823040F090
:100830008989823028F0C701B8010E94F60501C0FD
:100840008FEF6896E6E00C94DF2EA8E1B0E0EBE2D3
:10085000F4E00C94C32E69837A838B839C832D836D
:100860003E834F83588789E0E82EF12CEC0EFD1E65
:10087000CE010196B7010E947E058E010F5E1F4FCB
:10088000CE010596B8010E947E058985823040F030
:100890008989823028F0C701B8010E94F60501C09D
:1008A00081E06896E6E00C94DF2EACE0B0E0EBE58A
:1008B000F4E00C94C72E69837A838B839C83CE01EA
:1008C0000196BE016B5F7F4F0E947E058D81823055
:1008D00061F1823050F1843021F48E81882351F10E
:1008E0002EC02F81388537FD20C06E812F31310514
:1008F0001CF06623F9F023C08EE190E0821B930B7D
:1009000029853A854B855C8504C056954795379572
:1009100027958A95D2F76623B1F05095409530958A
:1009200021953F4F4F4F5F4F0EC020E030E040E039
:1009300050E009C02FEF3FEF4FEF5FE704C020E02A
:1009400030E040E050E8B901CA012C96E2E00C9496
:10095000E32EDF92EF92FF920F931F93FC01E4804E
:10096000F58006811781D1808081823048F480E053
:1009700090E0A0E1B0E0E82AF92A0A2B1B2BA5C0E1
:10098000843009F49FC0823021F4EE24FF248701D3
:1009900005C0E114F1040105110519F4E0E0F0E0EF
:1009A00096C0628173819FEF623879070CF05BC05B
:1009B00022E83FEF261B370B2A3131052CF020E0CF
:1009C00030E040E050E02AC0B801A701022E04C088
:1009D00076956795579547950A94D2F781E090E010
:1009E000A0E0B0E004C0880F991FAA1FBB1F2A9582
:1009F000D2F70197A109B1098E219F21A023B1232C
:100A00000097A105B10521F081E090E0A0E0B0E001
:100A10009A01AB01282B392B4A2B5B2BDA01C90138
:100A20008F779070A070B07080349105A105B105EA
:100A300039F427FF09C0205C3F4F4F4F5F4F04C080
:100A4000215C3F4F4F4F5F4FE0E0F0E02030A0E0EF
:100A50003A07A0E04A07A0E45A0710F0E1E0F0E00E
:100A600079018A0127C06038710564F5FB01E158FE
:100A7000FF4FD801C7018F779070A070B07080349D
:100A80009105A105B10539F4E7FE0DC080E490E0C1
:100A9000A0E0B0E004C08FE390E0A0E0B0E0E80E9A
:100AA000F91E0A1F1B1F17FF05C016950795F7941F
:100AB000E794319687E016950795F794E7948A9521
:100AC000D1F705C0EE24FF248701EFEFF0E06E2F91
:100AD000679566276795902F9F77D794DD24D794E5
:100AE0008E2F8695492F462B582F5D29B701CA01B5
:100AF0001F910F91FF90EF90DF900895FC01DB01B3
:100B0000408151812281622F6F7770E0221F22275E
:100B1000221F9381892F880F822B282F30E0991F65
:100B20009927991F11969C93119721153105A9F5C5
:100B3000411551056105710511F482E037C082E865
:100B40009FEF13969C938E9312979A01AB0167E0E7
:100B5000220F331F441F551F6A95D1F783E08C93F2
:100B60000DC0220F331F441F551F12968D919C916B
:100B70001397019713969C938E931297203080E0E1
:100B8000380780E0480780E4580758F314962D93FF
:100B90003D934D935C93179708952F3F310579F45A
:100BA000411551056105710519F484E08C93089590
:100BB00064FF03C081E08C9312C01C9210C02F57B9
:100BC000304013963C932E93129783E08C9387E0EA
:100BD000440F551F661F771F8A95D1F770641496CE
:100BE0004D935D936D937C93179708951F93DC014C
:100BF000FB019C91923008F447C08081823008F458
:100C000043C0943051F411961C91843099F5818140
:100C1000682F70E0611B71093FC0843021F0923071
:100C200031F48230B9F18181882389F12DC0119688
:100C30001C9111978230F1F081811817D9F4129626
:100C40002D913C911397828193818217930794F0A1
:100C500028173907BCF014968D919D910D90BC9189
:100C6000A02D2481358146815781281739074A07ED
:100C70005B0718F4112341F00AC082179307A407F9
:100C8000B50740F4112319F061E070E005C06FEF83
:100C90007FEF02C060E070E0CB011F910895DF9309
:100CA000CF93CDB7DEB70E94682381E064E041E0D6
:100CB0000E94482881E064E040E00E9472290E947E
:100CC000B3150E94ED1180E060E042E00E941D1B20
:100CD00080E690E00E94101164EF71E080E090E007
:100CE0000E943E1F0E94DA148FE690E00E941011CD
:100CF00081E060E00E94BA11CF91DF910895DF9307
:100D0000CF93CDB7DEB70E94DA148FE790E00E9450
:100D1000101181E060E00E94BA118FE890E00E941B
:100D20001011CF91DF910895DF93CF9300D0CDB70D
:100D3000DEB79A83898389819A810E94F515E981BA
:100D4000FA818081813379F0E981FA81808182336F
:100D500051F0E981FA818081833329F0E981FA81B8
:100D60008081843341F70F900F90CF91DF910895E8
:100D7000DF93CF93CDB7DEB70E94DA1480EA90E01C
:100D80000E94101181E060E00E94BA118DEA90E0AB
:100D90000E941011CF91DF910895DF93CF9300D07F
:100DA000CDB7DEB78AE491E00E94F51580914A0143
:100DB0008F3FB9F08AE20E94100F80914C01882F7A
:100DC00090E020914A01FC01EF58FE4F2083809172
:100DD0004C018F5F80934C0180914D018F5F809318
:100DE0004D0180914D01853009F069C01A82198248
:100DF00017C089819A81FC01EF58FE4F20818981BB
:100E00009A81FC01EC5EFE4F8081281721F081E081
:100E100080934F010AC089819A8101969A838983C0
:100E200089819A818530910524F380914F0188232F
:100E300029F110924C0110924D0110924F010E9425
:100E4000DA148AEB90E00E94101181E060E00E94C9
:100E5000BA1189EC90E00E94101164EF71E080E01B
:100E600090E00E943E1F0E94DA148FE690E00E94FC
:100E7000101181E060E00E94BA1121C080914E0102
:100E80008823B9F40E94DA1484ED90E00E941011D6
:100E900081E060E00E94BA118FED90E00E94101195
:100EA00081E080934E0164EF71E080E090E00E9469
:100EB0003E1F0E947F068BE491E00E9494060F90F3
:100EC0000F90CF91DF910895DF93CF93CDB7DEB729
:100ED00080914B0120E531E0B9010E94C1230E94BD
:100EE000B8068BE491E00E94940680914B01813317
:100EF00041F480914B0120E531E0B9010E94C1230A
:100F00000BC080914B01823339F480914B0120E575
:100F100031E0B9010E94C123CF91DF910895DF93A1
:100F2000CF930F92CDB7DEB780914B0120E531E032
:100F3000B9010E94C1230E94DA148FEE90E00E9452
:100F4000101119828AE491E00E94F51523C08AE409
:100F500091E00E94F51580914A018F3FD9F0809170
:100F60004A018D33B9F080914A010E94100F8981A6
:100F7000882F90E09C01220F331FC901880F991F11
:100F8000880F991F820F931F982F80914A01890F14
:100F90008053898380914A018D33C9F620E531E081
:100FA0008981B9010E94C1230F90CF91DF910895EB
:100FB000DF93CF9300D0CDB7DEB780914B0120E512
:100FC00031E0B9010E94C1230E94DA148FEE90E053
:100FD0000E9410111A8219828AE491E00E94F5158C
:100FE00025C08AE491E00E94F51580914A018F3F67
:100FF000E9F080914A018D33C9F080914A010E9445
:10100000100F89819A819C01220F331FC901880F1B
:10101000991F880F991F280F391F80914A01882F27
:1010200090E0820F931FC0979A83898380914A0131
:101030008D33B9F60E94B8068BE491E00E949406C5
:1010400080914B01813371F480914B0120E531E0B7
:10105000B9010E94C123898120E531E0B9010E94D4
:10106000C12311C080914B01823369F480914B01FF
:1010700020E531E0B9010E94C123898120E531E0FA
:10108000B9010E94C1230F900F90CF91DF91089575
:10109000DF93CF93CDB7DEB780914B0120E531E0F0
:1010A000B9010E94C1230E94DA148CEF90E00E94E3
:1010B000101164EF71E080E090E00E943E1FCF913C
:1010C000DF910895DF93CF93CDB7DEB70E944F062F
:1010D0000E94CD0680914B01813319F40E94640770
:1010E000F7CF80914B01823319F40E94D807F0CFDB
:1010F00080914B01833319F40E948F07E9CF8091CF
:101100004B01843329F70E944808E2CFDF93CF9345
:1011100000D000D0CDB7DEB79B838A83198253C03D
:101120008981282F30E0C901880F991F280F391FA6
:101130008A819B81FC01E20FF31F40818981282F66
:1011400030E0C901880F991F280F391F8A819B81C0
:10115000FC01E20FF31F9181842F692F40E00E9470
:1011600048288981282F30E0C901880F991F280F4E
:10117000391F8A819B81FC01E20FF31F5081898115
:10118000282F30E0C901880F991F280F391F8A8145
:101190009B81FC01E20FF31F41818981282F30E000
:1011A000C901880F991F280F391F8A819B81FC0173
:1011B000E20FF31F9281852F642F492F0E9472291D
:1011C00089818F5F89838981823008F4A9CF0F904C
:1011D0000F900F900F90CF91DF910895DF93CF93F1
:1011E000CDB7DEB763970FB6F894DEBF0FBECDBFA5
:1011F000988B8F877A8B698BE989FA898081E98955
:10120000FA8991812F853889692FA9010E949C2A2A
:1012100080E090E0A8ECB1E48B879C87AD87BE8727
:101220006B857C858D859E8520E030E04AE755E41E
:101230000E941F02DC01CB018F839887A987BA87A0
:101240006F81788589859A8520E030E040E85FE30A
:101250000E94250488232CF481E090E09E838D83F6
:101260003FC06F81788589859A8520E03FEF4FE701
:1012700057E40E94C50318164CF56B857C858D8557
:101280009E8520E030E040E251E40E941F02DC0134
:10129000CB01BC01CD010E944900DC01CB019E8342
:1012A0008D830FC080E991E09C838B838B819C812F
:1012B0000197F1F79C838B838D819E8101979E839B
:1012C0008D838D819E81009769F714C06F81788529
:1012D00089859A850E944900DC01CB019E838D831C
:1012E0008D819E819A83898389819A810197F1F703
:1012F0009A838983E989FA898081E989FA899181C8
:101300002F853889692FA9010E949C2A63960FB600
:10131000F894DEBF0FBECDBFCF91DF910895DF936C
:10132000CF93CDB7DEB781E060E041E00E9448286E
:1013300081E061E041E00E94482881E062E041E014
:101340000E94482881E063E041E00E94482881E053
:1013500060E040E00E94722981E061E040E00E948C
:10136000722981E062E040E00E94722981E063E03E
:1013700040E00E94722981E0CF91DF910895DF93D0
:10138000CF93CDB7DEB7A5970FB6F894DEBF0FBEEB
:10139000CDBF8BA37DA36CA381E08AA38BA18130F9
:1013A00021F08BA1882309F0A5C18CA19DA121E08A
:1013B0008936920708F09EC18FE089A38CA19DA178
:1013C0002AE530E0B9010E94662ECB0198A38F8FE9
:1013D0008BA1813009F0C5C01E8EB9C08E8D882FBB
:1013E00090E09C012370307083E090E0022E02C0F8
:1013F000880F991F0A94E2F7982F89A1892389A35E
:101400008E8D882F90E0837090708330910511F459
:1014100089E089A389A1982F917081E063E0492F29
:101420000E94722989A18695982F917081E062E0CF
:10143000492F0E94722989A186958695982F9170CF
:1014400081E061E0492F0E94722989A186958695E5
:101450008695982F917081E060E0492F0E94722953
:1014600080E090E0AAEFB2E4898F9A8FAB8FBC8FB7
:10147000698D7A8D8B8D9C8D20E030E04AE755E4B4
:101480000E941F02DC01CB018D8B9E8BAF8BB88F2E
:101490006D897E898F89988D20E030E040E85FE398
:1014A0000E94250488232CF481E090E09C8B8B8B98
:1014B0003FC06D897E898F89988D20E03FEF4FE78F
:1014C00057E40E94C50318164CF5698D7A8D8B8DF3
:1014D0009C8D20E030E040E251E40E941F02DC01DC
:1014E000CB01BC01CD010E944900DC01CB019C8BEA
:1014F0008B8B0FC080E991E09A8B898B89899A89BF
:101500000197F1F79A8B898B8B899C8901979C8B2A
:101510008B8B8B899C89009769F714C06D897E89B4
:101520008F89988D0E944900DC01CB019C8B8B8BAD
:101530008B899C89988B8F878F8598890197F1F784
:10154000988B8F878FE089A38E8D8F5F8E8F8E8D86
:10155000282F30E08F8D98A12817390708F43ECF47
:10156000CAC08BA1882309F0C6C01D8EB9C08D8D5D
:10157000882F90E09C012370307083E090E0022E71
:1015800002C0880F991F0A94E2F7982F89A1892336
:1015900089A38D8D882F90E08370907083309105A2
:1015A00011F489E089A389A1982F917081E060E00E
:1015B000492F0E94722989A18695982F917081E008
:1015C00061E0492F0E94722989A186958695982FFE
:1015D000917081E062E0492F0E94722989A186956D
:1015E00086958695982F917081E063E0492F0E943F
:1015F000722980E090E0AAEFB2E48B879C87AD87E8
:10160000BE876B857C858D859E8520E030E04AE72E
:1016100055E40E941F02DC01CB018F839887A987C4
:10162000BA876F81788589859A8520E030E040E827
:101630005FE30E94250488232CF481E090E09E83E0
:101640008D833FC06F81788589859A8520E03FEF43
:101650004FE757E40E94C50318164CF56B857C854F
:101660008D859E8520E030E040E251E40E941F021B
:10167000DC01CB01BC01CD010E944900DC01CB01A2
:101680009E838D830FC080E991E09C838B838B8147
:101690009C810197F1F79C838B838D819E810197BB
:1016A0009E838D838D819E81009769F714C06F8121
:1016B000788589859A850E944900DC01CB019E834B
:1016C0008D838D819E819A83898389819A810197F7
:1016D000F1F79A8389838FE089A38D8D8F5F8D8F3A
:1016E0008D8D282F30E08F8D98A12817390708F4A9
:1016F0003ECF01C01AA28AA1A5960FB6F894DEBF0C
:101700000FBECDBFCF91DF910895DF93CF93CDB7BB
:10171000DEB72E970FB6F894DEBF0FBECDBF81E0C7
:1017200060E040E00E94722981E061E040E00E94B8
:10173000722981E062E040E00E94722981E063E06A
:1017400040E00E94722980E090E0AAEFB2E48B872B
:101750009C87AD87BE876B857C858D859E8520E0C7
:1017600030E04AE755E40E941F02DC01CB018F8381
:101770009887A987BA876F81788589859A8520E0BF
:1017800030E040E85FE30E94250488232CF481E0E8
:1017900090E09E838D833FC06F81788589859A858F
:1017A00020E03FEF4FE757E40E94C50318164CF5C1
:1017B0006B857C858D859E8520E030E040E251E49C
:1017C0000E941F02DC01CB01BC01CD010E94490037
:1017D000DC01CB019E838D830FC080E991E09C8367
:1017E0008B838B819C810197F1F79C838B838D8107
:1017F0009E8101979E838D838D819E81009769F7DD
:1018000014C06F81788589859A850E944900DC0122
:10181000CB019E838D838D819E819A83898389816B
:101820009A810197F1F79A83898381E02E960FB60A
:10183000F894DEBF0FBECDBFCF91DF910895DF9347
:10184000CF9300D00F92CDB7DEB78B8382E066E0F6
:1018500041E00E94482880E061E00E94352B81E051
:101860008A838B818A3078F582E066E041E00E94CD
:101870007229198224C08981882F90E0FC01E65DDD
:10188000FE4F40818B81882F90E0FC01E05EFE4F8F
:101890008081282F30E08981882F90E0B90102C033
:1018A000759567958A95E2F7CB01982F917080E046
:1018B000642F492F0E94722989818F5F89838981D2
:1018C0008730C8F201C01A828A810F900F900F9062
:1018D000CF91DF910895DF93CF9300D00F92CDB7D2
:1018E000DEB78A836B8381E089838A81823010F539
:1018F0008B818230F8F48A81813051F483E064E096
:1019000041E00E94482881E068E042E00E941D1BFF
:101910008B81813051F483E065E041E00E944828EA
:1019200081E067E042E00E941D1B8FE39CE90E947A
:10193000992001C0198280E00F900F900F90CF91F5
:10194000DF910895DF93CF93CDB7DEB727970FB61A
:10195000F894DEBF0FBECDBF8C836D8381E08B8397
:101960008C81833008F046C08D81853B08F042C0F1
:101970008D81882F90E0A0E0B0E028EE33E040E0D9
:1019800050E0BC01CD010E94472EDC01CB0124EBCD
:1019900030E040E050E0BC01CD010E947A2EDA0137
:1019A000C90188519C4FAF4FBF4F880F991FAA1F85
:1019B000BB1F01979A8389838C81282F30E03F8356
:1019C0002E838E819F818130910531F02E813F8160
:1019D0002230310541F00FC029813A8181E0B901FF
:1019E0000E94AC2008C029813A8180E0B9010E94A0
:1019F000AC2001C01B828B8127960FB6F894DEBF06
:101A00000FBECDBFCF91DF910895DF93CF93CDB7B8
:101A1000DEB781E00E94E32081E0CF91DF9108955D
:101A2000DF93CF93CDB7DEB7E1970FB6F894DEBF63
:101A30000FBECDBF89AB80E061E040E00E9472291B
:101A400080E060E040E00E94722989A9982F991FE8
:101A50009927991F80E066E0492F0E94722989A981
:101A60008295869586958370982F917080E065E0C9
:101A7000492F0E94722989A9829586958770982F8F
:101A8000917080E064E0492F0E94722989A98295B3
:101A90008F70982F917080E063E0492F0E94722927
:101AA00080E062E041E00E94722980E090E0A0E8DE
:101AB000BFE38DA79EA7AFA7B8AB6DA57EA58FA5E9
:101AC00098A92BEA3AEA4AEA50E40E941F02DC0194
:101AD000CB0189A79AA7ABA7BCA769A57AA58BA5B7
:101AE0009CA520E030E040E85FE30E9425048823C5
:101AF0001CF481E088A791C069A57AA58BA59CA557
:101B000020E030E04FE753E40E94C50318160CF0C4
:101B10007BC06DA57EA58FA598A920E030E04AE79F
:101B200054E40E941903DC01CB018CA39DA3AEA356
:101B3000BFA36CA17DA18EA19FA120E030E04AE768
:101B400055E40E941F02DC01CB0188A399A3AAA33C
:101B5000BBA368A179A18AA19BA120E030E040E865
:101B60005FE30E94250488232CF481E090E09F8F9E
:101B70008E8F3FC068A179A18AA19BA120E03FEF91
:101B80004FE757E40E94C50318164CF56CA17DA1E0
:101B90008EA19FA120E030E040E251E40E941F02AC
:101BA000DC01CB01BC01CD010E944900DC01CB016D
:101BB0009F8F8E8F0FC080E991E09D8F8C8F8C8DD1
:101BC0009D8D0197F1F79D8F8C8F8E8D9F8D019745
:101BD0009F8F8E8F8E8D9F8D009769F724C068A18F
:101BE00079A18AA19BA10E944900DC01CB019F8FB2
:101BF0008E8F8E8D9F8D9B8F8A8F8A8D9B8D019767
:101C0000F1F79B8F8A8F0FC069A57AA58BA59CA53C
:101C10000E944900DC01CB0188A788A5898F898DA6
:101C20008A95F1F7898F80E062E040E00E94722996
:101C300089A9869586958695982F917080E066E0B3
:101C4000492F0E94722989A986958695982F9170AF
:101C500080E065E0492F0E94722989A98695982F16
:101C6000917080E064E0492F0E94722989A9982F21
:101C7000917080E063E0492F0E94722980E062E069
:101C800041E00E94722980E090E0A0E8BFE38D8BE4
:101C90009E8BAF8BB88F6D897E898F89988D2BEA4B
:101CA0003AEA4AEA50E40E941F02DC01CB01898B28
:101CB0009A8BAB8BBC8B69897A898B899C8920E054
:101CC00030E040E85FE30E94250488231CF481E0B3
:101CD000888B91C069897A898B899C8920E030E062
:101CE0004FE753E40E94C50318160CF07BC06D89C2
:101CF0007E898F89988D20E030E04AE754E40E9485
:101D00001903DC01CB018C879D87AE87BF876C856B
:101D10007D858E859F8520E030E04AE755E40E946E
:101D20001F02DC01CB0188879987AA87BB8768855A
:101D300079858A859B8520E030E040E85FE30E945A
:101D4000250488232CF481E090E09F838E833FC09C
:101D5000688579858A859B8520E03FEF4FE757E4CA
:101D60000E94C50318164CF56C857D858E859F8570
:101D700020E030E040E251E40E941F02DC01CB0190
:101D8000BC01CD010E944900DC01CB019F838E8301
:101D90000FC080E991E09D838C838C819D810197A8
:101DA000F1F79D838C838E819F8101979F838E8322
:101DB0008E819F81009769F724C0688579858A851F
:101DC0009B850E944900DC01CB019F838E838E811D
:101DD0009F819B838A838A819B810197F1F79B83F3
:101DE0008A830FC069897A898B899C890E944900FE
:101DF000DC01CB01888B8889898389818A95F1F7F9
:101E0000898380E062E040E00E94722981E0E196EF
:101E10000FB6F894DEBF0FBECDBFCF91DF9108950E
:101E2000DF93CF93CDB7DEB7E1970FB6F894DEBF5F
:101E30000FBECDBF89AB80E061E041E00E94722916
:101E400080E060E040E00E94722989A9982F991FE4
:101E50009927991F80E066E0492F0E94722989A97D
:101E60008295869586958370982F917080E065E0C5
:101E7000492F0E94722989A9829586958770982F8B
:101E8000917080E064E0492F0E94722989A98295AF
:101E90008F70982F917080E063E0492F0E94722923
:101EA00080E062E041E00E94722980E090E0A0E8DA
:101EB000BFE38DA79EA7AFA7B8AB6DA57EA58FA5E5
:101EC00098A92BEA3AEA4AEA50E40E941F02DC0190
:101ED000CB0189A79AA7ABA7BCA769A57AA58BA5B3
:101EE0009CA520E030E040E85FE30E9425048823C1
:101EF0001CF481E088A791C069A57AA58BA59CA553
:101F000020E030E04FE753E40E94C50318160CF0C0
:101F10007BC06DA57EA58FA598A920E030E04AE79B
:101F200054E40E941903DC01CB018CA39DA3AEA352
:101F3000BFA36CA17DA18EA19FA120E030E04AE764
:101F400055E40E941F02DC01CB0188A399A3AAA338
:101F5000BBA368A179A18AA19BA120E030E040E861
:101F60005FE30E94250488232CF481E090E09F8F9A
:101F70008E8F3FC068A179A18AA19BA120E03FEF8D
:101F80004FE757E40E94C50318164CF56CA17DA1DC
:101F90008EA19FA120E030E040E251E40E941F02A8
:101FA000DC01CB01BC01CD010E944900DC01CB0169
:101FB0009F8F8E8F0FC080E991E09D8F8C8F8C8DCD
:101FC0009D8D0197F1F79D8F8C8F8E8D9F8D019741
:101FD0009F8F8E8F8E8D9F8D009769F724C068A18B
:101FE00079A18AA19BA10E944900DC01CB019F8FAE
:101FF0008E8F8E8D9F8D9B8F8A8F8A8D9B8D019763
:10200000F1F79B8F8A8F0FC069A57AA58BA59CA538
:102010000E944900DC01CB0188A788A5898F898DA2
:102020008A95F1F7898F80E062E040E00E94722992
:1020300089A9869586958695982F917080E066E0AF
:10204000492F0E94722989A986958695982F9170AB
:1020500080E065E0492F0E94722989A98695982F12
:10206000917080E064E0492F0E94722989A9982F1D
:10207000917080E063E0492F0E94722980E062E065
:1020800041E00E94722980E090E0A0E8BFE38D8BE0
:102090009E8BAF8BB88F6D897E898F89988D2BEA47
:1020A0003AEA4AEA50E40E941F02DC01CB01898B24
:1020B0009A8BAB8BBC8B69897A898B899C8920E050
:1020C00030E040E85FE30E94250488231CF481E0AF
:1020D000888B91C069897A898B899C8920E030E05E
:1020E0004FE753E40E94C50318160CF07BC06D89BE
:1020F0007E898F89988D20E030E04AE754E40E9481
:102100001903DC01CB018C879D87AE87BF876C8567
:102110007D858E859F8520E030E04AE755E40E946A
:102120001F02DC01CB0188879987AA87BB87688556
:1021300079858A859B8520E030E040E85FE30E9456
:10214000250488232CF481E090E09F838E833FC098
:10215000688579858A859B8520E03FEF4FE757E4C6
:102160000E94C50318164CF56C857D858E859F856C
:1021700020E030E040E251E40E941F02DC01CB018C
:10218000BC01CD010E944900DC01CB019F838E83FD
:102190000FC080E991E09D838C838C819D810197A4
:1021A000F1F79D838C838E819F8101979F838E831E
:1021B0008E819F81009769F724C0688579858A851B
:1021C0009B850E944900DC01CB019F838E838E8119
:1021D0009F819B838A838A819B810197F1F79B83EF
:1021E0008A830FC069897A898B899C890E944900FA
:1021F000DC01CB01888B8889898389818A95F1F7F5
:10220000898380E062E040E00E94722981E0E196EB
:102210000FB6F894DEBF0FBECDBFCF91DF9108950A
:10222000DF93CF9300D000D0CDB7DEB79C838B83F4
:1022300081E08A838B819C810097E1F019820EC036
:102240008981282F30E08B819C81FC01E20FF31FF4
:1022500080810E94100F89818F5F89838981282F57
:1022600030E08B819C81FC01E20FF31F8081882389
:1022700039F701C01A828A810F900F900F900F904A
:10228000CF91DF9108950F931F93DF93CF93CDB735
:10229000DEB760970FB6F894DEBF0FBECDBF6D8777
:1022A0007E878F87988B1A8219828D859E85AF8550
:1022B000B8890097A105B10589F580E30E94100F48
:1022C0004DC08A81082F10E08D859E85AF85B88925
:1022D0002AE030E040E050E0BC01CD010E947A2EBF
:1022E000DC01CB01282FCE010396FC01E00FF11F8A
:1022F00020838D859E85AF85B8892AE030E040E057
:1023000050E0BC01CD010E947A2EDA01C9018D870F
:102310009E87AF87B88B8A818F5F8A838D859E85E4
:10232000AF85B8890097A105B10559F68A8181501A
:10233000898311C08981282F332727FD3095CE014D
:102340000396FC01E20FF31F8081805D0E94100F55
:102350008981815089838981882364F781E060962F
:102360000FB6F894DEBF0FBECDBFCF91DF911F91A6
:102370000F910895DF93CF9300D000D00F92CDB787
:10238000DEB78A836B8381E089838B818832D8F4BE
:102390008A81282F30E03D832C838C819D8100979A
:1023A00031F02C813D812130310531F00AC08B8123
:1023B00080580E94100D08C08B8180540E94100D1F
:1023C00003C0198201C0198289810F900F900F906C
:1023D0000F900F90CF91DF9108950F931F93DF938C
:1023E000CF93CDB7DEB7CC54D0400FB6F894DEBF54
:1023F0000FBECDBF80E061E041E00E94482880E050
:1024000060E041E00E94482880E062E041E00E94F4
:10241000482880E066E041E00E94482880E065E0CE
:1024200041E00E94482880E064E041E00E944828A2
:1024300080E063E041E00E944828FE01E75BFF4F37
:1024400080E090E0ACE0B2E480839183A283B38328
:102450008E010B5B1F4FFE01E75BFF4F60817181B7
:102460008281938120E030E04AE755E40E941F0218
:10247000DC01CB01F80180839183A283B383FE0149
:10248000EB5BFF4F608171818281938120E030E0BE
:1024900040E85FE30E942504882344F4FE01ED5BDD
:1024A000FF4F81E090E09183808364C0FE01EB5B8D
:1024B000FF4F608171818281938120E03FEF4FE780
:1024C00057E40E94C50318160CF043C0FE01E75BF9
:1024D000FF4F608171818281938120E030E040E292
:1024E00051E40E941F02DC01CB018E010D5B1F4FE6
:1024F000BC01CD010E944900DC01CB01F8019183B0
:1025000080831FC0FE01EF5BFF4F80E991E0918364
:102510008083FE01EF5BFF4F808191810197F1F78E
:10252000FE01EF5BFF4F91838083DE01AD5BBF4F08
:10253000FE01ED5BFF4F80819181019711969C9385
:102540008E93FE01ED5BFF4F808191810097D1F664
:1025500024C08E010D5B1F4FFE01EB5BFF4F6081BE
:102560007181828193810E944900DC01CB01F801D5
:1025700091838083FE01ED5BFF4F80819181FE019D
:10258000FF9691838083FE01FF9680819181019760
:10259000F1F7FE01FF969183808383E30E94100D83
:1025A00082E30E94100D88E20E94100D80E090E00E
:1025B000A0E2B2E48BAF9CAFADAFBEAF6BAD7CAD74
:1025C0008DAD9EAD2BEA3AEA4AEA50E40E941F0222
:1025D000DC01CB018FAB98AFA9AFBAAF6FA978ADD3
:1025E00089AD9AAD20E030E040E85FE30E94250429
:1025F00088231CF481E08EAB91C06FA978AD89ADC2
:102600009AAD20E030E04FE753E40E94C50318166E
:102610000CF07BC06BAD7CAD8DAD9EAD20E030E0AD
:102620004AE754E40E941903DC01CB018AAB9BAB5F
:10263000ACABBDAB6AA97BA98CA99DA920E030E019
:102640004AE755E40E941F02DC01CB018EA79FA739
:10265000A8ABB9AB6EA57FA588A999A920E030E009
:1026600040E85FE30E94250488232CF481E090E099
:102670009DA78CA73FC06EA57FA588A999A920E03A
:102680003FEF4FE757E40E94C50318164CF56AA9BF
:102690007BA98CA99DA920E030E040E251E40E9492
:1026A0001F02DC01CB01BC01CD010E944900DC010D
:1026B000CB019DA78CA70FC080E991E09BA78AA7BB
:1026C0008AA59BA50197F1F79BA78AA78CA59DA535
:1026D00001979DA78CA78CA59DA5009769F724C09D
:1026E0006EA57FA588A999A90E944900DC01CB01AC
:1026F0009DA78CA78CA59DA599A788A788A599A516
:102700000197F1F799A788A70FC06FA978AD89AD98
:102710009AAD0E944900DC01CB018EAB8EA98FA33C
:102720008FA18A95F1F78FA38FE00E94100D80E0B2
:1027300090E0A0E2B2E48BA39CA3ADA3BEA36BA1E7
:102740007CA18DA19EA12BEA3AEA4AEA50E40E94BC
:102750001F02DC01CB018F8F98A3A9A3BAA36F8DB1
:1027600078A189A19AA120E030E040E85FE30E94CF
:10277000250488231CF481E08E8F91C06F8D78A191
:1027800089A19AA120E030E04FE753E40E94C503FD
:1027900018160CF07BC06BA17CA18DA19EA120E03E
:1027A00030E04AE754E40E941903DC01CB018A8F30
:1027B0009B8FAC8FBD8F6A8D7B8D8C8D9D8D20E026
:1027C00030E04AE755E40E941F02DC01CB018E8B0A
:1027D0009F8BA88FB98F6E897F89888D998D20E016
:1027E00030E040E85FE30E94250488232CF481E078
:1027F00090E09D8B8C8B3FC06E897F89888D998DF1
:1028000020E03FEF4FE757E40E94C50318164CF550
:102810006A8D7B8D8C8D9D8D20E030E040E251E40F
:102820000E941F02DC01CB01BC01CD010E944900C6
:10283000DC01CB019D8B8C8B0FC080E991E09B8BE1
:102840008A8B8A899B890197F1F79B8B8A8B8C896C
:102850009D8901979D8B8C8B8C899D89009769F749
:1028600024C06E897F89888D998D0E944900DC0182
:10287000CB019D8B8C8B8C899D89998B888B8889CA
:1028800099890197F1F7998B888B0FC06F8D78A18B
:1028900089A19AA10E944900DC01CB018E8F8E8D07
:1028A0008F878F858A95F1F78F8781E00E94100DC1
:1028B00080E090E0A0E0B0E48B879C87AD87BE8786
:1028C0006B857C858D859E8520E030E04AE755E468
:1028D0000E941F02DC01CB018F839887A987BA87EA
:1028E0006F81788589859A8520E030E040E85FE354
:1028F0000E94250488232CF481E090E09E838D8340
:102900003FC06F81788589859A8520E03FEF4FE74A
:1029100057E40E94C50318164CF56B857C858D85A0
:102920009E8520E030E040E251E40E941F02DC017D
:10293000CB01BC01CD010E944900DC01CB019E838B
:102940008D830FC080E991E09C838B838B819C8178
:102950000197F1F79C838B838D819E8101979E83E4
:102960008D838D819E81009769F714C06F81788572
:1029700089859A850E944900DC01CB019E838D8365
:102980008D819E819A83898389819A810197F1F74C
:102990009A83898386E00E94100D81E0C45BDF4F3B
:1029A0000FB6F894DEBF0FBECDBFCF91DF911F9160
:1029B0000F910895DF93CF93CDB7DEB72E970FB663
:1029C000F894DEBF0FBECDBF81E00E94100D80E005
:1029D00090E0A0E0B0E48B879C87AD87BE876B85D5
:1029E0007C858D859E8520E030E04AE755E40E9495
:1029F0001F02DC01CB018F839887A987BA876F817B
:102A0000788589859A8520E030E040E85FE30E9480
:102A1000250488232CF481E090E09E838D833FC0C1
:102A20006F81788589859A8520E03FEF4FE757E4ED
:102A30000E94C50318164CF56B857C858D859E8597
:102A400020E030E040E251E40E941F02DC01CB01B3
:102A5000BC01CD010E944900DC01CB019E838D8326
:102A60000FC080E991E09C838B838B819C810197CF
:102A7000F1F79C838B838D819E8101979E838D834B
:102A80008D819E81009769F714C06F817885898553
:102A90009A850E944900DC01CB019E838D838D8144
:102AA0009E819A83898389819A810197F1F79A831C
:102AB000898381E02E960FB6F894DEBF0FBECDBF9E
:102AC000CF91DF910895DF93CF93CDB7DEB72797EE
:102AD0000FB6F894DEBF0FBECDBF8B837D836C83B2
:102AE0004E832F8381E08A838C819D81009781F1C1
:102AF0008B81883068F58E81823050F58F818832E5
:102B000038F58B81882F90E00896880F991F880FE1
:102B1000991F880F991F0E94100D19820EC089817C
:102B2000282F30E08C819D81FC01E20FF31F808112
:102B30000E94100F89818F5F89838981883078F3A3
:102B40008E816F810E94BA118B810E94100F01C08B
:102B50001A828A8127960FB6F894DEBF0FBECDBFCA
:102B6000CF91DF910895DF93CF930F92CDB7DEB76A
:102B7000198233C08981882F90E0FC01EF5BFE4F02
:102B8000908182E0692F41E00E9448288981882F46
:102B900090E0FC01EF5BFE4F908182E0692F41E005
:102BA0000E9472298981882F90E0FC01EB5BFE4F27
:102BB000908182E0692F40E00E9448288981882F17
:102BC00090E0FC01EB5BFE4F908182E0692F41E0D9
:102BD0000E94722989818F5F89838981843050F2B4
:102BE00081E00F90CF91DF910895DF93CF93CDB720
:102BF000DEB765970FB6F894DEBF0FBECDBF9D8BD5
:102C00008C8B81E08A8B1B8A1F868C899D8900971B
:102C100009F4F0C0EC89FD898FEF8083198AE5C043
:102C20008989882F90E0FC01EF5BFE4F908182E064
:102C3000692F40E00E947229188AC1C08889882FB4
:102C400090E0FC01EB5BFE4F90819E012D5E3F4FBB
:102C500082E0692FA9010E949C2A8B89882309F0B0
:102C6000ABC080E090E0A0EAB1E48B879C87AD87A1
:102C7000BE876B857C858D859E8520E030E04AE7A8
:102C800055E40E941F02DC01CB018F839887A9873E
:102C9000BA876F81788589859A8520E030E040E8A1
:102CA0005FE30E94250488232CF481E090E09E835A
:102CB0008D833FC06F81788589859A8520E03FEFBD
:102CC0004FE757E40E94C50318164CF56B857C85C9
:102CD0008D859E8520E030E040E251E40E941F0295
:102CE000DC01CB01BC01CD010E944900DC01CB011C
:102CF0009E838D830FC080E991E09C838B838B81C1
:102D00009C810197F1F79C838B838D819E81019734
:102D10009E838D838D819E81009769F714C06F819A
:102D2000788589859A850E944900DC01CB019E83C4
:102D30008D838D819E819A83898389819A81019770
:102D4000F1F79A8389838889882F90E0FC01EB5BF7
:102D5000FE4F90819E012D5E3F4F82E0692FA901B9
:102D60000E949C2A0FC08889882F90E0FC01EB5BB1
:102D7000FE4F90819E012D5E3F4F82E0692FA90199
:102D80000E949C2A8B89882371F38989482F50E0FF
:102D90008889282F30E0CA01880F991F880F991F52
:102DA000820F931FFC01EF5CFE4F8081EC89FD894F
:102DB000808381E08F8707C088898F5F888B8889AF
:102DC000843008F43BCF8989882F90E0FC01EF5BC9
:102DD000FE4F908182E0692F41E00E9472298F8529
:102DE000882349F489898F5F898B8989843008F425
:102DF00017CF01C01A8A8A8965960FB6F894DEBF8C
:102E00000FBECDBFCF91DF910895DF93CF93CDB7A4
:102E1000DEB761970FB6F894DEBF0FBECDBF988BBB
:102E20008F87698B0E943A248F859889892F9927EB
:102E300080652F85622F0E94612488EE93E0698966
:102E40000E9461240E944B2480E090E0A0E2B1E463
:102E50008B879C87AD87BE876B857C858D859E859E
:102E600020E030E04AE755E40E941F02DC01CB017C
:102E70008F839887A987BA876F81788589859A8596
:102E800020E030E040E85FE30E94250488232CF432
:102E900081E090E09E838D833FC06F817885898536
:102EA0009A8520E03FEF4FE757E40E94C5031816CC
:102EB0004CF56B857C858D859E8520E030E040E279
:102EC00051E40E941F02DC01CB01BC01CD010E9434
:102ED0004900DC01CB019E838D830FC080E991E026
:102EE0009C838B838B819C810197F1F79C838B83DF
:102EF0008D819E8101979E838D838D819E81009718
:102F000069F714C06F81788589859A850E94490088
:102F1000DC01CB019E838D838D819E819A83898381
:102F200089819A810197F1F79A83898381E061967B
:102F30000FB6F894DEBF0FBECDBFCF91DF910895DD
:102F4000DF93CF9300D000D00F92CDB7DEB79B8335
:102F50008A837D836C8381E089838C819D81009746
:102F6000D1F00E943A248A819B81892F992780651C
:102F70002A81622F0E9461240E943A248A819B81C7
:102F8000892F992780652C813D81B9010E94922467
:102F90000E944B2401C0198289810F900F900F90DD
:102FA0000F900F90CF91DF910895DF93CF9300D0D2
:102FB0000F92CDB7DEB78A836B8381E089838A81E4
:102FC000813019F08A81882359F58B81813019F07D
:102FD0008B81882329F58A81813079F482E064E04D
:102FE00041E00E94482882E060E041E00E944828D9
:102FF00082E061E041E00E9448288B81813089F4C1
:1030000082E065E041E00E94482882E062E041E021
:103010000E94482882E063E041E00E94482801C005
:10302000198289810F900F900F90CF91DF910895B1
:10303000DF93CF93CDB7DEB729970FB6F894DEBFF5
:103040000FBECDBF8A836B8381E089838A81282F5D
:1030500030E03987288788859985009731F0288561
:1030600039852130310589F160C08B81282F30E00E
:103070003F832E838E819F810097A9F02E813F810F
:103080002130310501F582E064E041E00E947229BF
:1030900082E060E041E00E94722982E061E040E06D
:1030A0000E94722943C082E064E041E00E947229DC
:1030B00082E060E040E00E94722982E061E041E04D
:1030C0000E94722933C0198231C08B81282F30E0D1
:1030D0003D832C838C819D810097A9F02C813D81BB
:1030E0002130310501F582E065E041E00E9472295E
:1030F00082E062E041E00E94722982E063E040E009
:103100000E94722913C082E065E041E00E947229AA
:1031100082E062E040E00E94722982E063E041E0E8
:103120000E94722903C0198201C0198289812996DF
:103130000FB6F894DEBF0FBECDBFCF91DF910895DB
:10314000DF93CF9300D0CDB7DEB78A8381E0898348
:103150008A81882331F482E064E040E00E94722991
:103160000AC08A81813031F482E065E040E00E944B
:10317000722901C0198289810F900F90CF91DF9140
:103180000895DF93CF9300D0CDB7DEB78A8381E077
:1031900089838A81883080F4A1E4B0E0E1E4F0E042
:1031A00090818A81892B8C93A1E4B0E0E1E4F0E086
:1031B000808188608C9301C0198289810F900F9063
:1031C000CF91DF910895DF93CF93CDB7DEB7A1E420
:1031D000B0E0E1E4F0E0808188618C93E1E4F0E02C
:1031E000108281E0CF91DF910895DF93CF9300D0DB
:1031F00000D0CDB7DEB71B821A8280E88983ABE2AC
:10320000B0E0EBE2F0E080818D7F8C9389818F7B51
:10321000898387E690E09B838A838981877F89837E
:10322000AAE2B0E0EAE2F0E080818B7F8C938981B2
:103230008460898389818260898389818F7D898384
:1032400089818F7E8983E0E4F0E089818083E9E2EF
:10325000F0E08A818083E0E4F0E08A819B81892F1D
:1032600099278083AAE2B0E0EAE2F0E08081806101
:103270008C93AAE2B0E0EAE2F0E0808188608C936F
:103280000F900F900F900F90CF91DF910895DF93E3
:10329000CF9300D0CDB7DEB78983EBE2F0E0808139
:1032A000829586958770882F90E081709070009746
:1032B000A1F3ECE2F0E0898180830F900F90CF9131
:1032C000DF910895DF93CF9300D00F92CDB7DEB793
:1032D0009B838A8381E089838A819B81009761F047
:1032E000EBE2F0E080818823DCF7ECE2F0E0808123
:1032F000EA81FB81808301C0198289810F900F9040
:103300000F90CF91DF910895DF93CF9300D000D03D
:10331000CDB7DEB79C838B8381E08A838B819C81D0
:103320000097C9F119821BC0EBE2F0E08081829521
:1033300086958770882F90E0817090700097A1F338
:10334000ACE2B0E08981282F30E08B819C81FC01C8
:10335000E20FF31F80818C9389818F5F898389813C
:10336000282F30E08B819C81FC01E20FF31F8081CC
:103370008823D1F6EBE2F0E0808182958695877014
:10338000882F90E0817090700097A1F3ECE2F0E05C
:103390008DE0808301C01A828A810F900F900F9078
:1033A0000F90CF91DF910895DF93CF9300D000D09D
:1033B0000F92CDB7DEB79C838B836D831A8281E039
:1033C00089838B819C81009719F114C0EBE2F0E0B6
:1033D00080818823DCF78A81282F30E08B819C81D3
:1033E000DC01A20FB31FECE2F0E080818C938A81B4
:1033F0008F5F8A839A818D81981740F38A81282F65
:1034000030E08B819C81FC01E20FF31F108201C030
:10341000198289810F900F900F900F900F90CF918C
:10342000DF9108950F931F93DF93CF93CDB7DEB74E
:1034300061970FB6F894DEBF0FBECDBF6E877F8752
:10344000888B998B1B821A8219828E859F85A88909
:10345000B989BB238CF48E859F85A889B989B095DD
:10346000A095909581959F4FAF4FBF4F8E879F87B7
:10347000A88BB98B81E08A838E859F85A889B989BD
:103480000097A105B105A9F580E30E9447198DE0D9
:103490000E94471960C08B81082F10E08E859F85A0
:1034A000A889B9892AE030E040E050E0BC01CD01B4
:1034B0000E949C2EDC01CB01282F205DCE010496BA
:1034C000FC01E00FF11F20838E859F85A889B989B3
:1034D0002AE030E040E050E0BC01CD010E949C2E8B
:1034E000DA01C9018E879F87A88BB98B8B818F5F8B
:1034F0008B838E859F85A889B9890097A105B10521
:1035000051F68A81882369F08B81282F30E0CE0123
:103510000496FC01E20FF31F8DE280838B818F5FA5
:103520008B838B818150898310C08981282F332719
:1035300027FD3095CE010496FC01E20FF31F808138
:103540000E944719898181508983898188236CF77A
:103550008DE00E94471981E061960FB6F894DEBFB6
:103560000FBECDBFCF91DF911F910F9108951F9294
:103570000F920FB60F9211242F933F934F935F93A7
:103580006F937F938F939F93AF93BF93EF93FF932B
:10359000DF93CF93CDB7DEB7809153019091540163
:1035A000009729F0E0915301F09154010995CF91D2
:1035B000DF91FF91EF91BF91AF919F918F917F919B
:1035C0006F915F914F913F912F910F900FBE0F9090
:1035D0001F9018951F920F920FB60F9211242F93E0
:1035E0003F934F935F936F937F938F939F93AF938B
:1035F000BF93EF93FF93DF93CF93CDB7DEB7809167
:10360000510190915201009729F0E0915301F091FE
:1036100054010995CF91DF91FF91EF91BF91AF9147
:103620009F918F917F916F915F914F913F912F91DA
:103630000F900FBE0F901F901895DF93CF93CDB7CB
:10364000DEB72C970FB6F894DEBF0FBECDBF8A83CE
:103650006B834C8381E089838A81833008F0CAC2FE
:103660008B81893008F0C6C28C81883008F0C2C2D4
:103670008A81282F30E03C872B878B859C85813081
:10368000910509F4D5C02B853C852230310509F41C
:10369000EAC18B859C85009709F0ADC28B81282FEC
:1036A00030E03A87298789859A858330910509F426
:1036B00040C029853A852430310554F489859A859E
:1036C0000097C9F029853A852130310519F1A4C048
:1036D00089859A858530910509F465C029853A85E3
:1036E000253031050CF442C089859A8586309105D4
:1036F00009F476C091C0A3E5B0E0E3E5F0E0808195
:103700008F7B8C93A3E5B0E0E3E5F0E08081877FD9
:103710008C9382C0A3E5B0E0E3E5F0E080818F7B8D
:103720008C93A3E5B0E0E3E5F0E0808188608C93C2
:1037300073C0A3E5B0E0E3E5F0E0808180648C93A2
:10374000A3E5B0E0E3E5F0E0808188608C93A3E539
:10375000B0E0E3E5F0E0808180628C93A3E5B0E027
:10376000E3E5F0E0808180618C9356C0A3E5B0E092
:10377000E3E5F0E0808180648C93A3E5B0E0E3E5CD
:10378000F0E0808188608C93A3E5B0E0E3E5F0E0B1
:10379000808180628C93A3E5B0E0E3E5F0E0808176
:1037A0008F7E8C9339C0A3E5B0E0E3E5F0E0808143
:1037B00080648C93A3E5B0E0E3E5F0E08081877F4F
:1037C0008C93A3E5B0E0E3E5F0E0808180628C9328
:1037D000A3E5B0E0E3E5F0E0808180618C931CC05C
:1037E000A3E5B0E0E3E5F0E0808180648C93A3E59D
:1037F000B0E0E3E5F0E08081877F8C93A3E5B0E063
:10380000E3E5F0E0808180628C93A3E5B0E0E3E53E
:10381000F0E080818F7E8C93A3E5B0E0E3E5F0E0FB
:1038200090818C81892B8C938C8180936701E3C17B
:103830008B81282F30E038872F838F8198858730C0
:10384000910509F45CC02F8138852830310554F486
:103850008F8198850097C9F02F81388521303105F7
:1038600089F1F8C08F8198858930910509F49DC050
:103870002F813885293031050CF46CC08F819885F3
:103880008A30910509F4BCC0E5C0AFE4B0E0EFE4D4
:10389000F0E080818E7F8C93AFE4B0E0EFE4F0E065
:1038A00080818D7F8C93AEE4B0E0EEE4F0E0808127
:1038B000877F8C93AEE4B0E0EEE4F0E080818F7E11
:1038C0008C93C8C0AFE4B0E0EFE4F0E080818E7F7D
:1038D0008C93AFE4B0E0EFE4F0E080818D7F8C93D7
:1038E000AEE4B0E0EEE4F0E0808188608C93AEE47A
:1038F000B0E0EEE4F0E080818F7E8C93ABC0AFE46B
:10390000B0E0EFE4F0E080818E7F8C93AFE4B0E034
:10391000EFE4F0E0808182608C93AEE4B0E0EEE40E
:10392000F0E0808188608C93AEE4B0E0EEE4F0E0FB
:10393000808180618C93AFE4B0E0EFE4F0E08081BF
:1039400080688C93AFE4B0E0EFE4F0E080818F7B9F
:103950008C9380C0AFE4B0E0EFE4F0E080818E7F34
:103960008C93AFE4B0E0EFE4F0E0808182608C9370
:10397000AEE4B0E0EEE4F0E0808188608C93AEE4E9
:10398000B0E0EEE4F0E0808180618C93AFE4B0E0E1
:10399000EFE4F0E0808180628C93AFE4B0E0EFE48C
:1039A000F0E080818F7E8C9355C0AFE4B0E0EFE40F
:1039B000F0E0808181608C93AFE4B0E0EFE4F0E070
:1039C000808182608C93AEE4B0E0EEE4F0E0808130
:1039D000877F8C93AEE4B0E0EEE4F0E0808180611C
:1039E0008C93AFE4B0E0EFE4F0E0808180688C93EA
:1039F000AFE4B0E0EFE4F0E080818F7B8C932AC0ED
:103A0000AFE4B0E0EFE4F0E0808181608C93AFE45C
:103A1000B0E0EFE4F0E0808182608C93AEE4B0E04F
:103A2000EEE4F0E08081877F8C93AEE4B0E0EEE4DA
:103A3000F0E0808180618C93AFE4B0E0EFE4F0E0EF
:103A4000808180628C93AFE4B0E0EFE4F0E08081AD
:103A50008F7E8C93AEE4B0E0EEE4F0E090818C8158
:103A6000892B8C93C8C08B81282F30E03E832D8317
:103A70008D819E818330910509F440C02D813E8166
:103A80002430310554F48D819E810097C9F02D8139
:103A90003E812130310519F1A4C08D819E81853090
:103AA000910509F465C02D813E81253031050CF466
:103AB00042C08D819E818630910509F476C091C007
:103AC000A5E4B0E0E5E4F0E080818F7B8C93A5E491
:103AD000B0E0E5E4F0E08081877F8C9382C0A5E4CC
:103AE000B0E0E5E4F0E080818F7B8C93A5E4B0E06A
:103AF000E5E4F0E0808188608C9373C0A5E4B0E0D9
:103B0000E5E4F0E0808180648C93A5E4B0E0E5E436
:103B1000F0E0808188608C93A5E4B0E0E5E4F0E01B
:103B2000808180628C93A5E4B0E0E5E4F0E08081E0
:103B300080618C9356C0A5E4B0E0E5E4F0E08081BC
:103B400080648C93A5E4B0E0E5E4F0E080818860D7
:103B50008C93A5E4B0E0E5E4F0E0808180628C9392
:103B6000A5E4B0E0E5E4F0E080818F7E8C9339C07D
:103B7000A5E4B0E0E5E4F0E0808180648C93A5E406
:103B8000B0E0E5E4F0E08081877F8C93A5E4B0E0CD
:103B9000E5E4F0E0808180628C93A5E4B0E0E5E4A8
:103BA000F0E0808180618C931CC0A5E4B0E0E5E486
:103BB000F0E0808180648C93A5E4B0E0E5E4F0E07F
:103BC0008081877F8C93A5E4B0E0E5E4F0E080811C
:103BD00080628C93A5E4B0E0E5E4F0E080818F7E24
:103BE0008C93A5E4B0E0E5E4F0E090818C81892B32
:103BF0008C9301C0198289812C960FB6F894DEBF90
:103C00000FBECDBFCF91DF910895DF93CF93CDB796
:103C1000DEB72F970FB6F894DEBF0FBECDBF8A83F5
:103C20007C836B834D8381E089831F868A81833007
:103C300010F421E02F871E868B819C81009711F064
:103C400031E03E878F859E85892391E089278823EF
:103C500009F0A6C08D81833008F0A2C08A81282F88
:103C600030E03D872C878C859D8581309105B1F1B1
:103C70002C853D852230310509F467C08C859D85F2
:103C8000009709F08EC08D81282F30E03B872A876E
:103C90008A859B85009731F02A853B852130310547
:103CA00049F00FC0A9E5B0E0E9E5F0E0808181606E
:103CB0008C9307C0A9E5B0E0E9E5F0E0808182607F
:103CC0008C938D81882F90E0880F991FFC01E95A11
:103CD000FE4F8B819C819183808363C08D81282FCF
:103CE00030E039872887888599858130910589F06A
:103CF0002885398522303105A1F08885998500977E
:103D0000B9F4A9E5B0E0E9E5F0E0808184608C9346
:103D10000FC0A9E5B0E0E9E5F0E0808180618C9317
:103D200007C0A9E5B0E0E9E5F0E0808188608C9308
:103D30008D81882F90E0880F991FFC01E55AFE4F76
:103D40008B819C81918380832CC08D81282F30E0D2
:103D50003F832E838E819F81009731F02E813F819A
:103D60002130310549F00FC0A9E5B0E0E9E5F0E008
:103D7000808180648C9307C0A9E5B0E0E9E5F0E0BC
:103D8000808180688C938D81882F90E0880F991FA7
:103D9000FC01ED59FE4F8B819C819183808301C092
:103DA000198289812F960FB6F894DEBF0FBECDBF62
:103DB000CF91DF910895DF93CF9300D000D00F9281
:103DC000CDB7DEB78A836B8381E089838B818830AE
:103DD00008F04AC08A81833008F046C08A81282FC3
:103DE00030E03D832C838C819D8181309105E1F011
:103DF0002C813D812230310539F18C819D810097E4
:103E0000A1F5A3E5B0E0E3E5F0E08081887F8C9345
:103E1000A3E5B0E0E3E5F0E090818B81892B8C9302
:103E20008B818093670121C0AEE4B0E0EEE4F0E066
:103E30008081887F8C93AEE4B0E0EEE4F0E0908186
:103E40008B81892B8C9311C0A5E4B0E0E5E4F0E010
:103E50008081887F8C93A5E4B0E0E5E4F0E0908178
:103E60008B81892B8C9301C0198289810F900F90CF
:103E70000F900F900F90CF91DF910895EF92FF92E6
:103E80000F931F93DF93CF93CDB7DEB72C970FB669
:103E9000F894DEBF0FBECDBF69877A878B879C877A
:103EA000A3E5B0E0E3E5F0E0908180916701892B24
:103EB0008C9380E890E098878F8389859A85AB857D
:103EC000BC8528EE33E040E050E0BC01CD010E940B
:103ED000472E7B018C018F8198859C0140E050E04A
:103EE000C801B7010E947A2EDA01C9019E838D8331
:103EF00089859A85AB85BC8528EE33E040E050E0AB
:103F0000BC01CD010E94472E7B018C018F819885D9
:103F10009C0140E050E0C801B7010E947A2EDC010C
:103F2000CB0120E034E244EF50E0BC01CD010E941F
:103F3000472EDC01CB0120E032E14AE750E0BC0132
:103F4000CD010E947A2EDA01C9019C838B83E2E5C0
:103F5000F0E08B81819580831A82198215C0A8E5D3
:103F6000B0E0E8E5F0E0808181608C9389819A81FE
:103F700001969A838983E8E5F0E08081882F90E0BC
:103F800081709070882359F78D819E819C012F5FED
:103F90003F4F89819A812817390769F7A3E5B0E077
:103FA000E3E5F0E08081887F8C9381E02C960FB66A
:103FB000F894DEBF0FBECDBFCF91DF911F910F915F
:103FC000FF90EF900895DF93CF9300D000D000D002
:103FD000CDB7DEB78A837C836B8381E089838A8156
:103FE000833020F58A81282F30E03E832D838D8118
:103FF0009E818130910571F02D813E812230310505
:1040000081F08D819E81009791F4E2E5F0E08B8153
:1040100080830DC0ECE4F0E08B819C8191838083F0
:1040200006C0E4E4F0E08B81808301C019828981BD
:1040300026960FB6F894DEBF0FBECDBFCF91DF91AD
:104040000895DF93CF9300D000D000D0CDB7DEB776
:104050008A837C836B8381E089838A81833080F5C6
:104060008A81282F30E03E832D838D819E8181308F
:10407000910599F02D813E8122303105B9F08D8175
:104080009E810097F1F4E2E5F0E08081882F90E0D6
:10409000EB81FC819183808314C0ECE4F0E08081AB
:1040A0009181EB81FC81918380830BC0E4E4F0E09B
:1040B0008081882F90E0EB81FC819183808301C017
:1040C0001982898126960FB6F894DEBF0FBECDBF48
:1040D000CF91DF910895DF93CF9300D000D00F925E
:1040E000CDB7DEB78A836B8381E089838A81282FED
:1040F00030E03D832C838C819D81009731F02C81B1
:104100003D812230310531F00AC0ECE5F0E08B81D1
:10411000808306C0E3E4F0E08B81808301C01982D4
:1041200089810F900F900F900F900F90CF91DF919A
:104130000895DF93CF9300D0CDB7DEB79A838983FC
:10414000E6E4F0E089819A819183808381E00F9099
:104150000F90CF91DF910895DF93CF9300D000D0DF
:1041600000D0CDB7DEB78A837C836B8381E08983FF
:104170008A818230E8F48A81282F30E03E832D83C3
:104180008D819E81009731F02D813E812130310556
:1041900041F00FC0EAE4F0E08B819C819183808341
:1041A00008C0E8E4F0E08B819C819183808301C0AA
:1041B0001982898126960FB6F894DEBF0FBECDBF57
:1041C000CF91DF910895DF93CF9300D000D0CDB78A
:1041D000DEB78A8381E089838A81833008F04DC00D
:1041E0008A81282F30E03C832B838B819C81813016
:1041F0009105C9F0EB81FC81E230F10579F12B8169
:104200003C8121153105D1F5A3E5B0E0E3E5F0E00F
:104210008081887F8C93A2E5B0E0ECE5F0E010822D
:1042200080818C932BC0AEE4B0E0EEE4F0E08081BE
:10423000887F8C932CE430E0AAE4B0E0E8E4F0E07E
:10424000118210828081918111969C938E938D9121
:104250009C911197F9019183808310C0A5E4B0E08F
:10426000E5E4F0E08081887F8C93A4E4B0E0E3E4AF
:10427000F0E0108280818C9301C0198289810F90B7
:104280000F900F900F90CF91DF910895DF93CF9310
:1042900000D00F92CDB7DEB79B838A8381E08983FC
:1042A0008A819B81009749F0E6E4F0E0808191816A
:1042B000EA81FB819183808301C0198289810F90FB
:1042C0000F900F90CF91DF910895DF93CF9300D09F
:1042D00000D0CDB7DEB78A8381E089838A81282F19
:1042E00030E03C832B838B819C81009769F02B818C
:1042F0003C812130310581F4AEE4B0E0EEE4F0E041
:10430000808180648C9309C0AEE4B0E0EEE4F0E01C
:1043100080818F7B8C9301C0198289810F900F90CF
:104320000F900F90CF91DF910895DF93CF9300D03E
:104330000F92CDB7DEB79B838A8381E089838A8120
:104340009B81009739F08A819B81909362018093D1
:10435000610101C0198289810F900F900F90CF9158
:10436000DF910895DF93CF93CDB7DEB7A9E5B0E035
:10437000E9E5F0E0808180628C9381E0CF91DF916C
:104380000895DF93CF93CDB7DEB7A9E5B0E0E9E5B7
:10439000F0E080818F7D8C9381E0CF91DF91089553
:1043A0001F920F920FB60F9211242F933F934F93AA
:1043B0005F936F937F938F939F93AF93BF93EF938D
:1043C000FF93DF93CF93CDB7DEB7809165019091D6
:1043D0006601009729F0E0916501F0916601099569
:1043E000CF91DF91FF91EF91BF91AF919F918F910D
:1043F0007F916F915F914F913F912F910F900FBEE1
:104400000F901F9018951F920F920FB60F921124C4
:104410002F933F934F935F936F937F938F939F93CC
:10442000AF93BF93EF93FF93DF93CF93CDB7DEB7F7
:104430008091630190916401009729F0E0916301FC
:10444000F09164010995CF91DF91FF91EF91BF91B8
:10445000AF919F918F917F916F915F914F913F911C
:104460002F910F900FBE0F901F9018951F920F92D3
:104470000FB60F9211242F933F934F935F936F9337
:104480007F938F939F93AF93BF93EF93FF93DF93AC
:10449000CF93CDB7DEB78091610190916201009713
:1044A00029F0E0916101F09162010995CF91DF91CE
:1044B000FF91EF91BF91AF919F918F917F916F91FC
:1044C0005F914F913F912F910F900FBE0F901F90D2
:1044D00018951F920F920FB60F9211242F933F93AE
:1044E0004F935F936F937F938F939F93AF93BF93FC
:1044F000EF93FF93DF93CF93CDB7DEB780915D014C
:1045000090915E01009729F0E0915D01F0915E01CC
:104510000995CF91DF91FF91EF91BF91AF919F915D
:104520008F917F916F915F914F913F912F910F905C
:104530000FBE0F901F9018951F920F920FB60F92FB
:1045400011242F933F934F935F936F937F938F9398
:104550009F93AF93BF93EF93FF93DF93CF93CDB729
:10456000DEB780915F0190916001009729F0E091A2
:104570005F01F09160010995CF91DF91FF91EF917B
:10458000BF91AF919F918F917F916F915F914F916B
:104590003F912F910F900FBE0F901F9018951F9273
:1045A0000F920FB60F9211242F933F934F935F9367
:1045B0006F937F938F939F93AF93BF93EF93FF93EB
:1045C000DF93CF93CDB7DEB780915B0190915C0113
:1045D000009729F0E0915B01F0915C010995CF9182
:1045E000DF91FF91EF91BF91AF919F918F917F915B
:1045F0006F915F914F913F912F910F900FBE0F9050
:104600001F9018951F920F920FB60F9211242F939F
:104610003F934F935F936F937F938F939F93AF934A
:10462000BF93EF93FF93DF93CF93CDB7DEB7809126
:10463000590190915A01009729F0E0915901F091A8
:104640005A010995CF91DF91FF91EF91BF91AF9101
:104650009F918F917F916F915F914F913F912F919A
:104660000F900FBE0F901F9018951F920F920FB6CC
:104670000F9211242F933F934F935F936F937F93E8
:104680008F939F93AF93BF93EF93FF93DF93CF935A
:10469000CDB7DEB78091570190915801009729F06E
:1046A000E0915701F09158010995CF91DF91FF9169
:1046B000EF91BF91AF919F918F917F916F915F919A
:1046C0004F913F912F910F900FBE0F901F90189513
:1046D000DF93CF93CDB7DEB781E065E041E00E9484
:1046E000482881E066E040E00E94482881E067E0D9
:1046F00041E00E94482881E064E041E00E944828AF
:1047000081E064E041E00E947229ADE2B0E0EDE2B8
:10471000F0E0808180618C93ADE2B0E0EDE2F0E00A
:10472000808180628C93ADE2B0E0EDE2F0E08081C8
:10473000877F8C93ADE2B0E0EDE2F0E080818460B1
:104740008C93ADE2B0E0EDE2F0E0808181608C938B
:10475000ADE2B0E0EDE2F0E0808182608C93AEE209
:10476000B0E0EEE2F0E080818E7F8C93ADE2B0E0CD
:10477000EDE2F0E0808180648C9381E0CF91DF9165
:104780000895DF93CF9300D00F92CDB7DEB7898322
:104790007B836A83EFE2F0E089818083EEE2F0E0E0
:1047A00080818823DCF7EFE2F0E08081EA81FB8101
:1047B000808381E00F900F900F90CF91DF9108954B
:1047C000DF93CF93CDB7DEB7ADE2B0E0EDE2F0E03E
:1047D00080818F7B8C9381E0CF91DF910895DF936F
:1047E000CF93CDB7DEB7A6E5B0E0E6E5F0E0808197
:1047F00080688C93E6E5F0E080818823DCF7CF9138
:10480000DF910895DF93CF93CDB7DEB7A1E2B0E09B
:10481000E1E2F0E080818E7F8C93A1E2B0E0E1E202
:10482000F0E080818D7F8C93E0E2F0E088E380838C
:10483000A6E5B0E0E6E5F0E0808180648C93A6E533
:10484000B0E0E6E5F0E0808184608C9381E0CF9178
:10485000DF910895DF93CF930F92CDB7DEB78983B1
:10486000E2E2F0E08981880F808381E00F90CF91B0
:10487000DF910895DF93CF93CDB7DEB7A6E5B0E023
:10488000E6E5F0E0808180628C930E94EF2381E076
:10489000CF91DF910895DF93CF93CDB7DEB7A6E533
:1048A000B0E0E6E5F0E0808180618C93A6E5B0E0C1
:1048B000E6E5F0E0808180688C9381E0CF91DF9124
:1048C0000895DF93CF9300D00F92CDB7DEB79A83D0
:1048D00089836B8389819A8123E0883E9207A9F0BE
:1048E000E3E2F0E08981880F8083A3E2B0E0E3E2B5
:1048F000F0E080818E7F8C93A6E5B0E0E6E5F0E005
:1049000080818F7D8C930E94EF23E3E2F0E08B8126
:1049100080830E94EF2381E00F900F900F90CF9142
:10492000DF910895DF93CF9300D000D0CDB7DEB7ED
:104930008A837C836B8381E089838B819C81009750
:1049400039F1E3E2F0E08A81880F8083A3E2B0E0EE
:10495000E3E2F0E0808181608C93A6E5B0E0E6E5DB
:10496000F0E080818F7D8C930E94EF230E94EF23E3
:10497000E3E2F0E08081EB81FC818083A6E5B0E09A
:10498000E6E5F0E080818F7B8C930E94EF2301C0ED
:10499000198289810F900F900F900F90CF91DF9126
:1049A0000895DF93CF93CDB7DEB7AFE5B0E0EFE585
:1049B000F0E0808180688C9381E0CF91DF91089551
:1049C000DF93CF93CDB7DEB7AFE5B0E0EFE5F0E032
:1049D00080818F778C9381E0CF91DF910895DF9371
:1049E000CF93CDB7DEB72B970FB6F894DEBF0FBECF
:1049F000CDBF8A836B8381E089838A81833008F00D
:104A000007C18B81843008F003C18A81282F30E0F0
:104A10003B872A878A859B858130910509F46DC083
:104A20002A853B852230310509F4C9C08A859B85DA
:104A3000009709F0EEC08B81282F30E03987288756
:104A4000888599858130910521F128853985223025
:104A500031052CF488859985009761F046C028853A
:104A600039852230310521F188859985833091057A
:104A700071F13BC0A5E5B0E0E5E5F0E080818E7F17
:104A80008C93A5E5B0E0E5E5F0E080818D7F8C9327
:104A90002CC0A5E5B0E0E5E5F0E0808181608C9375
:104AA000A5E5B0E0E5E5F0E080818D7F8C931DC049
:104AB000A5E5B0E0E5E5F0E080818E7F8C93A5E58B
:104AC000B0E0E5E5F0E0808182608C930EC0A5E562
:104AD000B0E0E5E5F0E0808181608C93A5E5B0E091
:104AE000E5E5F0E0808182608C93ABE5B0E0EBE53A
:104AF000F0E0808180648C938CC08B81282F30E023
:104B00003F832E838E819F818130910521F12E81FB
:104B10003F81223031052CF48E819F81009761F016
:104B200046C02E813F812230310521F18E819F8147
:104B30008330910571F13BC0A5E5B0E0E5E5F0E01B
:104B400080818B7F8C93A5E5B0E0E5E5F0E0808186
:104B5000877F8C932CC0A5E5B0E0E5E5F0E080818F
:104B600084608C93A5E5B0E0E5E5F0E08081877F87
:104B70008C931DC0A5E5B0E0E5E5F0E080818B7F7A
:104B80008C93A5E5B0E0E5E5F0E0808188608C934A
:104B90000EC0A5E5B0E0E5E5F0E0808184608C938F
:104BA000A5E5B0E0E5E5F0E0808188608C93ABE5B9
:104BB000B0E0EBE5F0E0808180688C932AC08B81C7
:104BC000282F30E03D832C838C819D81823091059C
:104BD00031F02C813D812330310549F010C0A4E52E
:104BE000B0E0E4E5F0E080818F7B8C9309C0A4E520
:104BF000B0E0E4E5F0E0808180648C9301C019822C
:104C0000ABE5B0E0EBE5F0E0808180628C9301C021
:104C1000198289812B960FB6F894DEBF0FBECDBFE7
:104C2000CF91DF910895DF93CF9300D000D0CDB71F
:104C3000DEB78A8381E089838A81833058F58A814F
:104C4000282F30E03C832B838B819C818130910520
:104C500089F02B813C8122303105A1F08B819C8130
:104C60000097C9F4ABE5B0E0EBE5F0E080818F7B25
:104C70008C9311C0ABE5B0E0EBE5F0E080818F777D
:104C80008C9309C0ABE5B0E0EBE5F0E080818F7D6F
:104C90008C9301C0198289810F900F900F900F9013
:104CA000CF91DF910895DF93CF93CDB7DEB72B97E8
:104CB0000FB6F894DEBF0FBECDBF8A836B8381E051
:104CC00089838A81833008F0F2C08B81843008F0B8
:104CD000EEC08A81282F30E03B872A878A859B8512
:104CE0008130910509F466C02A853B852230310563
:104CF00009F4BBC08A859B85009709F0D9C08B81D8
:104D0000282F30E03987288788859985813091055B
:104D100021F128853985223031052CF48885998543
:104D2000009761F0C5C0288539852230310521F111
:104D3000888599858330910571F1BAC0A5E5B0E009
:104D4000E5E5F0E080818E7F8C93A5E5B0E0E5E5B8
:104D5000F0E080818D7F8C93ABC0A5E5B0E0E5E508
:104D6000F0E0808181608C93A5E5B0E0E5E5F0E0BE
:104D700080818D7F8C939CC0A5E5B0E0E5E5F0E0F7
:104D800080818E7F8C93A5E5B0E0E5E5F0E0808141
:104D900082608C938DC0A5E5B0E0E5E5F0E0808110
:104DA00081608C93A5E5B0E0E5E5F0E0808182606C
:104DB0008C937EC08B81282F30E03F832E838E81A1
:104DC0009F818130910521F12E813F812230310573
:104DD0002CF48E819F81009761F06AC02E813F8103
:104DE0002230310521F18E819F818330910571F14F
:104DF0005FC0A5E5B0E0E5E5F0E080818B7F8C93B6
:104E0000A5E5B0E0E5E5F0E08081877F8C9350C0B8
:104E1000A5E5B0E0E5E5F0E0808184608C93A5E550
:104E2000B0E0E5E5F0E08081877F8C9341C0A5E5A7
:104E3000B0E0E5E5F0E080818B7F8C93A5E5B0E004
:104E4000E5E5F0E0808188608C9332C0A5E5B0E0B4
:104E5000E5E5F0E0808184608C93A5E5B0E0E5E5D0
:104E6000F0E0808188608C9323C08B81282F30E014
:104E70003D832C838C819D818230910531F02C8182
:104E80003D812330310549F010C0A4E5B0E0E4E5F0
:104E9000F0E080818F7B8C930BC0A4E5B0E0E4E56B
:104EA000F0E0808180648C9303C0198201C0198274
:104EB00089812B960FB6F894DEBF0FBECDBFCF9180
:104EC000DF910895DF93CF9300D000D0CDB7DEB748
:104ED0009B838A836C8381E089838A819B8100978D
:104EE00081F08C81833068F48C81882F90E0880F6A
:104EF000991FFC01E859FE4F8A819B819183808331
:104F000001C0198289810F900F900F900F90CF915F
:104F1000DF9108951F920F920FB60F9211242F93D5
:104F20003F934F935F936F937F938F939F93AF9331
:104F3000BF93EF93FF93DF93CF93CDB7DEB780910D
:104F4000680190916901009729F0E0916801F09162
:104F500069010995CF91DF91FF91EF91BF91AF91D9
:104F60009F918F917F916F915F914F913F912F9181
:104F70000F900FBE0F901F9018951F920F920FB6B3
:104F80000F9211242F933F934F935F936F937F93CF
:104F90008F939F93AF93BF93EF93FF93DF93CF9341
:104FA000CDB7DEB780916A0190916B01009729F02F
:104FB000E0916A01F0916B010995CF91DF91FF912A
:104FC000EF91BF91AF919F918F917F916F915F9181
:104FD0004F913F912F910F900FBE0F901F901895FA
:104FE0001F920F920FB60F9211242F933F934F935E
:104FF0005F936F937F938F939F93AF93BF93EF9341
:10500000FF93DF93CF93CDB7DEB780916C01909182
:105010006D01009729F0E0916C01F0916D01099507
:10502000CF91DF91FF91EF91BF91AF919F918F91C0
:105030007F916F915F914F913F912F910F900FBE94
:105040000F901F901895DF93CF93CDB7DEB7EAE3AB
:10505000F0E08FE78083E7E3F0E08DEF8083E4E327
:10506000F0E083E18083E1E3F0E01082EBE3F0E045
:105070001082E8E3F0E084EF8083E5E3F0E0108263
:10508000E2E3F0E08CE3808381E0CF91DF9108954B
:10509000DF93CF93CDB7DEB72E970FB6F894DEBF70
:1050A0000FBECDBF8A836B834C8381E089838A8165
:1050B000843008F00CC18B81883008F008C18C81E5
:1050C000813021F08C81882309F001C18A81282F49
:1050D00030E03E872D878D859E858130910509F4CE
:1050E0004FC02D853E85223031052CF48D859E855F
:1050F000009771F0EDC02D853E852230310509F411
:1051000077C08D859E858330910509F4A9C0E0C0E4
:105110008C81282F30E03C872B878B859C850097DE
:10512000D1F02B853C852130310509F0D1C0AAE3AF
:10513000B0E0EAE3F0E08081482F8B81282F30E057
:1051400081E090E0022E02C0880F991F0A94E2F7D6
:10515000842B8C93BDC0AAE3B0E0EAE3F0E0808149
:10516000482F8B81282F30E081E090E0022E02C092
:10517000880F991F0A94E2F7809584238C93A8C026
:105180008C81282F30E03A87298789859A85009776
:10519000D1F029853A852130310509F099C0A7E37E
:1051A000B0E0E7E3F0E08081482F8B81282F30E0EA
:1051B00081E090E0022E02C0880F991F0A94E2F766
:1051C000842B8C9385C0A7E3B0E0E7E3F0E0808117
:1051D000482F8B81282F30E081E090E0022E02C022
:1051E000880F991F0A94E2F7809584238C9370C0EE
:1051F0008C81282F30E038872F838F819885009706
:10520000D1F02F8138852130310509F061C0A4E348
:10521000B0E0E4E3F0E08081482F8B81282F30E07C
:1052200081E090E0022E02C0880F991F0A94E2F7F5
:10523000842B8C934DC0A4E3B0E0E4E3F0E08081E4
:10524000482F8B81282F30E081E090E0022E02C0B1
:10525000880F991F0A94E2F7809584238C9338C0B5
:105260008C81282F30E03E832D838D819E81009795
:10527000C9F02D813E812130310551F5A1E3B0E027
:10528000E1E3F0E08081482F8B81282F30E081E03E
:1052900090E0022E02C0880F991F0A94E2F7842B37
:1052A0008C9316C0A1E3B0E0E1E3F0E08081482FE9
:1052B0008B81282F30E081E090E0022E02C0880F21
:1052C000991F0A94E2F7809584238C9301C0198278
:1052D00089812E960FB6F894DEBF0FBECDBFCF9159
:1052E000DF910895DF93CF93CDB7DEB72E970FB63A
:1052F000F894DEBF0FBECDBF8A836B834C8381E001
:1053000089838A81843008F00CC18B81883008F051
:1053100008C18C81813021F08C81882309F001C182
:105320008A81282F30E03E872D878D859E858130AC
:10533000910509F44FC02D853E85223031052CF4AE
:105340008D859E85009771F0EDC02D853E852230BC
:10535000310509F477C08D859E858330910509F468
:10536000A9C0E0C08C81282F30E03C872B878B853B
:105370009C850097D1F02B853C852130310509F0C3
:10538000D1C0ABE3B0E0EBE3F0E08081482F8B814C
:10539000282F30E081E090E0022E02C0880F991F94
:1053A0000A94E2F7842B8C93BDC0ABE3B0E0EBE34F
:1053B000F0E08081482F8B81282F30E081E090E061
:1053C000022E02C0880F991F0A94E2F78095842369
:1053D0008C93A8C08C81282F30E03A872987898553
:1053E0009A850097D1F029853A852130310509F059
:1053F00099C0A8E3B0E0E8E3F0E08081482F8B811A
:10540000282F30E081E090E0022E02C0880F991F23
:105410000A94E2F7842B8C9385C0A8E3B0E0E8E31C
:10542000F0E08081482F8B81282F30E081E090E0F0
:10543000022E02C0880F991F0A94E2F780958423F8
:105440008C9370C08C81282F30E038872F838F8118
:1054500098850097D1F02F8138852130310509F0EA
:1054600061C0A5E3B0E0E5E3F0E08081482F8B81E7
:10547000282F30E081E090E0022E02C0880F991FB3
:105480000A94E2F7842B8C934DC0A5E3B0E0E5E3EA
:10549000F0E08081482F8B81282F30E081E090E080
:1054A000022E02C0880F991F0A94E2F78095842388
:1054B0008C9338C08C81282F30E03E832D838D81E2
:1054C0009E810097C9F02D813E812130310551F533
:1054D000A2E3B0E0E2E3F0E08081482F8B81282F47
:1054E00030E081E090E0022E02C0880F991F0A94FC
:1054F000E2F7842B8C9316C0A2E3B0E0E2E3F0E085
:105500008081482F8B81282F30E081E090E0022EAF
:1055100002C0880F991F0A94E2F7809584238C9328
:1055200001C0198289812E960FB6F894DEBF0FBE96
:10553000CDBFCF91DF910895DF93CF93CDB7DEB785
:1055400027970FB6F894DEBF0FBECDBF8A836B835B
:105550005D834C8381E089838A81843008F07AC03E
:105560008B81883008F076C08C819D81009709F48A
:1055700071C08A81282F30E03F832E834E815F8166
:105580004130510559F18E819F818230910534F46B
:105590002E813F812115310569F05DC04E815F810B
:1055A0004230510579F18E819F818330910509F454
:1055B0003DC051C0E9E3F0E08081282F30E08B81CD
:1055C000882F90E0A90102C0559547958A95E2F78A
:1055D000CA018170EC81FD8180833DC0E6E3F0E08B
:1055E0008081282F30E08B81882F90E0A90102C0B4
:1055F000559547958A95E2F7CA018170EC81FD8146
:10560000808329C0E3E3F0E08081282F30E08B81A4
:10561000882F90E0A90102C0559547958A95E2F739
:10562000CA018170EC81FD81808315C0E0E3F0E068
:105630008081282F30E08B81882F90E0A90102C063
:10564000559547958A95E2F7CA018170EC81FD81F5
:10565000808301C01982898127960FB6F894DEBF36
:105660000FBECDBFCF91DF910895DF93CF93CDB71C
:10567000DEB72D970FB6F894DEBF0FBECDBF8A837D
:105680006B8381E089838A81843008F084C08B81B8
:10569000813021F08B81882309F07DC08A81282FF9
:1056A00030E03D872C878C859D858130910571F197
:1056B0002C853D85223031052CF48C859D85009705
:1056C00069F06AC02C853D8522303105B1F18C85A9
:1056D0009D858330910509F447C05EC08B81282FDA
:1056E00030E03B872A878A859B85009759F02A8579
:1056F0003B852130310509F04FC0EAE3F0E08FEF40
:1057000080834AC0EAE3F0E0108246C08B81282FF4
:1057100030E03987288788859985009751F028855A
:10572000398521303105C1F5E7E3F0E08FEF808363
:1057300033C0E7E3F0E010822FC08B81282F30E0E8
:105740003F832E838E819F81009751F02E813F8170
:105750002130310509F5E4E3F0E08FEF80831CC0D0
:10576000E4E3F0E0108218C08B81282F30E03D8305
:105770002C838C819D81009751F02C813D812130BB
:10578000310551F4E1E3F0E08FEF808305C0E1E300
:10579000F0E0108201C0198289812D960FB6F8942D
:1057A000DEBF0FBECDBFCF91DF910895DF93CF93C2
:1057B00000D000D00F92CDB7DEB78A836B8381E033
:1057C00089838A81843098F58A81282F30E03D834F
:1057D0002C838C819D8181309105D1F02C813D817C
:1057E000223031052CF48C819D81009761F020C01E
:1057F0002C813D812230310581F08C819D81833067
:10580000910581F015C0EBE3F0E08B81808310C03F
:10581000E8E3F0E08B8180830BC0E5E3F0E08B816F
:10582000808306C0E2E3F0E08B81808301C01982AF
:1058300089810F900F900F900F900F90CF91DF9173
:105840000895DF93CF9300D000D000D0CDB7DEB75E
:105850008A837C836B8381E089838A81843008F02A
:105860003FC08B819C810097D9F18A81282F30E03D
:105870003E832D838D819E8181309105E1F02D81C4
:105880003E81223031052CF48D819E81009761F09C
:1058900028C02D813E8122303105A1F08D819E816D
:1058A00083309105B1F01DC0E9E3F0E08081EB8128
:1058B000FC81808316C0E6E3F0E08081EB81FC810F
:1058C00080830FC0E3E3F0E08081EB81FC81808383
:1058D00008C0E0E3F0E08081EB81FC81808301C0BF
:1058E0001982898126960FB6F894DEBF0FBECDBF10
:1058F000CF91DF910895DF93CF9300D000D00F9226
:10590000CDB7DEB78A836B8381E089838A81843057
:1059100008F073C08B81883008F06FC08A81282F0F
:1059200030E03D832C838C819D818130910549F14C
:105930002C813D81223031052CF48C819D81009792
:1059400061F05CC02C813D812230310571F18C8188
:105950009D8183309105E9F151C0ABE3B0E0EBE309
:10596000F0E08081482F8B81282F30E081E090E0AB
:10597000022E02C0880F991F0A94E2F784278C93A5
:105980003DC0A8E3B0E0E8E3F0E08081482F8B81E0
:10599000282F30E081E090E0022E02C0880F991F8E
:1059A0000A94E2F784278C9329C0A5E3B0E0E5E3ED
:1059B000F0E08081482F8B81282F30E081E090E05B
:1059C000022E02C0880F991F0A94E2F784278C9355
:1059D00015C0A2E3B0E0E2E3F0E08081482F8B81C4
:1059E000282F30E081E090E0022E02C0880F991F3E
:1059F0000A94E2F784278C9301C0198289810F9061
:105A00000F900F900F900F90CF91DF910895DF933B
:105A1000CF93CDB7DEB7A7E2B0E0E7E2F0E0808158
:105A20008F778C93A7E2B0E0E7E2F0E080818064BA
:105A30008C93A7E2B0E0E7E2F0E080818F7D8C9369
:105A4000A6E2B0E0E6E2F0E080818F7D8C93A6E2F2
:105A5000B0E0E6E2F0E0808187608C93A6E2B0E0FF
:105A6000E6E2F0E0808180688C9381E0CF91DF9165
:105A70000895DF93CF93CDB7DEB728970FB6F8948C
:105A8000DEBF0FBECDBF8E8378876F8381E08D83AD
:105A900019821A821B821C828E81803208F065C0B6
:105AA0008F819885009709F460C0809170018823E8
:105AB00009F05BC081E080937001A7E2B0E0E7E20B
:105AC000F0E08081807E8C93A7E2B0E0E7E2F0E036
:105AD00090818E81892B8C93A6E2B0E0E6E2F0E023
